:020000041008E2
:4000000000780408F90208100D00000061030810610308106103081061030810000000000000000000000000000000005D0308105D030810000000005D0308105D0308104C
:400040005D0308105D0308105D0308105D0308105D0308105D0308105D0308105D0308105D0308105D0308105D0308105D0308105D0308105D0308105D0308105D03081000
:400080005D0308105D0308105D0308105D0308105D0308105D0308105D0308105D0308105D0308105D0308105D0308105D0308105D030810091308105D0308105D03081004
:4000C0005D0308105D0308105D0308105D0308105D0308105D0308105D0308105D0308105D0308105D0308105D0308105D0308105D0308105D0308105D0308105D03081080
:400100005D0308105D0308105D0308105D0308105D0308105D0308105D0308105D0308105D0308105D0308105D0308105D0308105D0308105D0308105D0308105D0308103F
:400140005D0308105D0308105D0308105D0308105D0308105D0308105D0308105D0308105D0308105D0308105D0308105D0308105D0308105D0308105D0308105D030810FF
:400180005D0308105D0308105D0308105D0308105D0308105D0308105D0308105D0308105D0308105D0308105D0308105D0308105D0308105D0308105D0308105D030810BF
:4001C0005D0308105D0308105D0308105D0308105D0308105D0308105D0308105D0308105D0308105D0308105D0308105D0308105D0308105D0308105D0308105D0308107F
:400200005D0308105D0308105D0308105D0308105D0308105D0308105D0308105D0308105D0308105D0308105D0308105D0308105D0308105D0308105D0308105D0308103E
:400240005D0308105D0308105D0308105D0308105D0308105D0308105D0308105D0308105D0308105D0308105D0308105D0308105D0308105D0308105D0308105D030810FE
:400280005D0308105D0308105D03081010B5054C237833B9044B13B10448AFF300800123237010BD4890020800000000D4890810084B10B51BB108490848AFF300800848E6
:4002C000036803B910BD074B002BFBD0BDE81040184700BF000000004C900208D4890810B4480208000000007047EFF3108072B6704780F310887047FFF7F6FF72B6114C14
:40030000114DAC4209DA21686268A368043BA2BFC858D050FAE70C34F3E70C490C4A00209142BCBF41F8040BFAE70A480A490860BFF34F8F00F016F900F0F0F800F01EF899
:40034000FEE70000B46C0910CC6C0910489002080CA002080040020808ED00E0FEE7FEE700B504207146084202D0EFF3098001E0EFF30880043002F0E7FAFEE708B562B66A
:4003800000F09AFE002008BD704700BF5C4AD2F8803303F00F0303F1D00152F8212002F00702032A04D0042A05D092B9554914E0554A116811E003F1C002514951F8222022
:4003C00002F01F02112A06D0132A04D04FF4FA4103E04E4901E04FF400418BBB484BD3F8902502F00100D3F88825C2F30172D3F8883513F0405F07D0414BD3F88835C3F3B4
:400400000173012B02D102E0012300E0002303B108B9032A46D13A48D0F88025C2F31103D0F88425C2F30C02D0F88005C0F300600130B1FBF2F202FB03F2B2FBF0F131E0E9
:40044000012B2FD12E4BD3F8402602F00100D3F80026C2F30172D3F8003613F0405F07D0274BD3F80036C3F30173012B02D102E0012300E0002303B108B9032A12D120488E
:40048000D0F8002602F07F02D0F80036C3F30423D0F80006C0F3044002FB01F2B2FBF3F2B2FBF0F1164BD3F88033C3F3011321FA03F215494A601648D0F89030C3F30723A4
:4004C00001330069000E0130B2FBF0F08860B2FBF3F3CB600B6103F5742202F23F220D48A0FB0202C2F387420A7503F2E7330A4AA2FB03239B098B61DB03CB61704700BF77
:400500000000264000127A008C42020800366E010000214083DE1B43D34D621008B5104BD3F8802122F0404242F08042C3F88021D3F8802142F00042C3F88021D3F880218A
:4005400022F00102C3F88021FFF71EFFFFF71EFF00F0E2FE00F0E8FE02F034F908BD00BF0000264008B5FFF7C0FE074AD2F8883043F47003C2F88830BFF34F8FBFF36F8F95
:40058000FFF7B7FE08BD00BF00ED00E0034B0122C3F81028D3F81038704700BF00002840F0B58DB06C46394D0FCD0FC40FCD0FC495E80F0084E80F00002530E0344F6B0048
:4005C0002B44DE00BC196946204602F08BFA07F1480303EB052363602E4BA36024B940F226412D4802F0A0F924B940F2E5312A4802F09AF9BB599B0F04D140F22741264888
:4006000002F092F9E36843F07F43E360013505EB4502D3001E491944204602F0BBFB022DCCD91B4B1B6B9B0F04D140F227411A4802F07AF9164CE36B23F07F4343F080438D
:40064000E363002104F1300002F0A4FB236B43F080732363114C1249204600F009FFB4F90030002B08DB590903F01F03012202FA03F30C4A42F821300B4B0122C3F8182841
:400680001A6842F000421A600DB0F0BDF4770810649002084002674024780810847A08108D05081000E100E00000284010B584B00A4B009300218DF80410032302938DF87E
:4006C0000C10074C6A46204602F01AFBD4F8003843F00043C4F8003804B010BD649002080000284008B50A4BD3F8043813F0010F0DD0084AD2F88C32591CC2F88C12202B1E
:4007000005DDFFF7D3FF0022024BC3F88C2208BD00002840649002080246002318460AE012F0010F02D040F0C06001E040F08060C00852080133072BF2DD70472DE9F041DF
:40074000054688461F461046FFF7E6FF05EBC504631CC0F307421C4E334483F84820A31CC0F30722334483F84820E31C334483F848004046FFF7D0FF231DC0F307423344A6
:4007800083F84820631DC0F30722334483F84820A31D334483F848003846FFF7BDFFE31DC0F30742334483F848200834C0F30723344484F84830013505EBC505354485F8B5
:4007C0004800BDE8F08100BF64900208F8B50D4616461F46041E03DAA921174802F0A4F8AC4203DBAA21144802F09EF83F2D03DDAB21114802F098F89DF818303A46314625
:400800002046FFF79BFF012112E00A1902EBC20201320A48861804EBC40301330344D3F800E05F6840F802E077601B7A337201312B1B9942E9DDF8BD60780810AC900208E5
:4008400070B582B040F24121C54804F08FFE0020FFF762FF06460146C24804F087FEFF20FFF75AFF04460146BF4804F07FFE8020FFF752FF05460146BC4804F077FEBC4B0E
:400880009E4203D0C021BB4802F04EF8BA4B9D4203D0C121B74802F047F8B84B9C4203D0C221B44802F040F8FF23002280211046FFF744FFB24B93F84930922B03D0CA21F3
:4008C000AC4802F031F8AE4B93F84A30492B03D0CB21A84802F028F8A94B93F84B30242B03D0CC21A34802F01FF8A54B93F84C30D22B03D0CF219F4802F016F8A04B93F8A5
:400900004D30492B03D0D0219A4802F00DF89C4B93F84E30242B03D0D121964802F004F8974B93F84F30DB2B03D0D421914801F0FBFF934B93F850306D2B03D0D5218D48BC
:4009400001F0F2FF8E4B93F85130B62B03D0D621884801F0E9FF8023FF2200210120FFF7EDFE874B93F85230DB2B03D0DB21814801F0DAFF824B93F853306D2B03D0DC21EB
:400980007C4801F0D1FF7E4B93F85430B62B03D0DD21784801F0C8FF794B93F85530922B03D0E021734801F0BFFF754B93F85630492B03D0E1216F4801F0B6FF704B93F824
:4009C0005730242B03D0E2216A4801F0ADFF6C4B93F85830D22B03D0E521664801F0A4FF674B93F85930492B03D0E621614801F09BFF634B93F85A30242B03D0E7215D4840
:400A000001F092FF00238022FF210220FFF796FE5B4B93F85B30D22B03D0EC21554801F083FF574B93F85C30492B03D0ED21514801F07AFF524B93F85D30242B03D0EE2103
:400A40004C4801F071FF4E4B93F85E30DB2B03D0F121484801F068FF494B93F85F306D2B03D0F221434801F05FFF454B93F86030B62B03D0F3213F4801F056FF404B93F8A0
:400A80006130922B03D0F6213A4801F04DFF3C4B93F86230492B03D0F721364801F044FF374B93F86330242B03D0F821314801F03BFF00231A4619460220FFF73FFE0023B1
:400AC0001A4619460320FFF739FE00231A4619460420FFF733FE002300938023FF2204210220FFF773FE264B93F85B30D22B04D04FF482711F4801F017FF214B93F85C3013
:400B0000492B04D040F205111A4801F00DFF1C4B93F85D30242B04D04FF48371154801F003FF174B93F85E30DB2B04D040F20911104801F0F9FE124B93F85F306D2B04D0D9
:400B40004FF485710B4801F0EFFE0D4B93F86030B62B17D040F20B11064801F0E5FE11E06C7808108C780810A0780810B478081024499200607808102449D200B66DDB00B7
:400B800064900208714B93F86130922B04D04FF487716F4801F0C8FE6C4B93F86230492B04D040F20F116A4801F0BEFE674B93F86330242B04D04FF48871654801F0B4FED9
:400BC000624B93F86430D22B04D040F21311604801F0AAFE5D4B93F86530492B04D04FF48A715B4801F0A0FE584B93F86630242B04D040F21511564801F096FE534B93F8B6
:400C00006730DB2B04D04FF48C71514801F08CFE4E4B93F868306D2B04D040F219114C4801F082FE494B93F86930B62B04D04FF48D71474801F078FE444B93F86A30922B51
:400C400004D040F21D11424801F06EFE3F4B93F86B30492B04D04FF48F713D4801F064FE3A4B93F86C30242B04D040F21F11384801F05AFE354B93F86D30D22B04D04FF490
:400C80009171334801F050FE304B93F86E30492B04D040F223112E4801F046FE2B4B93F86F30242B04D04FF49271294801F03CFE264B93F87030DB2B04D040F2271124488A
:400CC00001F032FE214B93F871306D2B04D04FF494711F4801F028FE1C4B93F87230B62B04D040F229111A4801F01EFE174B93F87330922B04D04FF49671154801F014FE1A
:400D0000124B93F87430492B04D040F22D11104801F00AFE0D4B93F87530242B04D04FF497710B4801F000FE002407E0074B234493F84810074804F019FC0134092CF5DDAB
:400D40000A2004F02BFC02B070BD00BF6490020860780810C878081010B582B0FFF770FD00200B4B83F848000090034602463F21FFF72CFD074C084A0849204600F0DCFFF0
:400D8000236843F000432360FFF70AFC02B010BD6490020800006740E49F02083482081010B504462146034800F080FF0028F9D010BD00BF00006640054BD3F80833C3F3D5
:400DC0000803002BF8D0024BD3F84003704700BF0000664044F20703984200F09C8030B58BB00C461BD842F21503984200F09F8007D8B0F5805F2ED042F20903984276D0FD
:400E0000F0E043F20303984239D044F20603984239D043F20203984240F0E48023E045F20103984200F08F8008D844F20803984275D044F21003984240D0D3E045F2030380
:400E4000984200F0A280C0F0908045F20C03984200F0A480C6E064480DF0BEFB0021084602F00AFCBEE00B78002B40F0BB800021084602F001FCB5E0013BDBB200E00623A7
:400E8000002BF9D1AEE0594B1B88ADF814309DF8153013B9564AD35C00E00023002B40F0A180544804F0E8FB0021084602F0E4FB0122514B1A7000F0A1FA93E04F4804F006
:400EC00055FBA06841790279C3788478457800780290019500944A4804F048FB0223494A5360A2F5BF22A2F5207253607AE03F4B1B788DF8143000238DF81530ADF818309B
:400F000002238DF817308DF8163007F099FE05A80DF0BCFB66E00022374B1A7070473622314B1A810021084602F0A6FB5AE00B7823B92E4B18780DF073FB53E02B4B187824
:400F40000DF06EFB4EE0294A0B8813802E4B118899812E490968498819812D4919603621998010780DF05CFB3CE0204B1A780B789A4206D1274804F07FFB1C4BFF221A704C
:400F80005A700222244B9A602CE04B88B3F5007F28BF4FF40073144A138123E005AB07C983E807002289194B1B689B889A4219D1E0680FF025FFA8B9059B1B78003318BFCC
:400FC00001230D4A1370154804F056FB0E4B074A12889A810D4A126852881A810C4A1A6036229A800BB030BDAC420208009F0208C09F0208D0780810F7920208E478081051
:40100000FC78081000003840049F020814460208C89E0208207908108005324034790810F0B54FF0000E754627E00EEB4E02D300034403EB8703D3ED007A9FED127A67EE88
:40104000877AFDEEE77A17EE902A0DE00E4B83FB0234D317C3EBA4031E4603EB83035C00131B4B5532460135002AEFDC013700E00027052FD9DD0EF1010EBEF1050FF7DDB8
:40108000F0BD00BF0000C8426766666600B583B0044800F05BF9684607F0D6FD03B05DF804FB00BFD50D081008B502480FF09AFE08BD00BF049F02082DE9F041C0B062B6D3
:4010C00000F06AF97E4804F051FA7E4804F0D4FA7D4804F0D1FA7D4804F0CEFA7C4B1868002302221946406804F0CEFA794804F0C3FA03F06FF903F0E9F803F099F9FFF79E
:401100002BFE4FF4FA51012001F0BCFC01F096FCFFF7CCFA7049002001F0D6FCFFF7B6FF6C22002101A803F0A7FD01226B4B5A6000276B4B1F704EE0384603F089F9032076
:4011400001F0E6FB002442E0204603F0CFF80A2001F0DEFB03F006F9012003F015F90028FAD0604801F080FF5F4B1B6803EB83035E4A02EB83035B6823B94FF476715C48FC
:4011800001F0D2FB0021574801F0EEFF80463E462546554B1B6803EB8303544A02EB83035B6823B94FF49661514801F0BDFB424600214C4802F02EF806EB460605EB46058E
:4011C00040AB03EB850545F8900C0134E4B2052CBAD90137FFB2052FAED90123404A13703E4A936001A91CA8FFF71AFF00231A4615E0404CE55C501C40A9114411F8FC1C47
:4012000041EA0511C9B20232D2B240AD55FA80F010F8FC0C40EA0111E15401339BB2352BE7D907F01FFD2E4B1B7843B1324B5B78324AD35C13F0FF0F01D1FFF735FF00252C
:401240003AE02F46264605EB450304EB430340AA02EB830353F8900C80F0004003F06CFA0022274B03F00AF90022254B03F0E2FB0022244B03F0B4FA03F0C4FCC1B28029CC
:4012800003D9A1F13203DBB200E00B464B2903D9A1F11E02D2B200E00022AA2900D8002106EBC700FFF74AFA0134E4B200E00024052CC6D90135EDB2052DF8D935E700BF35
:4012C0004C79081058790810AC790810C879081070480208207A0810E506081000063240F792020800001D4144970208A4820810287A0810C89E0208009F0208D09F020843
:40130000000008400000704008B5024800F04AFB08BD00BF2893020808B500221146042000F030F908BD00BF10B501F06AFB0446044800F0E3F9044800F044FA204601F0EB
:4013400064FB10BDFC920208487A081088B108B5094AD062094B1B7833B9104602F016F80122064B1A7000E0002020B902F03EF808BD0348704708BDB84202087C94020882
:401380000100160008B50249024801F02FF908BD149F02080000664008B5114B1B785BB9104A1149114800F0F7FE1149114800F05FF801220A4B1A700E4BB3F90030002B75
:4013C00008DB590903F01F03012202FA03F30A4A42F82130054A136843F00043136008BD84940208149F0208407D08100000664085130810947A081000E100E008B5084B26
:401400001B783BB9074A0121074800F06FFB0122034B1A70044B02229A609A6108BD00BF85940208807D08100000384038B50C4B9A680C4B9A420ED10D46044619B9FC218E
:40144000094801F071FA04F11003064A52F8230042F8235038BD1030044B53F8200038BD00ED00E000400208E47D08100000081070B338B504460D464368072B03D9362104
:40148000154801F051FAB4F900306268002B08DB5201D2B203F1604303F5614383F8002305E003F00F035201D2B20C49CA540C4B9A680C4B9A420DD11DB94521064801F01D
:4014C00033FA2946B4F90000FFF7B0FF002038BD05487047002038BDE47D081014ED00E000ED00E0004002080100560038B50369002B0DDA0D4604460B0C1B0423B140F2C4
:40150000A721044801F010FAA9B26160002038BD014838BD287E081001008A0038B50368002B01DA002300E0094B73B90D460446C2600B0C1B0423B140F28E21054801F01B
:40154000F3F9A9B2A160002038BD014838BD00BF01008A00287E081038B504460D4619B99921064801F0E0F92369002B03DAE3682B60002038BD024838BD00BF687E08101F
:4015800001008A000F2840D8F8B515460E46044682B979B90F2804D940F29D11214801F0C3F9600100F1804000F50C101E4B18600020F8BD5DB366B316F01F0F2BD10F2CC7
:4015C00004D940F29D11174801F0AEF9640104F1804404F50C14144F3C607E60BD60F2080021284603F048FB00212046FFF77EFF3A4652F8040B0021FFF790FF68B900218C
:401600003868FFF773FF50B9F8BD084870470748F8BD0648F8BD0548F8BD0548F8BD0448F8BD00BFA87E08108894020803018A0001018A002DE9F0411B4B1B68DC68236895
:4016400083422CD90D464609A0EB4610012303FA00F819B901F0D5F9074600E00027124B18680368002B01DA002300E00F4B83B9626852F8263018EA030F05D023EA0803CD
:4016800042F82630002400E0094C0021FFF72EFF00E0084C25B9384601F0B7F900E0064C2046BDE8F08100BF8894020801008A00020188000301880004018A000B4B1B682F
:4016C000DB681A6882420CD94109A0EB4110012202FA00F05B6853F82130184203D004487047044870470448704700BF889402080101880004018A0000018800024B1B685B
:401700000BB9014B18607047949402082DE9F8430446884691461E46089F072803D9B421244801F001F9244B1B682C2000FB04F01C18F5B21D50C6F307236360360CA66053
:401740000F2D04D940F29D111C4801F0EDF86D0105F1804505F50C15256165680F2D04D94FF4DC71154801F0DFF8154B03EB45156561A668330C1B0423B14FF4EB710F482D
:4017800001F0D2F8330C1B0423B140F2D7110B4801F0CAF8B3B243EA0646AE60C4F81C90C4F820800023A36117B1B7F90030A381BDE8F883E87E081094940208A87E08106B
:4017C00000102340F0B58FB0044618B950212C4801F0AAF8A369072B03D95421284801F0A3F8E36A1BB95621254801F09DF8E368072B03D95721224801F096F8236A072B70
:4018000003D958211E4801F08FF8236B1BB959211B4801F089F807AE04F114050FCD0FC62F6802AD26460FCE0FC533682B60079B1933ADF83030089B0D93A26AE16A0CAD81
:4018400000953B460A98FFF761FF00210091069B0A460598FFF75AFF216B2846FFF708FEBDF93030002B08DB590903F01F03012202FA03F3034A42F821300FB0F0BD00BF22
:40188000E87E081000E100E0F8B507460E461D4614461AB9FC21224801F046F8072F03D9FD211F4801F040F8072E03D9FE211C4801F03AF81B4B1B682C2202FB073002FB76
:4018C00006367368012202FA03F31B04476802FA07F70269EAB1B169E9B91268002A01DA002200E0104AC2B92288134323600369DC600123B361756204693B0C1B0423B1FB
:4019000040F28E21094801F00FF8BAB2A2600020F8BD0748F8BD0748F8BD0648F8BD00BFE87E08109494020801008A00A87E081004028A0007028A0070B504460E461546B6
:40194000072804D940F25F11084800F0EDFF084B1B682C2202FB0434E369AB4204D9236A43F82560002070BD024870BDE87E0810949402080A028A0038B504460D4607280E
:4019800004D94FF4C771054800F0CEFF044B1B682C2202FB0434A56238BD00BFE87E08109494020870B582B000230193044620B94FF4D971264800F0B7FF236923B940F299
:4019C000B311234800F0B0FF636923B94FF4DA711F4800F0A9FF236A23B940F2B5111C4800F0A2FF6369DD682A0C1CD012041A601B6820690369002B15DA01A9FFF7ACFDF0
:401A000060B9019803681E0CDBB2E269934206D2226A52F8233013B1984700E0002631462069FFF763FDADB275B16369ADB21D601B68636A1BB198470023636202E0A36AB3
:401A400003B198470023A36163691B6802B070BDE87E081010B50446072804D940F20B210D4800F061FF0D4B1B682C2202FB0434B4F90C30002B0DDB5A0903F01F030121EE
:401A800001FA03F32032064941F82230BFF34F8FBFF36F8F002010BDE87E08109494020800E100E010B50446072804D940F22A210B4800F039FF0B4B1B682C2202FB0434FC
:401AC000B4F90C30002B08DB590903F01F03012202FA03F3044A42F82130002010BD00BFE87E08109494020800E100E0002800F0AC8070B40446002A00F0A98092F8283096
:401B00000BB1012500E00025137F0BB1022300E000231D431669B60406F4802645EA060395682D0405F440351D431668300600F0E0602843136B556B43EA45031B0503F4C2
:401B400040130343906B43EA8000052E03D1D3681B029BB202E053681B029BB20343081D800123501368062B08D104EB81130120C3F808013F20C3F828011DE0936843B9EE
:401B800004EB81130020C3F808013120C3F8280112E0012B08D1506904EB8113C3F808011C20C3F8280107E004EB81130120C3F808011220C3F82801106A04EB8113C3F855
:401BC0000C01506AC3F810015069C3F814019069C3F81801136EB3F1FF3F17D0106C00F00F00966C360206F470663043156D2D0405F470250543906D000380B228431B0178
:401C0000DBB2034304EB8110C0F82031D36B03F00303566C360106F030063343D56C2D0205F440752B43506D8001C0B21843D36D9B0003F00C03034304EB8114C4F8243127
:401C4000D36AC4F83831002002E002487047014870BC70470100B60010B4D0F8003303F00F03072B06D900230DE0D0F84043CC54013300E000239342F7D306E0D0F84043C5
:401C800021F8134001339342F8D35DF8044B704710B51446D0F80833C3F308039A4200D31C462246FFF7D8FF204610BD036813F4006F01D0802200E04022D0F80832C3F3DF
:401CC0000803934203D0C0F84012012070470020704700BF10B4D0F8003203F00F03072B06D900230DE0CC5CC0F84042013300E000239342F7D306E031F81340C0F8404201
:401D000001339342F8D35DF8044B704710B51446036813F4006F01D0802200E04022D0F80832C3F30803D31AA34200D81C462246FFF7D0FF204610BD002800F03081F8B51A
:401D40000546002900F02D810B78012B03D19948854200F02881087F18B19648854240F0248116460C46012B03D94C21924800F0DBFD6378012B07D9052B05D0022B03D012
:401D80004D218D4800F0D0FDA378032B03D94E21894800F0C9FD2378012B07D16368023B0E2B03D95021844800F0BEFDA36933F00F0303D05121804800F0B6FDA368043B29
:401DC0000C2B03D952217C4800F0AEFDE368043B0C2B03D95321784800F0A6FD6378022B07D0A268E3689A4203D05421724800F09BFD636A33F06D0303D056216E4800F0B0
:401E000093FDE36A33F0730303D057216A4800F08BFD236B33F4206303D05821664800F083FD6378A778052B07D8DFE803F0060305060603022700E00027A368082B04D8EB
:401E4000E368082B03D9002302E0002300E0012313B14FF4006200E00022217F11B14FF4807300E000231A436368013B03F00F03134343F080732B60236A2A6812F4006FD2
:401E800001D0802200E04022934203D365214A4800F04AFDA36A2A6812F4006F01D0802200E04022934203D36621434800F03CFD237D0BB9012100E000216278052A01D162
:401EC000022300E000230B43E17C09B1102100E000210B43617C09B1202100E000210B432178012902D14FF0004100E000210B43BF0007F00C073B43A169090201F4706127
:401F00000B43120602F0407213432B62237C13B14FF4807200E00022A17C11B14FF4007300E000231A43A368013B03F00F031343C5F8003394F82030C5F80433237C13B160
:401F40004FF4807200E00022E368013B03F00F031343C5F8003294F82830C5F80432636A03F06D03C5F8C83FE36A03F07303C5F8883F236B03F40073C5F8003F236B03F4DB
:401F80000063C5F8403F0023C5F8C83E7EB118463360B361F360F361084B3362F8BD084870470748F8BD0648F8BD0548F8BD0020F8BD00BF000069406C7F0810EFCDAB006D
:401FC0000140AA002DE9F84305460C46036813F4006F02D04FF0800801E04FF04008D5F8007207F00F07A26A012A19D9D4F82490E262561EB9F1000F00D026B940F22C5162
:40200000254800F091FC324649462846FFF77EFEA36A1B1AA362072F00D9400048446062D5F80832C3F30803984533D0A36A012B30D10023A362072F02D8636A1E7801E08D
:40204000636A1E8800F0DDFCC5F840624FF40073C5F8803FD5F8803F00F0D7FCD5F8883F23F4007222F0010242F4007623F4EE6323F0030323B14FF48161084800F054FC5C
:40208000C5F8886F236843F002032360236B0BB101209847BDE8F883AC7F0810287F08102DE9F04105460C46036813F4006F01D0802600E040267608A769D4F81C8017B17A
:4020C000B8F1000F04D14FF49061314800F02CFC424639462846FFF7DBFD236A03442362E3691B1AE36173BBA368FBB1E3689E4201D8013E00E05E1E2B6813F4006F01D0CF
:40210000802300E040239E4204D340F25E21214800F00AFCD5F8043323F0FF03F6B21E43C5F804630123C5F8C83F02E00023C5F8C83F636823F001036360236B33B30420BE
:402140009847BDE8F081A169D5F8002302F00F02072A00D940000844A0619E4216D95C1E2B6813F4006F01D0802300E040239C4204D340F25E21074800F0D6FBD5F8043353
:4021800023F0FF02E3B21343C5F80433BDE8F081AC7F0810287F0810002800F0A98170B50546002900F0A6819E4B984200F0A48116460C460B78022B03D942219A4800F0DB
:4021C000B3FB637B023BDBB2062B03D94321964800F0AAFBA37B3BB1022B05D0032B03D04421914800F0A0FB94F82130012B03D945218D4800F098FB94F82830012B03D940
:402200004621894800F090FB2378012B06D86368083B082B94BF0023012307E0A37F2BB16368013B062B94BF002301231BB148217D4800F079FBA368053B042B03D9492196
:40224000794800F071FB6369FF2B03D94A21764800F06AFBA369FF2B03D94B21724800F063FBA37C6BB1237833B9A368092B05D1A37B2BB1012304E0012302E0012300E088
:4022800000231BB14D21684800F04EFB636B23F4366323F00D031BB14F21634800F044FBE36B23F4EE6323F003031BB150215E4800F03AFB2378022B01D1A37F13B16368FF
:4022C0005A1E00E00022237F13B14FF4803100E00021A068082802D84FF4006300E00023194302F00F030B4343F000732B60236B2A6812F4006F01D0802200E04022934250
:4023000003D36521484800F00FFBA36B2A6812F4006F01D0802200E04022934203D36621414800F001FB636A2A6812F4006F01D0802200E04022934203D367213A4800F018
:40234000F3FA23781B0603F040732B64637F0BB1402200E00022A17C11B14FF4806300E000231343227C12B14FF4807200E000221343627C12B14FF4007200E000221A437C
:40238000E36A013B1B0403F470231343627B013A02F007021343A27B120102F030021343AB64237B13B14FF4807200E00022E17B21B92378022B03D1012302E0012300E0FE
:4023C000002313B14FF4007300E000231A43A368013B03F00F031343C5F80033227DA3691B0403F47F031343C5F81033E26AD5F8003303F00F0303339A4201D3102A03D968
:402400007D21094800F090FAE37F23B12378012B03D0002302E0002300E0012333B14FF4807204E000006940EC7F08100022637B013B03F007031A43A37B1B0103F0300318
:4024400013436B64237B13B14FF4807200E00022A368013B03F00F0313432278012A02D14FF4803200E000221343C5F8003294F83030C5F8043394F8203013B14FF00071F8
:4024800000E0002194F82120012A02D14FF0807300E000230B4394F82820012A02D14FF4803200E00022134394F8242013432B6594F83830C5F80432636B23F4926323F024
:4024C00002031B051B0DC5F8C83FE36B23F08C035B055B0DC5F8883F86B1002070603060B060F0603062F0623063054B736370BD04487047034870BD024870BD002070BD6F
:40250000EFCDAB000160AA000B694A69934202D34869181A7047CA694869101A184470472DE9F04107460D46036813F4006F02D04FF0800801E04FF040084FEA5808D7F86C
:402540000863C6F308062C6926E00134EB689C4200D100246B699C420FD12B6B0BB1082098476B699C4208D10023C7F8C83F0CB1013C13E0EC68013C10E0D7F84023D7F865
:40258000003303F00F03072B02D8AB681A5502E0AB6823F81420013E002ED6D12C61EC6829463846FFF7B0FF201A804519D908B1441E00E000243B6813F4006F01D08023ED
:4025C00000E040239C4204D340F25E21064800F0ABF9D7F8040320F0FF03E0B21843C7F80403BDE8F08100BF287F081038B504460D46D0F8003E13F0080F35D0D0F8CC3F9F
:4026000013F448730AD04A681A434A60C0F8C03FD0F8C03F0B6B0BB110209847D4F8CC3F13F4006F09D06B6843F400636B604FF40063C4F8C03FD4F8C03FD4F8CC3F13F022
:40264000010F11D0EB6923B129462046FFF728FD05E0AB681BB129462046FFF761FF0123C4F8C03FD4F8C03FD4F8003E13F0040F2ED0D4F88C3F13F4A0630AD02A681A4330
:402680002A60C4F8803FD4F8803F2B6B0BB120209847D4F88C3F13F0010F08D029462046FFF790FC0123C4F8803FD4F8803FD4F88C3F13F4007F0BD00022C4F8882F2B68F6
:4026C00023F001032B60EA622B6B0BB10220984738BD00BF1F4B98422DD00CD840282ED003D8E8B1102828D02FE0802829D0B0F5807F28D029E0184B984228D006D8B0F1AD
:40270000204F0DD0154B984212D01EE0144B98420AD00133984209D0023B984215D101E0002070470F4870470F4870470F4870474FF4A0007047074870470D4870470D4859
:4027400070470D487047034870470C4870474FF4A400704706005200010000F0090000A0040000F0010052000200520003005200010050000200500005005200FF005200BE
:4027800008B50C4B1B69002B12DB0B4B1868FFF7A1FF0122094BC3F88C24084BD3F80C34002BFAD1054BD3F88C34002BF5D108BD034808BD20002340989402080000254008
:4027C0000200500000B583B05523ADF80030002301930C496846FEF74BFEBDF90030002B08DB590903F01F03012202FA03F3064A42F82130022205490120FFF79DF803B02E
:402800005DF804FBF948020800E100E0194A020838B5044600F0F5F82CB1184B5B681F2B03D9002302E0002300E001231D460BB3E368E3B12368E3B1104B99680B46002274
:4028400003E0A34204D01A465B69002BF9D100E000257DB111B9094B9C6000E05461226100236361054A53680133536002E0002500E0002500F0C9F8284638BDA894020800
:4028800038B5044600F0BDF8144B5A680AB399680B4602E0A34204D05B69002BFAD1002500E00125B5B1A14206D14B695BB10B498B600021196106E019695C694C61596936
:4028C00009B11B690B61013A044B5A6012B99A6000E0002500F099F8284638BDA894020810B5044605E0084B186800F081F8A4F50044B4F5004FF6D8044B186800FB04F065
:4029000000F076F810BD00BFA8420208A442020808B5034B1B7800FB03F000F069F808BDA042020801BEFEE738B50D46044C18220146204602F05AFFA5610020FFF7F2FFC8
:40294000084D0208FEE700BF08B50268254BDA6142681A6282685A62C2689A620269DA6242691A6382695A63C2699A631E4A916AD963D16A1964516A5964516B9964926B6C
:40298000DA64F1EE103A13F0900F27D0026A154B1A65426A5A65826A9A65C26ADA65026B1A66426B5A66826B9A66C26BDA66026C1A67426C5A67826C9A67C26CDA67026D2C
:4029C000C3F88020426DC3F88420826DC3F88820C26DC3F88C20026EC3F89020FFF7B2FF08BD00BF084D020800ED00E0000000000230800803D001300238FCD100BF00BF11
:402A00007047EFF3108072B6704780F310887047084B1B6813F4803F07D17047064B53F8243003B19847013401E010B50024042CF4D910BD10E000E0D8940208044B1A683E
:402A400042F002021A601A6842F001021A60704710E000E0042805D1084A136843F0040313607047000600F04070054BC3F84002024A136823F004031360704710E000E0ED
:402A80000000214010B50C46002304E000210A4A42F823100133042BF8D9084A084BDA63FFF7D8FF24F07F44064B5C6000229A60FFF7C4FF10BD00BFD8940208112A0810C4
:402AC0000040020810E000E00346042805D8044A52F8200042F8231070470020704700BFD8940208002800F0FF8038B50546002900F0FC800C460B78032B03D930217D4829
:402B0000FFF712FF6378032B03D931217948FFF70BFFA378032B03D932217648FFF704FF2379032B03D933217248FFF7FDFEA379012B03D934216F48FFF7F6FEE379012B20
:402B400003D935216B48FFF7EFFEE378012B03D936216848FFF7E8FE6379022B03D937216448FFF7E1FE237A022B03D938216148FFF7DAFE237803F003016278930003F021
:402B80000C030B43A278120102F03002134322799201D2B21343A279920602F080621343E279D20602F000621343E278120602F0807213436279120702F040521343227A39
:402BC00043EA82732B60E3686B602369AB60237A012B07D013B1022B31D089E0E36AEB60002038BD636903F50063B3F5805F03D352214048FFF798FEA36903F50063B3F5B9
:402C0000805F03D353213B48FFF78EFEE369013BFF2B03D954213748FFF786FE6369C3F30B02A369344901EA03331A43E369013B42EA0363EB60E36A2B61002038BD6369B5
:402C400003F50063B3F5805F03D361212948FFF76BFEA36903F50063B3F5805F03D362212448FFF761FEE369013BFF2B03D963212048FFF759FE236A03F50063B3F5805F0C
:402C800003D364211B48FFF74FFE636A03F50063B3F5805F03D365211648FFF745FEA36A013BFF2B03D966211248FFF73DFE6269C2F30B01A269104B03EA02320A43E16966
:402CC000013942EA0162EA60226AC2F30B02616A03EA01331343A26A013A43EA02632B61E36A6B61002038BD04487047034838BD002038BD2C80081000F0FF0001004E0044
:402D0000214B984203D003F58053984234D10F2934D8002A34D01368002B33D070B516460D4604469368032B03D9B4211748FFF7FBFD326804EB4513C3F80C28337913B130
:402D40004FF4802200E00022B3681B0403F440331343327B12B14FF0004200E000221343727B0AB1042200E00022134305F1400149016350002070BD05487047044870477B
:402D80000348704702487047000028402C80081001004E0038B50D46044618B9F1210848FFF7C2FD23689B0F012B05D013B1022B04D038BDE56038BD256138BD656138BDC3
:402DC0002C8008102DE9F8430E46074618B937216F48FFF7A9FD1EB938216D48FFF7A4FD002F00F0CF80002E00F0CF803268694B13401BB147216648FFF796FD7268664BB3
:402E000013401BB148216248FFF78EFDB36813F0FC2F03D049215E48FFF786FDF36813F0FC2F03D04A215A48FFF77EFD337D032B03D94B215648FFF777FDB369B3F5803FAF
:402E400003D34C215248FFF76FFDF36D072B03D94D214F48FFF768FD336EB3F5803F03D34E214B48FFF760FD736EB3F5803F03D34F214748FFF758FD73687B60B3683B613D
:402E8000F3687B613369BB61337D9B07FB61B3693B62336803F46068736803F00409002435E02546A31D06EB83035A683B4B13401BB15F213648FFF737FDAB1D06EB8303DE
:402EC000596805F1200247F822105B6813F0012F0BD1B8F5606F08D1B9F1000F05D04FF478422F4B23F8152003E000222C4B23F81520726F02F11C7303F58033520093FB52
:402F0000F2F31BB2274A42F825300134E4B20F2CC7D9F36DC7F81832336EC7F82832736EC7F8383296F87030DBB1B36EB3F1804F03D37B211648FFF7F7FCF36E23F44F033B
:402F400023F0FF031BB17C211148FFF7EDFC6FF04043C7F80433B36EC7F80033F36EC7F84433D7F8003F3F2B02D0D7F8003F13B90B23C7F8003F336843F400133B60002029
:402F8000BDE8F8830848BDE8F8830748BDE8F883A48008100811DF0001FE302088CA887E4C9F02086C9F02080100060038B50D46044618B9AD211748FFF7B6FC2CB30023F4
:402FC000236063604FF0031222616261A361E361236206E003F12002002144F822100133DBB20F2BF6D90023C4F81832C4F82832C4F838325DB16FF04043C4F80433002067
:40300000C4F84003C4F8440338BD034838BD002038BD00BFA48008100100060008B50368002B0ADBD0F8A032002BFBDB036843F0004303600220FFF76BFC08BD38B50546AF
:403040000C46012904D940F265110648FFF76CFC012C04D16B6843F480336B6038BD01236B6238BDA4800810436813F4803F03D0436823F480334360704700BF38B50446F9
:403080000D46012904D940F2D1111148FFF74CFCD4F8103203F00103012D06D00AE0D4F8103203F00103013A00E00A4A1BB9002AF5D100E0074A33B10123C4F81032D4F8DD
:4030C0001032002038BD0AB9034838BD034838BDA480081055555501020006000300060038B505460C460F2904D940F243210848FFF71AFC0F2C07D8203455F8243013F046
:40310000012F03D0002038BD002038BD012038BDA480081038B505460C460F2904D940F212211048FFF700FC0F2C14D821462846FFF7D6FF80F0010010F0FF0F05D06B68D4
:4031400013F0080F09D1002038BD6B6813F0040F05D1002038BD002038BD012038BD012038BD00BFA480081038B505460C460F2904D940F269210648FFF7D6FB0F2C04D8AF
:40318000603455F8240080B200E0002000B238BDA4800810F8B506460C4615460F2904D940F263311948FFF7BFFB0F2C2BD8736813F0800F22D104F1200356F8233013F405
:4031C000806F1BD07768C7F302170137012303FA07F7736813F4807F02D1102F00D9102721463046FFF796FF20B9ADB2B5FBF7F52DB203E03FB295FBF7F52DB2044B33F825
:403200001430ED1A2DB22846F8BD00BFA48008104C9F020870B505460C4616460F2904D940F2C3311348FFF77FFB0F2C1AD86B6813F0020F19D1324621462846FFF7AAFF43
:4032400007EE900AF8EEE77AF2EE046A67EEA66A094B53F8243007EE103AB8EEC77AC6EE877A04E0DFED057A01E0DFED047A17EE900A70BDA48008106C9F02080000000080
:4032800010B50378012B02D0082B29D02EE01B4B1B78012B2CD00320FEF710FA184B984228D0FFF7AEFB174B1860022005F0DCFC044605F0E4FC022C05D1032805D0052866
:4032C00005D1002404E0104C02E0002400E00E4C0D4B9C420FD10B4B1868FFF796FB0AE0084B1868FFF791FB002404E0064C02E0054C00E0044C204610BD00BFB89F020892
:4033000001018800EC940208FF00420008B50378022B1CD0082B14D0012B1ED1124B1B78012B1CD0FFF76DFB104B5860022005F09BFC022815D00D4B5868FFF766FB0C48BC
:4033400008BD0A4B5868FFF760FB002008BD074B5868FFF75AFB064808BD054808BD044808BD002008BD00BFB89F0208EC940208FF00420010B5044C2046FFF781FA04F1F9
:403380001800FFF77DFA10BD1C46020810B5A8B10D4A9060C36A0BB10C4A136000240C4B1C700C4B1C700C4B1C600C4B1C7000F057F90B4B1C700B4B1C7000E00A4CFDF76A
:4033C000B3FF204610BD00BFEC940208B09F0208CC9F0208D09F0208D49F0208D19F0208B79F0208BC9F02080100160010B590B0374B0CAC186859689A68DB680FC42822A3
:40340000002102A801F038FC324B02930CAB049343F6FC63ADF8143004238DF816302E4A92681269069241F266020792FB22ADF82020ADF8222003228DF824208DF825305F
:4034400006238DF8263010238DF827308DF828308DF829307B23ADF82A3001238DF82E301E4C2046FFF7D4F904F11800FFF7D0F905F0E4FB05F0E6FB05F0E2FB08A805F05A
:4034800049FC034608BB164B039302A805F00AFC0346B8B90122134B1A700023124A1370124A13700C4B9B681A6A00929B6ADB88ADF8043040F2EF13ADF8063068460EF00D
:4034C00039FB034600210A4A1160184610B010BDE0800810353A0810EC9402081C4602089C4D0208B89F0208C09F0208C19F0208D49F020808B5044B1B689847034B1B68A6
:4035000003B1984708BD00BF10950208AC9F020808B510B1034A52689047034B1B6803B1984708BD10950208AC9F020870B5C0B006460C4615464FF480720849684601F034
:4035400090FB05E016F8012B6A401DF80250013C002CF7D1284640B070BD00BFF080081008B50022FFF7E2FF08BD00BF08B5FFF748FA08BD08B5FFF748FA08BD08B5012001
:40358000FEF790FA08BD00BF08B5FFF7F7FF08BD08B50120FEF75EFA08BD00BF08B5FFF7F7FF08BD08B5094B58601960012208491046FEF7C1F9034628B900220549012007
:4035C000FEF7BAF90346184608BD00BF1095020811350810F534081038B515460B46024601210020FEF750F9044618B129460120FEF7C2F9204638BD704700BF704700BFAF
:4036000000207047004870471100160000487047110016000048704711001600004870471100160000487047110016000048704711001600004870471100160000487047AA
:4036400011001600004870471100160000487047110016000048704711001600704700BF08B5034800F03AFD024800F049FD08BD144602080C460208F8B5022872D80029BD
:4036800072D10022134606E03B4CE45C012C01D90132D2B20133002BF6D0012A0CD1374B1B681C6801EB8102930023445B681B79023BDBB2012B59D8314B1B78002B57D1E2
:4036C000304B1970E0B92D4F3C68236801EB8105AA009D186668C1EBC1014B001E44B18829822168114449686468E45A0C8039680C682244526849680B445B8853801EE0D6
:4037000001281CD11D4F3C68236801EB8105AA009D186668C1EBC1014B001E44B1892982216811444D68616819440989298039680C682244526849680B445B895380124BFC
:4037400018700E4B1B6818680E4B1B7803EB83039A00104409F014FE034650B90121084A117006E0094B04E0084B02E0084B00E0084B1846F8BD00BFC09F0208F49402081F
:40378000C19F0208B69F0208D19F02080100160002001600FF00160070B439B9144B1B681B689968CE7F00231D460EE0104B1B681B68D968CE7FF6E7CA5C52B10133CC5CF4
:4037C0001B2C01D0134400E00125B34201D2002DF2D05DB101338279CA54002204E0D4180134855C0D550132052AF8D970BC7047F494020870B504460EF0B6F9054620BBEE
:40380000134B1968086A228902EB82029300143B03445A6812F0007F17D0E67B1B695A68CB69D21A06EB8606B318A28821680948184401F016FAE37B074AD35C012B04D179
:40384000064A137843F002031370284670BD00BFF4940208C49F0208BC9F0208B79F020830B587B002891A4B1B685B699B889A4229D1044601AB07C883E807000022ADF84A
:403880001020A289ADF8122040228DF814201846FFF7B0FF054680B923681B7803F002039BB22BB10B4B1B6821460B48984704E0084B1B68214609489847094A137803F061
:4038C000FE03137000E00025284607B030BD00BFF4940208B09F02080500010006000100CC9F02084288531E9BB21C2B1AD84178D1B910B40F4B1868046A02EB82029300ED
:40390000143B23445A6812F0007F0FD01B695A68C369D31A01EB81011944074B5B5A1380002004E0012070470120704700205DF8044B7047F4940208C49F02080E4B1B78D1
:4039400013F0010F17D100B583B071B18389ADF800300389ADF8023012238DF804308DF8051068460DF01EFA02E0C0680DF048FA03B05DF804FB7047CC9F020810B4044629
:4039800088B10023194606E0114A52F82320944200D1012101330E4A127A934206D20029F2D0002003E000210A4800E0002058B951B9074B1B7A012B05D8054A42F8234098
:4039C0000133137200E004485DF8044B704700BFD89F0208010016000300160070B506460D460020044606E0084B53F824302946304698470134054B1B7A9C4204D2044B30
:403A00001B7813F0010FEFD170BD00BFD89F0208CC9F020883792BB100207047C25C32B9013300E00023052BF8D9002070470120704700BF70B58CB004460D46BA4A137853
:403A400043F00103137044F20A03984200F0EB8136D841F20403984200F0228314D841F20103984200F0FC8003D8B0F5805F65D01BE341F20203984200F0F58041F20303B1
:403A8000984200F0298110E344F20403984200F038810AD842F20403984200F0B78043F21203984200F0A780FFE244F20603984200F0048244F20803984200F0FB81F4E2B9
:403AC00045F20E03984200F0B4821BD845F20203984200F07C820AD844F21003984200F0A58145F20103984200F02782DDE245F20303984200F0848245F20C03984200F0E2
:403B00008A82D2E245F21403984200F0BE820AD845F20F03984200F08F8245F21003984200F0B082C1E245F21703984200F0B08246F20103984200F0FD81B6E27B4B1E68C9
:403B40003046FFF767FF60B130460AF045FD774E00213068FFF720FE01213068FFF71CFE37E0734B1A68936A1B791BB34FF0B05191F8043603F03F0391F8050600F03F00A3
:403B800043EA801391F8030600F01F0043EA003391F8001601F07F0143EA4143126B1370634A1168096BC3F3072048701268126B1B0C93705E4E3368186B0AF00DFD3368CA
:403BC0000021186BFFF7E8FD33680121186BFFF7E3FD574B1B68986A02300BF055F9554A05AB1068516803C305A80AF035FD0222514B1A7059E200234F4A13704F4A13708F
:403C00000A20FEF76DFEFFF7B5FB4EE24C4B1B6813F0010F40F049820023ADF814308DF81630434E33689B6A93F900308DF8143005A80AF051FD33689B6A93F901308DF898
:403C4000143001238DF81530FF238DF8163005A80AF042FD3A4A136843F00103136024E2FFF7BCFE21E24978364B1B88ADF81430002319E0344A32F81320ADF808209DF8B6
:403C8000092012B93148825C00E00022012A0AD92D4A12F81320914205D12B4A32F81330ADF8143002E00133002BE3D09DF81530FF2B05D104D14FF472712548FEF734FE24
:403CC000BDF81430ADF82030ADF81C30C3F307232978204AD154E8E10B78002B40F0E5810B7A43B91C4B1C22DA804FF4F8729A801A4A1A604B600C4A137803F0FE031370A0
:403D0000D3E149790F4B1B88ADF81430002336E00D4A32F81320ADF80C209DF80D20FAB90A48825C1DE000BFCC9F02084C460208F4940208F0810810B89F0208C19F020811
:403D4000D49F0208F8810810B49F0208C09F0208FC810810D09F020830970208988C02080022012A0AD9B64A12F81320914205D1B34A32F81330ADF8143002E00133002BB8
:403D8000C6D09DF81530FF2B05D104D14FF47271AC48FEF7C9FDBDF81430ADF82430ADF81430C3F307236978A74AD154EB78002B40F07B816979A54B1B88ADF814300023FC
:403DC00019E09F4A32F81320ADF810209DF8112012B99F48825C00E00022012A0AD9984A12F81320914205D1954A32F81330ADF8143002E00133002BE3D09DF81530FF2B54
:403E000005D104D14FF472718E48FEF78DFDBDF81430ADF82830ADF81430C3F3072301218C4AD15441E1FFF7D9FD3EE10B7E012B02D10022884B1A70E97E844B1B88ADF8EE
:403E40001030002319E07E4A32F81320ADF814209DF8152012B97E48825C00E00022012A0AD9774A12F81320914205D1744A32F81330ADF8103002E00133002BE3D09DF85F
:403E80001130FF2B05D104D14FF472716D48FEF74BFDBDF81030ADF82C30ADF81030C3F30723FF2B02D0297E6C4AD15402226C4B1A70FAE002226A4B1A70F6E0FFF78EFDA2
:403EC000684B1B7813F0010F00F0EF80624B1B78012B03D10222604B1A70E6E0032B03D100225D4B1A70E0E0022B40F0DE800022594B1A705C4B1B685B685C4A1178C1EBC2
:403F0000C10203EB42039A79002A00F0CE809B88002B00F0CA80564B1B78002B40F0C5800120FFF7A9FB002840F0BF8001224A4B1A70BAE0FFF752FDB7E00B88ADF8003042
:403F40009DF801301BB90221414AD15405E023B94FF461713B48FEF7E7FC6A782988384B23F812106B780021424AD15403EB8301414E88193C4B1B681B692A7802EB820258
:403F800002F58352134453F8062F8A511B790371687800EB800004213044FFF7E1FA6B7803EB830333441B7998420BD0334B1B680021334898476B7803EB83039819002209
:403FC0009A51027129462046FFF708FD6DE00B88ADF804309DF805301BB900211C4AD15405E023B94FF461711648FEF79DFC6B780021184AD15429462046FFF7EFFC54E059
:404000000B88ADF814304FF40073ADF8163005A80CF0D4FE49E00846FFF722FC014620B929462046FFF7DAFC01462846FFF786FC3BE0FFF7D3FC38E0FFF7D0FC35E000BFE1
:40404000B49F0208FC810810BC9F0208F8810810C09F020828970208C19F02082C970208B89F0208CC9F0208F4940208B69F0208D19F0208D09F0208C49F0208B09F02086F
:4040800004000100FFF7AAFC0FE0FFF7A7FC0CE00846FFF727FC29462046FFF79FFC04E00A4A137843F001031370094B1B7813F0110F09D0064A137803F0FE031370054B1C
:4040C0001B682946204698470CB070BDB79F0208CC9F0208B09F02080020704730B108B5034A10600348FFF749FC08BD024870473C970208D94008100100160000207047F8
:4041000030B108B5034A10600348FFF737FC08BD0248704740970208FD4008100100160070B539B900240AE015F8010BFCF738FE013402E016460D460024B442F4DB204621
:4041400070BD00BF70B551B900240DE0FCF734FEC0B2287001340A2806D0013502E016460D460024B442F1DB204670BD052821D8DFE800F003080D12171C4FF480720E4B9F
:404180001A6070474FF400720B4B1A6070474FF48062094B1A6070474FF40062064B1A6070474FF48052044B1A6070474FF40052014B1A60704700BF00031D41052821D8D4
:4041C000DFE800F003080D12171C4FF480720E4B1A6070474FF400720B4B1A6070474FF48062094B1A6070474FF40062064B1A6070474FF48052044B1A6070474FF40052B5
:40420000014B1A60704700BF04031D41052827D8DFE800F003090F151B21124A136843F00503136070470F4A136843F4A063136070470C4A136843F4A023136070470A4AD1
:40424000136843F0A06313607047074A136843F0050313607047044A136843F4A0631360704700BF9000314094003140052827D8DFE800F003090F151B21124A136823F007
:404280000503136070470F4A136823F4A063136070470C4A136823F4A023136070470A4A136823F0A06313607047074A136823F0050313607047044A136823F4A063136069
:4042C000704700BF900031409400314010B5002404E02046FFF7CAFF0134E4B2052CF8D9FF22014B1A7010BD5046020810B50446054B1878FF2801D0FFF7B8FF2046FFF72F
:4043000085FF014B1C7010BD5046020838B50546104A114BC3F800240369FF2B09D80E49D1F8082822F47F421B029BB21343C1F80838094B094AC3F80024D3F80034084CB7
:4043400000212046FEF732FEA9682046FEF73AFD38BD00BF020000400000014002FF008000001D4108B5074B5B6813F4802F04D001210448FEF762FE08BD00210148FEF795
:404380005DFE08BD00001D4108B501460348FEF775FE08B1002008BD012008BD00001D4108B5084B1B7963B907490848FDF760F8044B5B792BB90122024B5A710448FFF7B6
:4043C000A5FF08BD44970208014408107C7A0810A482081008B5084B1B7913F0010F06D1FFF7DEFF044A137943F0010313710348FEF714FE08BD00BF4497020800001D41B7
:4044000010B5094BD3F81042072C04D940F219610648FEF789FA044BC3F81042D3F81022D3F8103210BD00BF00001D416882081010B5002404E02046FFF7C0FE0134E4B2C0
:40444000052CF8D9FF22014B1A7010BD5146020810B50446054B1878FF2801D0FFF7AEFE2046FFF783FE014B1C7010BD5146020881F0004102E000BF83F0004330B54FEA02
:4044800041044FEA430594EA050F08BF90EA020F1FBF54EA000C55EA020C7FEA645C7FEA655C00F0E2804FEA5454D4EB5555B8BF6D420CDD2C4480EA020281EA030382EA24
:4044C000000083EA010180EA020281EA0303362D88BF30BD11F0004F4FEA01314FF4801C4CEA113102D0404261EB410113F0004F4FEA03334CEA133302D0524263EB4303AC
:4045000094EA050F00F0A780A4F10104D5F1200E0DDB02FA0EFC22FA05F2801841F1000103FA0EF2801843FA05F359410EE0A5F120050EF1200E012A03FA0EFC28BF4CF0E9
:40454000020C43FA05F3C01851EBE37101F0004507D54FF0000EDCF1000C7EEB00006EEB0101B1F5801F1BD3B1F5001F0CD349085FEA30004FEA3C0C04F101044FEA4452A9
:4045800012F5800F80F09A80BCF1004F08BF5FEA500C50F1000041EB045141EA050130BD5FEA4C0C404141EB010111F4801FA4F10104E9D191F0000F04BF01460020B1FAE6
:4045C00081F308BF2033A3F10B03B3F120020CDA0C3208DD02F1140CC2F10C0201FA0CF021FA02F10CE002F11402D8BFC2F1200C01FA02F120FA0CFCDCBF41EA0C019040C5
:40460000E41AA2BF01EB0451294330BD6FEA04041F3C1CDA0C340EDC04F11404C4F1200220FA04F001FA02F340EA030021FA04F345EA030130BDC4F10C04C4F1200220FAAE
:4046400002F001FA04F340EA0300294630BD21FA04F0294630BD94F0000F83F4801306BF81F480110134013D4EE77FEA645C18BF7FEA655C29D094EA050F08BF90EA020F4B
:4046800005D054EA000C04BF1946104630BD91EA030F1EBF0021002030BD5FEA545C05D14000494128BF41F0004130BD14F580043CBF01F5801130BD01F0004545F0FE4159
:4046C00041F470014FF0000030BD7FEA645C1ABF194610467FEA655C1CBF0B46024650EA013406BF52EA033591EA030F41F4002130BD00BF90F0000F04BF0021704730B54D
:404700004FF4806404F132044FF000054FF0000150E700BF90F0000F04BF0021704730B54FF4806404F1320410F0004548BF40424FF000013EE700BF42004FEAE2014FEAC3
:4047400031014FEA02701FBF12F07F4393F07F4F81F06051704792F0000F14BF93F07F4F704730B54FF4607401F0004521F0004120E700BF50EA010208BF704730B54FF0FB
:4047800000050AE050EA010208BF704730B511F0004502D5404261EB41014FF4806404F132045FEA915C3FF4DCAE4FF003025FEADC0C18BF03325FEADC0C18BF033202EB4D
:4047C000DC02C2F1200300FA03FC20FA02F001FA03FE40EA0E0021FA02F11444C1E600BF70B54FF0FF0C4CF4E06C1CEA11541DBF1CEA135594EA0C0F95EA0C0F00F0DEF857
:404800002C4481EA030621EA4C5123EA4C5350EA013518BF52EA033541F4801143F4801338D0A0FB02CE4FF00005E1FB02E506F00042E0FB03E54FF00006E1FB03569CF07A
:40484000000F18BF4EF0010EA4F1FF04B6F5007F64F5407404D25FEA4E0E6D4146EB060642EAC62141EA55514FEAC52040EA5E504FEACE2EB4F1FD0C88BFBCF5E06F1ED8D6
:40488000BEF1004F08BF5FEA500E50F1000041EB045170BD06F0004646EA010140EA020081EA0301B4EB5C04C2BFD4EB0C0541EA045170BD41F480114FF0000E013C00F354
:4048C000AB8014F1360FDEBF002001F0004170BDC4F10004203C35DA0C341BDC04F11404C4F1200500FA05F320FA04F001FA05F240EA020001F0004221F0004110EBD37004
:4049000021FA04F642EB06015EEA430E08BF20EAD37070BDC4F10C04C4F1200500FA04F320FA05F001FA04F240EA020001F0004110EBD37041F100015EEA430E08BF20EA8B
:40494000D37070BDC4F1200500FA05F24EEA020E20FA04F301FA05F243EA020321FA04F001F0004121FA04F220EA020000EBD3705EEA430E08BF20EAD37070BD94F0000F86
:404980000FD101F00046400041EB010111F4801F08BF013CF7D041EA060195F0000F18BF704703F00046520043EB030313F4801F08BF013DF7D043EA0603704794EA0C0FF8
:4049C0000CEA135518BF95EA0C0F0CD050EA410618BF52EA4306D1D181EA030101F000414FF0000070BD50EA410606BF1046194652EA430619D094EA0C0F02D150EA01363A
:404A000013D195EA0C0F05D152EA03361CBF104619460AD181EA030101F0004141F0FE4141F470014FF0000070BD41F0FE4141F4780170BD70B54FF0FF0C4CF4E06C1CEAD3
:404A400011541DBF1CEA135594EA0C0F95EA0C0F00F0A7F8A4EB050481EA030E52EA03354FEA013100F088804FEA03334FF0805545EA131343EA12634FEA022245EA1115AE
:404A800045EA10654FEA00260EF000419D4208BF964244F1FD0404F5407402D25B084FEA3202B61A65EB03055B084FEA32024FF480104FF4002CB6EB020E75EB030E22BF72
:404AC000B61A754640EA0C005B084FEA3202B6EB020E75EB030E22BFB61A754640EA5C005B084FEA3202B6EB020E75EB030E22BFB61A754640EA9C005B084FEA3202B6EB7C
:404B0000020E75EB030E22BFB61A754640EADC0055EA060E18D04FEA051545EA16754FEA06164FEAC30343EA52734FEAC2025FEA1C1CC0D111F4801F0BD141EA00014FF0FA
:404B400000004FF0004CB6E711F4801F04BF01430020B4F1FD0C88BFBCF5E06F3FF6AFAEB5EB030C04BFB6EB020C5FEA500C50F1000041EB045170BD0EF0004E4EEA113140
:404B800014EB5C04C2BFD4EB0C0541EA045170BD41F480114FF0000E013C90E645EA060E8DE60CEA135594EA0C0F08BF95EA0C0F3FF43BAF94EA0C0F0AD150EA01347FF451
:404BC00034AF95EA0C0F7FF425AF104619462CE795EA0C0F06D152EA03353FF4FDAE1046194622E750EA410618BF52EA43067FF4C5AE50EA41047FF40DAF52EA43057FF440
:404C0000EBAE12E74A0011D212F5001211D20DD56FF47873B3EB62520ED44FEAC12343F0004343EA505323FA02F070474FF00000704750EA013002D14FF0FF3070474FF094
:404C40000000704710B501390244904207D010F8013B11F8014FA342F7D0181B10BD002010BD10B5431E0A44914204D011F8014B03F8014FF8E710BD02440346934202D0BC
:404C800003F8011BFAE770472DE9F04788B0002B149F1299109EDDF84CA01D4627F02007BBBF03F100431D4600232D231446B8BF1446462F0B7003D0452F03D1013601E052
:404CC000032300E0022307AA049206AA03928DE8480422462B4600F0EFFE472F804602D1119BDB0728D5462F08EB060911D198F80030302B0AD1002200232046294602F091
:404D0000CFFC18B9C6F10106CAF80060DAF800309944002200232046294602F0C1FC08B9302202E0CDF81C9006E0079B994503D9591C07911A70F8E7079B159AC8EB030327
:404D40004046136008B0BDE8F08773B503460029B8BF494203F8022BB4BF2D222B220929427019DD0DF1070216460A2591FBF5F405FB14113031092C02F8011D2146F5DCA7
:404D80003031541E02F8011CB4421A460AD214F8012B03F8012BF7E730241A46214402F8024B5970101A02B070BD00002DE9F04F91B00C46DDF8688016461F46054601F0C6
:404DC00093FD03680893184600F008FD00230E93D8F800300990073323F0070303F1080294F818A0D4F800B0C8F80020D3E90023C4E91223D4E9128929F000430B93CDF8A0
:404E000028804FF0FF32A74BDDE90A0102F07AFCA0B94FF0FF32A34BDDE90A0102F054FC60B9002200234046494602F043FC10B12D2384F843309C4B9C4A0AE042464B46F1
:404E40004046494602F05EFC002800F09281984B984ABAF1470F8CBF90469846032323612BF0040323604FF000093DE0BAF1670F00F08A81BAF1470F00F086812360002175
:404E80000DF133020193636805900292009342464B460691CDF810A0CDF80CE02846FFF7F3FE0AF0DF03472B804600F08481BAF1650F0D9900F28D810139524604F1500094
:404EC0000D91FFF742FF0E9A8318012A8146236100F37C812268D10700F178819DF8333013B12D2384F84330009733460FAA2146284600F09FF9013002D14FF0FF3096E1DE
:404F000023685A0501D4236965E0BAF1650F40F2D58000220023D4E9120102F0C1FB78B30123654A31462846B8470130E5D00E9B0D9A9A420BDB2368D80708D423689B072B
:404F400040F111814FF0000804F1190906E1099B089A31462846B8470130CED04FF0000804F11A090E9B013B9845E7DA01234A4631462846B8470130BFD008F10108F1E71C
:404F80000D9B002B29DC01234B4A31462846B8470130B2D00D9B23B90E9B13B92368D907CCD5099B089A31462846B8470130A4D04FF0000904F11A0A0D9B5B42994509DA8E
:404FC0000123524631462846B847013095D009F10109F1E70E9B4246A7E00E9AA36D9A42A8BF1A46002A914606DC4FF0000A29EAE97904F11A0B11E013463146424628461A
:40500000B8470130F1D178E701235A4631462846B84701303FF471AF0AF1010AA36DC9EB03029245F0DB08EB03090D9A0E9B9A420FDB2368DA070CD40E9B0D9A9844C9EB41
:4050400008089B1A9845A8BF9846B8F1000F08DC0FE0099B089A31462846B8470130EBD14BE743464A4631462846B84701303FF444AF4FF0000928EAE87804F11A0A09E065
:405080000123524631462846B84701303FF435AF09F101090D9A0E9B9B1AC8EB03039945EEDB4BE7FFFFEF7F14880810188808101C88081020880810248808100E9A012A82
:4050C00001DCDB0738D50123424631462846B84701303FF412AF099B089A31462846B84701303FF40AAF00220023D4E9120102F0D7FA20B14FF0000804F11A0A0EE00E9B48
:4051000008F10102013B19E00123524631462846B84701303FF4F1AE08F101080E9B013B9845F1DB4B4604F1500231462846B84701307FF403AFE0E60123424631462846A2
:40514000B8470130EED1D8E601234A4631462846B84701303FF4D1AE08F10108E3680F9A9B1A9845F0DBE0680F9B9842B8BF18465DE06268531C0EA84BF480630DF1340E85
:405180007FF474AE062201E012B90122626075E6002106910DF133018DE80C00236005904246CDF810A0CDF80CE002914B462846FFF76AFD80460D9BD81C02DB6268934248
:4051C0001DDDAAF1020A5FFA8AFA70E60133236184E6BAF1660F14D10029636807DD216113B92268D2071DD501330B4419E013B92268D00701D5023313E0012311E04FF03E
:40520000670A0D9B0E9A934205DB22682361D10708D5013305E0002BD4BFC3F102030123134423610D9BA3654FF0000956E611B0BDE8F08F2DE9F04791461F460A698B689E
:40524000DDF820809342B8BF1346C9F8003091F8432006460C4612B10133C9F800302368990642BFD9F800300233C9F80030256815F0060510D104F1190A07E00123524626
:4052800039463046C04701301AD00135E368D9F800209B1A9D42F1DB94F843302268003318BF012392060FD5E1185A1C302081F84300224494F8451082F84310023303E02B
:4052C0004FF0FF30BDE8F08704F1430239463046C0470130F4D02268D9F80050E36802F00602042A08BF5D1B2269A3680CBF25EAE57500259342C4BF9B1AED184FF0000953
:405300001A344D4509D00123224639463046C0470130D5D009F10109F3E70020BDE8F0872DE9F04317460A7E85B06E2A984606460C460C9B01F1430E00F0AE8011D8632A47
:4053400022D009D8002A00F0BB80582A40F0CA8081F84520834955E0642A1ED0692A1CD0C0E0732A00F0B08009D86F2A2ED0702A40F0B8800A6842F020020A603EE0752A6B
:4053800024D0782A3AD0ADE01A6801F14205111D1960136884F84230A8E021681A6811F0800F02D0111D196008E011F0400F02F10401196002D0B2F9003000E01368002B7D
:4053C0003CDA2D225B4284F8432037E021681A6811F0800F02D0111D196007E011F0400F02F10401196001D0138800E01368227E5C496F2A14BF0A2208221BE078225A49F3
:4054000084F845202268186812F0800F00F104051D6003D1550601D5038800E00368D00744BF42F0200222601BB9226822F0200222601022002084F8430001E049490A222A
:405440006568A560002D08DB206820F0040020602BB9002D7DD175460CE0002B79D07546B3FBF2F002FB1033CB5C05F8013D03460028F5D1082A0BD12368DA0708D52369AD
:4054800062689A42DEBF302305F8013C05F1FF35C5EB0E0323612EE008681A68496910F0800F03D0101D1860136808E010F0400F02F104001860136801D0198000E0196095
:4054C00000232361754616E01A68111D1960156862680021284601F073FA08B1401B6060636804E004F1420584F8422001232361002384F84330CDF800803B4603AA2146C6
:405500003046FFF797FE013002D14FF0FF3026E023692A4639463046C0470130F5D023689B0710D5002504F1190907E001234A4639463046C0470130E7D00135E368039A19
:405540009B1A9D42F2DBE068039B9842B8BF184605E00B7884F8423004F142058AE705B0BDE8F08326880810378808100FB40A4B13B51C6824B1A36913B9204601F02AF93D
:4055800005AB049AA1680193204601F023FE02B0BDE8104004B070477048020838B5084B1C68054624B1A36913B9204601F012F9A26829462046BDE8384001F027BF00BF04
:4055C0007048020870B50E46054618B183690BB901F000F9AB69AC6813B9284601F0FAF8224B9C4201D16C6808E0214B9C4201D1AC6803E01F4B9C4208BFEC68A3891B07E0
:4056000001D523693BB92146284600F057F910B14FF0FF3070BD013EA36816F8011F013BA36091B1002B04DAA269934206DB0A2904D023685A1C22601970EDE72246284623
:4056400000F0E8F80130E7D1E2E7002B08DA22460A21284600F0DEF80130D9D00A2070BD23680A205A1C2260187070BD588808107888081098880810024B01461868FFF7EF
:40568000A1BF00BF704802082DE9F7431D464F4B1E6804460F46904626B1B36913B9304601F098F84A4B9C4201D1746808E0494B9C4201D1B46803E0474B9C4208BFF4682C
:4056C000B8F1020F04D0B8F1010F79D8002D77DB2146304601F014F8616B41B104F14403994202D0304601F09FFC002363630023A3616360A3891B0603D52169304601F027
:4057000093FCA38923F44A6323F00303B8F1020FA3811ED001AB6A462146304601F0E8F8A3891843A0810DB9009D00E02FBB284601F03EF90746D0B9DDF80090A94502D194
:405740004FF0FF3006E0484601F032F9074678B9F6E70020A38943F00203A3810023A36004F1470323602361012363612AE0A946A38943F08003A3814D46B36913B93046E4
:4057800001F028F8B8F1010F08BFA389276004BF43F00103A381A389276103F0080080B2656158B113F001034FF000001DBF6D42A060A561A56008BF184603E0A06001E012
:4057C0004FF0FF3003B0BDE8F08300BF70480208588808107888081098880810034613F8012B002AFBD1181A0138704710B5034642B111F8014B03F8014B013A002CF7D143
:405800001A4400E010BD934202D003F8014BFAE710BD0000F8B50F461446064618B183690BB900F0D7FF224B9C4201D1746808E0204B9C4201D1B46803E01F4B9C4208BFD0
:40584000F468A369A360A3891A0709D523693BB123682069181A63699842FDB20FDB08E02146304600F02AF80028F1D04FF0FF30F8BD2146304600F043FF0028F6D1A368A9
:40588000013BA36023685A1C22601F706269431C934204D0A389DB0707D50A2D05D12146304600F02DFF0028E0D12846F8BD00BF588808107888081098880810324B70B52F
:4058C0001D6806460C4625B1AB6913B9284600F081FF2E4B9C4201D16C6808E02C4B9C4201D1AC6803E02B4B9C4208BFEC68B4F90C309AB215071DD4D00602D409223260D4
:405900003AE0510712D5616B41B104F14403994202D0304601F088FB00236363A38923F02403A3810023636023692360A38943F00803A38123694BB9A38903F42073B3F599
:40594000007F03D02146304600F0F6FFA28912F0010305D00023A36063695B42A36103E0920758BF6369A36023695BB9B4F90C3003F0800080B230B143F04003A3814FF030
:40598000FF3070BD002070BD704802085888081078880810988808102DE9F74F03690C699C42804600F38380013C01F114074FEA840E00F1140657F8245006EB0E030193E4
:4059C000013556F82430B3FBF5F507EB0E09002D39D04FF0000A3846B446D34650F8042B93B205FB03A34FEA134A9BB2C3EB0B03120CBCF800B005FB02A213FA8BF34FEA33
:405A0000124A1FFA82FBDCF80020CBEB124202EB23429BB243EA024381454FEA224B4CF8043BDBD256F80E306BB9019B043B9E421A4602D3C8F8104005E01268043B002A51
:405A4000F8D1013CF3E7404601F017FA00282CDB013530464FF0000E57F8041BD0F800C08AB2C2EB0E03090C13FA8CF3C1EB1C4202EB23429BB243EA0243B9454FEA224E43
:405A800040F8043BE8D256F8242006EB840362B9043B9E421A4602D3C8F8104005E01268043B002AF8D1013CF3E7284600E0002003B0BDE8F08F00002DE9F04F456A97B0F4
:405AC0008246239CCDE9022345B9102000F070FFCAF82400456085600560C560DAF82430196859B15A684A60012393408B60504600F0EBFFDAF8243000221A60039BA04A04
:405B0000002BBFBF01232360039B23F00043B8BF0393DDF80C80A4BF0023236028F000431B0D1B0593421DD1229A42F20F731360029B43B9934A944BC8F31300002814BF41
:405B40001846104600E09048249B002B00F04A85C37813B100F1080300E0C31C249A136000F040BDDDE90245002200232046294601F096FD074658B1229A01231360249B25
:405B8000002B00F0228581481860013800F02ABD14AB019315AB009322462B46504601F0E7F9C8F30A56059056B1C5F3130343F07F51204641F44011A6F2FF3611971DE006
:405BC000159B149E1E4406F23243202B0ADD029A06F21240C3F1400322FA00F008FA03F3184304E0C3F12000029B03FA00F0FEF781FD0123A1F1F871013E11930022644B7E
:405C0000FEF73AFC58A3D3E90023FEF7E9FD58A3D3E90023FEF732FC044630460D46FEF779FD55A3D3E90023FEF7DAFD02460B4620462946FEF722FC04460D4601F078FDE2
:405C40000022834600232046294601F033FD58B15846FEF75FFD02460B462046294601F01FFD08B90BF1FF3BBBF1160F0DD8494901EBCB01DDE90223D1E9000101F038FDEA
:405C800030B10BF1FF3B002300E00123109300E01090149B9E1B731E089343BFC3F10009002308934FF00009BBF1000F07DB089BCDF834B05B4408930023099306E0CBF1A6
:405CC000000309930023CBEB09090D93209B092B27D8052BC4BF043B2093209BA3F10203CCBF00250125032B20D8DFE803F0060E0204012302E0012308E000230C93219B33
:405D0000002B1CDD069398461EE000230C93219B5B4403F1010806934346012BB8BF012312E00125002320930C9501E001230C934FF0FF33069398460022122303E001234E
:405D4000069398461A462192DAF8244000226260042101F114029A421ED86268013262604900F6E7AFF3008061436F63A787D23FB3C8608B288AC63FFB799F501344D33FDB
:405D80000000F07F4888081051880810258808100000F83FF88808106168504600F060FEDAF8243020601B680793B8F10E0F00F25D81002D00F05A819DED027BBBF1000F47
:405DC0008DED0E7B31DDA04A0BF00F0302EBC30393ED007B4FEA2B14E2068DED0A7B0CD59A4BDDE90E01D3E90823FEF723FE04F00F04CDE90201032600E00226934D6CB108
:405E0000E30708D5DDE90A01D5E90023FEF7E8FCCDE90A01013664100835F0E7DDE90A23DDE90201FEF706FE20E0CBF1000404B3854B864D04F00F0203EBC203D3E900232A
:405E4000DDE90E01FEF7CCFCCDE9020124110023022654B1E70705D5D5E90023FEF7C0FC0136012364100835F3E71BB1CDE9020100E00226109BEBB1DDE902450022744B50
:405E80002046294601F016FCA0B1B8F1000F11D0069B002B40F3E6800BF1FF330A9300226C4B20462946FEF79BFC0136CDE90201069F02E0CDF828B047463046FEF72AFC84
:405EC000DDE90223FEF78CFC0022634BFEF7D6FA0446A1F15075CFB90022604BDDE90201FEF7CAFA22462B46CDE9020101F000FC002840F04182224605F10043DDE9020129
:405F000001F0D8FB002840F02E82ABE00C9A4E4B791E002A4AD003EBC103D3E9002300204F49FEF787FD22462B46FEF7A5FA079C05460E46DDE9020101F0FAFB1290FEF739
:405F4000E9FB02460B46DDE90201FEF795FA129B303304F8013B2A463346CDE9020101F0A9FB002840F02183DDE9022300203849FEF782FA2A46334601F09CFB002840F016
:405F8000D280079BE31ABB426CDA0022314B28463146FEF725FC002205460E462D4BDDE90201FEF71DFCCDE90201C3E703EBC10122462B46D1E90001FEF712FC079BCDE902
:405FC0001201DC191D46DDE9020101F0B1FB0646FEF7A0FB303602460B46DDE90201FEF74BFA05F8016BAC42CDE902014FF0000223D11B4BDDE91201FEF740FA02460B46A6
:40600000DDE9020101F074FB002840F08C80DDE9122300201249FEF72FFA02460B46DDE9020101F047FBE8B114F8013C302B04F1FF3240F0BA821446F6E7064BFEF7D0FB93
:40604000CDE90201BFE700BFF8880810D08808100000F03F0000244000001C40000014400000E03FDDE90E34CDE90234159B002B7CDBBBF10E0F79DC8F4B03EBCB03D3E902
:406080000067219B002B14DAB8F1000F11DC40F06C810022894B30463946FEF7A1FBDDE9022301F01BFB45464646002840F05F8166E1079C32463B46DDE90201FEF7BAFCCE
:4060C00001F036FB0546FEF725FB32463B46FEF787FB0B460246DDE90201FEF7CDF905F1300E04F801EB079BC3EB040EF045CDE902012ED102460B46FEF7C0F9804689464A
:4061000002460B463046394601F0D4FA78B942464B463046394601F0C3FA002800F04782E90704D443E2DDF828B000E01C4614F8012C392A04F1FF3307D1079A9A42F5D18A
:40614000079930220BF1010B0A701A7801321A702DE200225A4BFEF743FB00220023CDE9020101F09DFA0028A4D020E20C9A002A2DD0209A012A0ADC119A12B103F23343BE
:4061800002E0149BC3F13603099D4C4615E0099B08F1FF35AB42BFBF099B0995EA1A0D9BB7BF9B185D1B0D930025B8F1000FB9BFC8EB090400234C464346089A01211A4454
:4061C00050469944089200F01FFD064602E0099D0C9E4C465CB1089B002B08DDA342089AA8BF2346C3EB0909E41AD31A0893099B002B1DDD0C9BABB185B131462A4650469A
:4062000000F09CFD059A01460646504600F005FD05990746504600F058FC0597099B5A1B06D000E0099A0599504600F087FD05900121504600F0E8FC0D9B05465BB31A461E
:406240000146504600F07AFD209B012B054618DC029B83B9039BC3F3130373B9039B23F000473F0D3F054FB1089B013309F101090893012702E0002700E0029F0D9B73B1C9
:4062800000E000272B6905EB8303186900F06FFCC0F1200004E0209B012BD9DD0D9F0120089B184410F01F000ED0C0F12003042B08DDC0F11C0008E0F8880810000014404D
:4062C0000000244006D018461C30089B0344814404440893B9F1000F05DD4A460599504600F07AFD0590089B002B05DD29461A46504600F071FD0546109BEBB129460598BC
:4063000000F0BBFD002817DA00230A220599504600F0F2FB0C9B05900BF1FF3B002B00F05881002331460A22504600F0E5FB069B002B064637DC33E0B8F1000F2ADC209BF3
:40634000022B27DDCDF81880069B83B929460522504600F0D1FB01460546059800F08DFD00280DDC03E03D4600E000252E46219B079C6FEA030B0AE0DDF828B03D463E46CD
:40638000079B079A5C1C312313700BF1010BB0460026F7E00C9BCDF8188023B9079CB1E0209B022BD0DC002C05DD31462246504600F012FD06469FB17168504600F050FBE0
:4063C000326902320446920006F10C010C30FEF748FC01222146504600F0FEFC804600E0B046029BDDF81C9003F00103089329460598FFF7D1FA3146044600F130070598D0
:4064000000F03BFD424602902946504600F051FDC36802463BB901460990059800F02DFD099A034600E0012311465046099300F04CFB099B4BB9209A3AB9089A2AB9392FE7
:4064400028D0029B002B1ADC1BE0029A002A04DB1AD1209AC2B9089AB2B9002B11DD01220599504600F0B8FC2946059000F005FD002802DC05D1FA0703D5392F0AD004F1A3
:40648000310709F101040CE0002B09F101040BDD392F05D1392389F8003009F1010954E0013789F800706DE0079B069A04F8017CE31A9342A1463AD000230A2205995046AD
:4064C00000F01AFB464505904FF000034FF00A023146504604D100F00FFB0646804686E700F00AFB4146064600230A22504600F003FB80467BE700230A220599504600F059
:40650000FBFA059029460598FFF746FA00F1300704F8017B079B069AE31A9342EBDB079B012AACBF9B180133B0469946002601220599504600F050FC2946059000F09DFCDB
:40654000002802DC15D1FB0713D54C4614F8013C392B04F1FF3209D1079B934204D10BF1010B3123079A02E01446EFE70133137008E04C4614F8013C302B04F1FF3201D1DE
:406580001446F7E72946504600F09FFAB8F1000F0DD02EB1464503D03146504600F095FA4146504600F091FA01E0DDF828B00599504600F08AFA0023229A23700BF1010377
:4065C0001360249B1BB11C6001E008480AE0079808E0069B002B3FF7E1AE209B022B7FF7DDAEB1E617B0BDE8F08F00BF248808108A892DE9F041054610070C4659D44B6812
:40660000002B02DC0B6C002B17DDE66AAEB102F48052002392B22F682B600AB1606D15E0216A01232846B047411C0FD12B686BB11D2B01D0162B03D12F600020BDE8F0814B
:40664000A38943F04003A381BDE8F081A3895A0705D56368C01A636B0BB1236CC01A00230246E66A216A2846B047431CA38906D129681D293AD8214ACA40D60736D50022CA
:406680006260D9042269226004D5421C01D12B6803B96065616B2F600029CED004F14403994202D0284600F0BFFC00206063BDE8F0810F69002FC0D093070E6808BF4B6932
:4066C0000F6018BF0023C7EB06088B6002E00744C0EB0808B8F1000FAFDD43463A46216AA66A2846B0470028F1DCA38943F04003A3814FF0FF30BDE8F08100BF01004020F2
:4067000038B50B6905460C46DBB118B183690BB900F060F80C4B9C4201D16C6808E00B4B9C4201D1AC6803E0094B9C4208BFEC68B4F90C302BB121462846BDE83840FFF754
:4067400057BF002038BD00BF588808107888081098880810014900F0A9B800BF01670810002310B5044603604360836081814366C281036143618361194608225C30FEF70E
:406780007BFA054B6362054BA362054BE362054B2462236310BD00BF99740810BB740810F37408101775081070B568234D1E5D430E4605F1740100F085FC044640B10021A7
:4067C00080E842000C30A06005F16802FEF754FA204670BD836910B5044633BB8364C3640365124B124A1B688262984204BF0123836100F01FF86060204600F01BF8A06029
:40680000204600F017F80022E06004216068FFF7A7FF01220921A068FFF7A2FF02221221E068FFF79DFF0123A36110BD1088081055670810F8B51C4B1E68B369074613B9A3
:406840003046FFF7C7FF4836B4687368013B04D4B4F90C507DB16834F8E733680BB13668F2E704213846FFF79FFF30600028F6D10C233B60F8BD4FF6FF73E3810123A38145
:4068800065662560A560656025616561A5610822294604F15C00FEF7EFF96563A563A564E5642046F8BD00BF108808102DE9F8438046894600F14804002694B1A56867688F
:4068C000013F0CD4AB89012B07D9B5F90E30013303D029464046C84706436835F0E72468EBE73046BDE8F883004870477448020870B50E46B1F90E10002990B014461D4664
:4069000006DA00232B60B3891A060ED540230EE001AA00F027FE0028F3DB029A02F47042A2F500535A425A412A604FF480630020236010B070BD00008B8973B59E070546B2
:406940000C4610D401AB6A46FFF7D2FF00990646284600F0B7FB68B9B4F90C309A0522D443F00203A38104F14703236023610123636118E00D4BAB62A389206043F08003E1
:40698000A381009B6361019B20614BB1B4F90E10284600F0F9FD18B1A38943F00103A381A0893043A08102B070BD00BF55670810024B0146186800F085BB00BF70480208D8
:4069C00001F0FF01102A2BDB10F0070F08D010F8013B013A8B422DD010F0070F42B3F6D1F0B441EA012141EA014122F007047FF000070023F0E80256083C85EA010586EAF0
:406A0000010685FA47F5A3FA87F586FA47F6A5FA87F68EB9EED1F0BC01F0FF0102F0070232B110F8013B013A83EA010313B1F8D10020704701387047002D06BF3546033835
:406A4000073815F0010F07D1013015F4807F02BF013015F4C03F0130F0BC0138704700BF70B5456A04460E463DB91020FFF7A0FF6062456085600560C560656AEB6843B112
:406A8000636ADB6853F8260078B1026843F8262017E021220421204600F0B8FA636AE860DB68002BECD1002070BD012101FA06F56A1D9200204600F0A9FA0028F3D0466092
:406AC000856000230361C36070BD70B5446A06460D463CB91020FFF76BFF7062446084600460C4603DB1736A6A68DB6853F82210296043F8225070BD2DE9F0410D691F461F
:406B000006460C4601F1140E0023DEF8000081B202FB01710F0C000C02FB007089B2013301EB00419D424FEA10474EF8041BECDCD7B1A3689D4212DB616830460131FFF776
:406B40008FFF2269023204F10C01804692000C30FEF787F821463046FFF7B7FF444604EB850301355F6125612046BDE8F081030C1B0413B90004102300E0002310F07F4F3A
:406B800004BF0002083310F0704F04BF0001043310F0404F04BF80000233002803DB420003D5581C70471846704720207047036813F007020BD0D90722D49A074BBF5B0887
:406BC0009B08036003604CBF01200220704799B209B91B0C102213F0FF0F04BF1B0A0832190704BF1B090432990704BF9B080232D90702D45B0805D0013203601046704786
:406C0000002070472020704710B50C460121FFF727FF01224461026110BD2DE9F74F14460A6923699A42B8BF0B468846BCBFA0461C46D8F81070D4F81090D8F80830D8F8BB
:406C4000041007EB09069E42C8BF0131FFF708FF00F1140505EB860C2B460022634502D243F8042BFAE704F1140208F1140102EB890301EB87070093009B0192934257D9B1
:406C8000B2F800B0BBF1000F23D08946AE464FF0000859F8044BBEF800A0A3B20BFB03A34FEA144ADEF8004043444FEA14480BFB0A8404EB1344F2469BB243EA04434F459B
:406CC0004FEA14484AF8043B01D9D646E1E7CEF80480019BB3F802A00432BAF1000F21D02B682C4689464FF00008B9F800E0B4F802B00AFB0EBEF044A3469BB243EA0843EF
:406D00004BF8043B59F8043BB4F804E01B0C0AFB03E303EB18434F454FEA134801D95C46E3E763600435A7E75CF8043D13B9013E002EF9DC066103B0BDE8F08F2DE9F8432C
:406D4000154612F0030206460F4607D0013A214C002354F82220FFF7CFFE0746AD1036D0746A3CB91020FFF723FE7062446084600460C460D6F82480D8F808404CB940F250
:406D800071213046FFF740FF0023C8F80800044603604FF00008EB070AD5394622463046FFF73BFF394681463046FFF78EFE4F466D100CD0206808B10446ECE72246214600
:406DC0003046FFF72AFF2060C0F80080F4E73846BDE8F883C08808102DE9F0470C464FEA621A26694968A368564407469146751CAB4202DA01315B00FAE73846FFF730FEA6
:406E00000023804600F114011A46534503DA41F823200133F9E72AEAEA73206901EB830319F01F0904F1140101EB800E14D0C9F1200C0022086800FA09F002439A4643F82E
:406E4000042B51F8042B8E4522FA0CF2F2D8CAF8042042B1B51C06E0043B51F8042B43F8042F8E45F9D8013D3846C8F810502146FFF72BFE4046BDE8F08703690A699B1AC3
:406E800010B511D192001430143183180A4453F8044D52F8041D8C4202D007D3012010BD9842F4D3002010BD184610BD4FF0FF3010BD2DE9F8430C460746114620461546BC
:406EC000FFF7DBFF061E08D131463846FFF7C8FD012303614661BDE8F883BCBF23462C4638466168BABF1D4601260026FFF7B8FD2B69C660266905F11409143404EB860735
:406F000009EB830800F114054FF0000C54F8043B59F8042B1CFA83F11FFA82FE120CCEEB0101C2EB134303EB214389B24FEA234CC84541EA0343A64645F8043BE6D8BE4597
:406F40000ED25EF8041B1CFA81F2131403EB114392B242EA03424FEA234C45F8042BEEE755F8043D0BB9013EFAE70661BDE8F8832DE9F34101211C46089E099D9046FFF74D
:406F80006FFDC4F31303C4F30A5407460CB143F480130193B8F1000F19D002A840F8088DFFF705FE009B48B1019AC0F1200102FA01F10B43C2407B61019200E07B61019B04
:406FC000BB61002B14BF02210121396107E001A8FFF7EDFD019B7B6101213961203034B1A4F2334404443460C0F1350009E007EB8103A0F2324030601869FFF7B8FDC0EB26
:4070000041102860384602B0BDE8F08138B502FB01F4214600F056F8054618B122460021FDF72AFE284638BD38B50546002946D051F8043C0C1F002BB8BFE41800F0C6FA18
:407040001F4A1368114613B96360146032E0A3420ED92268A018834204BF18685B68636004BF121822600C6024E0A24203D813465A68002AF9D118681918A1420BD121687E
:40708000014458188242196014D1106852685A60014419600EE002D90C232B600AE021686018824204BF10685268626004BF091821605C602846BDE8384000F088BA38BD93
:4070C000C09E020870B5CD1C25F0030508350C2D38BF0C25002D064601DBA94202D90C23336046E000F072FA234B1C681A462146A1B10B685B1B0ED40B2B03D90B60CC18C9
:40710000CD501EE08C420DBF63684B686360136018BF0C4615E00C464968E9E7174C23681BB9304600F0A8F920602946304600F0A3F9431C18D0C41C24F00304A0420DD139
:407140002560304600F043FA04F10B00231D20F00700C31A0ED05A42E25070BD211A304600F08AF90130EBD10C233360304600F02EFA002070BD00BFC09E0208BC9E0208A1
:407180009368013B002B10B4936009DA9469A34202DBCBB20A2B03D15DF8044BFEF73ABB1368581C10601970C8B25DF8044B7047F8B506460F461446D518AC4208D03A4668
:4071C00014F8011B3046FFF7DBFF431CF5D100E00020F8BD2DE9F04F9DB00C4617460393064618B183690BB9FFF7F4FA7F4B9C4201D1746808E07E4B9C4201D1B46803E001
:407200007C4B9C4208BFF468A38918070CD5236953B10023099320238DF8293030238DF82A30DFF8D4B144E021463046FEF746FB0028EED04FF0FF30D5E0039A111D1268D7
