:020000041008E2
:4000000000780408F90208100D00000061030810610308106103081061030810000000000000000000000000000000005D0308105D030810000000005D0308105D0308104C
:400040005D0308105D0308105D0308105D0308105D0308105D0308105D0308105D0308105D0308105D0308105D0308105D0308105D0308105D0308105D0308105D03081000
:400080005D0308105D0308105D0308105D0308105D0308105D0308105D0308105D0308105D0308105D0308105D0308105D0308105D030810510F08105D0308105D030810C0
:4000C0005D0308105D0308105D0308105D0308105D0308105D0308105D0308105D0308105D0308105D0308105D0308105D0308105D0308105D0308105D0308105D03081080
:400100005D0308105D0308105D0308105D0308105D0308105D0308105D0308105D0308105D0308105D0308105D0308105D0308105D0308105D0308105D0308105D0308103F
:400140005D0308105D0308105D0308105D0308105D0308105D0308105D0308105D0308105D0308105D0308105D0308105D0308105D0308105D0308105D0308105D030810FF
:400180005D0308105D0308105D0308105D0308105D0308105D0308105D0308105D0308105D0308105D0308105D0308105D0308105D0308105D0308105D0308105D030810BF
:4001C0005D0308105D0308105D0308105D0308105D0308105D0308105D0308105D0308105D0308105D0308105D0308105D0308105D0308105D0308105D0308105D0308107F
:400200005D0308105D0308105D0308105D0308105D0308105D0308105D0308105D0308105D0308105D0308105D0308105D0308105D0308105D0308105D0308105D0308103E
:400240005D0308105D0308105D0308105D0308105D0308105D0308105D0308105D0308105D0308105D0308105D0308105D0308105D0308105D0308105D0308105D030810FE
:400280005D0308105D0308105D03081010B5054C237833B9044B13B10448AFF300800123237010BD3C48020800000000C46A0810084B10B51BB108490848AFF30080084869
:4002C000036803B910BD074B002BFBD0BDE81040184700BF0000000040480208C46A081058430208000000007047EFF3108072B6704780F310887047FFF7F6FF72B6114CF8
:40030000114DAC4209DA21686268A368043BA2BFC858D050FAE70C34F3E70C490C4A00209142BCBF41F8040BFAE70A480A490860BFF34F8F00F0F8FD00F0D2FD00F028FCBE
:40034000FEE70000C86A0810E06A08103C480208244E02080040020808ED00E0FEE7FEE700B504207146084202D0EFF3098001E0EFF30880043002F049FAFEE7034B0122D8
:40038000C3F81028D3F81038704700BF00002840F0B58DB06C46394D0FCD0FC40FCD0FC495E80F0084E80F00002530E0344F6B002B44DE00BC196946204602F0F3FA07F1A9
:4003C000480303EB052363602E4BA36024B940F226412D4802F00AFA24B940F2E5312A4802F004FABB599B0F04D140F22741264802F0FCF9E36843F07F43E360013505EBCA
:400400004502D3001E491944204602F023FC022DCCD91B4B1B6B9B0F04D140F227411A4802F0E4F9164CE36B23F07F4343F08043E363002104F1300002F00CFC236B43F09B
:4004400080732363114C1249204600F0ADFEB4F90030002B08DB590903F01F03012202FA03F30C4A42F821300B4B0122C3F818281A6842F000421A600DB0F0BDFC6208102E
:4004800058480208400267402C630810646408107D03081000E100E00000284010B584B00A4B009300218DF80410032302938DF80C10074C6A46204602F082FBD4F800388E
:4004C00043F00043C4F8003804B010BD584802080000284008B50A4BD3F8043813F0010F0DD0084AD2F88C32591CC2F88C12202B05DDFFF7D3FF0022024BC3F88C2208BDBD
:4005000000002840584802080246002318460AE012F0010F02D040F0C06001E040F08060C00852080133072BF2DD70472DE9F041054688461F461046FFF7E6FF05EBC50414
:40054000631CC0F307421C4E334483F84820A31CC0F30722334483F84820E31C334483F848004046FFF7D0FF231DC0F30742334483F84820631DC0F30722334483F8482077
:40058000A31D334483F848003846FFF7BDFFE31DC0F30742334483F848200834C0F30723344484F84830013505EBC505354485F84800BDE8F08100BF58480208F8B50D4689
:4005C00016461F46041E03DAAC21174802F00EF9AC4203DBAD21144802F008F93F2D03DDAE21114802F002F99DF818303A4631462046FFF79BFF012112E00A1902EBC2021A
:4006000001320A48861804EBC40301330344D3F800E05F6840F802E077601B7A337201312B1B9942E9DDF8BD68630810A048020870B582B040F24121C54803F00FFD00200F
:40064000FFF762FF06460146C24803F007FDFF20FFF75AFF04460146BF4803F0FFFC8020FFF752FF05460146BC4803F0F7FCBC4B9E4203D0C321BB4802F0B8F8BA4B9D4211
:4006800003D0C421B74802F0B1F8B84B9C4203D0C521B44802F0AAF8FF23002280211046FFF744FFB24B93F84930922B03D0CD21AC4802F09BF8AE4B93F84A30492B03D00D
:4006C000CE21A84802F092F8A94B93F84B30242B03D0CF21A34802F089F8A54B93F84C30D22B03D0D2219F4802F080F8A04B93F84D30492B03D0D3219A4802F077F89C4BD2
:4007000093F84E30242B03D0D421964802F06EF8974B93F84F30DB2B03D0D721914802F065F8934B93F850306D2B03D0D8218D4802F05CF88E4B93F85130B62B03D0D92183
:40074000884802F053F88023FF2200210120FFF7EDFE874B93F85230DB2B03D0DE21814802F044F8824B93F853306D2B03D0DF217C4802F03BF87E4B93F85430B62B03D01C
:40078000E021784802F032F8794B93F85530922B03D0E321734802F029F8754B93F85630492B03D0E4216F4802F020F8704B93F85730242B03D0E5216A4802F017F86C4BE9
:4007C00093F85830D22B03D0E821664802F00EF8674B93F85930492B03D0E921614802F005F8634B93F85A30242B03D0EA215D4801F0FCFF00238022FF210220FFF796FEA6
:400800005B4B93F85B30D22B03D0EF21554801F0EDFF574B93F85C30492B03D0F021514801F0E4FF524B93F85D30242B03D0F1214C4801F0DBFF4E4B93F85E30DB2B03D051
:40084000F421484801F0D2FF494B93F85F306D2B03D0F521434801F0C9FF454B93F86030B62B03D0F6213F4801F0C0FF404B93F86130922B03D0F9213A4801F0B7FF3C4BF0
:4008800093F86230492B03D0FA21364801F0AEFF374B93F86330242B03D0FB21314801F0A5FF00231A4619460220FFF73FFE00231A4619460320FFF739FE00231A46194666
:4008C0000420FFF733FE002300938023FF2204210220FFF773FE264B93F85B30D22B04D040F207111F4801F081FF214B93F85C30492B04D04FF484711A4801F077FF1C4BD8
:4009000093F85D30242B04D040F20911154801F06DFF174B93F85E30DB2B04D04FF48671104801F063FF124B93F85F306D2B04D040F20D110B4801F059FF0D4B93F86030FA
:40094000B62B17D04FF48771064801F04FFF11E07463081094630810A8630810BC63081024499200686308102449D200B66DDB0058480208714B93F86130922B04D040F23A
:4009800011116F4801F032FF6C4B93F86230492B04D04FF489716A4801F028FF674B93F86330242B04D040F21311654801F01EFF624B93F86430D22B04D04FF48B71604891
:4009C00001F014FF5D4B93F86530492B04D040F217115B4801F00AFF584B93F86630242B04D04FF48C71564801F000FF534B93F86730DB2B04D040F21B11514801F0F6FEC1
:400A00004E4B93F868306D2B04D04FF48E714C4801F0ECFE494B93F86930B62B04D040F21D11474801F0E2FE444B93F86A30922B04D04FF49071424801F0D8FE3F4B93F8C1
:400A40006B30492B04D040F221113D4801F0CEFE3A4B93F86C30242B04D04FF49171384801F0C4FE354B93F86D30D22B04D040F22511334801F0BAFE304B93F86E30492B89
:400A800004D04FF493712E4801F0B0FE2B4B93F86F30242B04D040F22711294801F0A6FE264B93F87030DB2B04D04FF49571244801F09CFE214B93F871306D2B04D040F2E7
:400AC0002B111F4801F092FE1C4B93F87230B62B04D04FF496711A4801F088FE174B93F87330922B04D040F22F11154801F07EFE124B93F87430492B04D04FF49871104891
:400B000001F074FE0D4B93F87530242B04D040F231110B4801F06AFE002407E0074B234493F84810074803F099FA0134092CF5DD0A2003F0ABFA02B070BD00BF58480208C5
:400B400068630810D063081010B582B0FFF770FD00200B4B83F848000090034602463F21FFF72CFD074C084A0849204600F068FE236843F000432360FFF70AFC02B010BD63
:400B80005848020800006740FC4D0208C06808102DE9F04162B600F021FA5B4B1868002302221946406803F0E7FA584803F0DCFA00F0AAFA02F0AEF902F0CCF95449554818
:400BC00002F060F810B9544803F0CEFA514A536943F0011343F4807353613E2001F0FAFDFFF7B2FF4FF4FA51012001F0ABFE01F085FEFFF753FC4949002001F0C5FE48482A
:400C000003F0B2FA0122474B5A6000256FE0284602F0B0F9002466E0204602F08BF900F03BFA012000F04AFA0028FAD03E4801F0C5FC3E4B1B6803EB83039A003C4B1A4440
:400C4000536823B94FF476713A4801F0CFFD0021354801F033FD80462F462646334B1B6803EB83039A00324B1A44536823B94FF49661304801F0BAFD424600212A4801F027
:400C800073FD02F0EBFA1EA3D3E9002302F088F91BA3D3E9002302F05FFC0022264B02F031FB02F041FDC1B2244B1970802903D9A1F13203DBB200E00B46214A13704B2938
:400CC00003D9A1F11E02D2B200E000221D480270AA2900D800211C48017006EBC700FFF725FC0134E4B2052C96D90135EDB2052D8DD901220B4B9A6081E700BFAFF3008005
:400D00006666666666660A4014430208D8630810F468081000022640E0630810D5040810F46308100006324000001D41704C0208F86408100864081000007040E84C020838
:400D4000E94C0208F04C0208604D0208704700BF5C4AD2F8803303F00F0303F1D00152F8212002F00702032A04D0042A05D092B9554914E0554A116811E003F1C002514914
:400D800051F8222002F01F02112A06D0132A04D04FF4FA4103E04E4901E04FF400418BBB484BD3F8902502F00100D3F88825C2F30172D3F8883513F0405F07D0414BD3F8D2
:400DC0008835C3F30173012B02D102E0012300E0002303B108B9032A46D13A48D0F88025C2F31103D0F88425C2F30C02D0F88005C0F300600130B1FBF2F202FB03F2B2FB9F
:400E0000F0F131E0012B2FD12E4BD3F8402602F00100D3F80026C2F30172D3F8003613F0405F07D0274BD3F80036C3F30173012B02D102E0012300E0002303B108B9032A1D
:400E400012D12048D0F8002602F07F02D0F80036C3F30423D0F80006C0F3044002FB01F2B2FBF3F2B2FBF0F1164BD3F88033C3F3011321FA03F215494A601648D0F890306F
:400E8000C3F3072301330069000E0130B2FBF0F08860B2FBF3F3CB600B6103F5742202F23F220D48A0FB0202C2F387420A7503F2E7330A4AA2FB03239B098B61DB03CB6143
:400EC000704700BF0000264000127A008C42020800366E010000214083DE1B43D34D621008B5104BD3F8802122F0404242F08042C3F88021D3F8802142F00042C3F88021B7
:400F0000D3F8802122F00102C3F88021FFF71EFFFFF71EFF00F024F800F02AF801F0D6F908BD00BF0000264008B5FFF7DEF9074AD2F8883043F47003C2F88830BFF34F8FDD
:400F4000BFF36F8FFFF7D5F908BD00BF00ED00E008B5024800F0ACFB08BD00BF184B020808B500221146042000F0A8F908BD00BF10B501F0A6FC0446044800F05BFA04482F
:400F800000F0BCFA204601F0A0FC10BDEC4A02082864081010B504462146034800F00AFC0028F9D010BD00BF00006640054BD3F80833C3F30803002BF8D0024BD3F84003A8
:400FC000704700BF0000664008B50249024801F091F808BD644D02080000664008B5114B1B785BB9104A1149114800F059FE1149114800F0D9F801220A4B1A700E4BB3F954
:401000000030002B08DB590903F01F03012202FA03F30A4A42F82130054A136843F00043136008BD6C4C0208644D02087C64081000006640C90F08107464081000E100E0D3
:4010400038B50546104A114BC3F800240369FF2B09D80E49D1F8082822F47F421B029BB21343C1F80838094B094AC3F80024D3F80034084C0021204601F042FAA968204648
:4010800001F04AF938BD00BF020000400000014002FF008000001D4108B5074B5B6813F4802F04D00121044801F072FA08BD0021014801F06DFA08BD00001D4108B5014611
:4010C000034801F085FA08B1002008BD012008BD00001D4108B5084B1B7963B90749084800F062F8044B5B792BB90122024B5A710448FFF7A5FF08BD704C02083511081098
:401100005C640810F864081008B5084B1B7913F0010F06D1FFF7DEFF044A137943F001031371034801F024FA08BD00BF704C020800001D4110B5094BD3F81042072C04D925
:4011400040F21961064801F051FB044BC3F81042D3F81022D3F8103210BD00BF00001D41BC64081038B50C4B9A680C4B9A420ED10D46044619B9FC21094801F037FB04F163
:401180001003064A52F8230042F8235038BD1030044B53F8200038BD00ED00E000400208846508100000081070B338B504460D464368072B03D93621154801F017FBB4F9D4
:4011C00000306268002B08DB5201D2B203F1604303F5614383F8002305E003F00F035201D2B20C49CA540C4B9A680C4B9A420DD11DB94521064801F0F9FA2946B4F9000017
:40120000FFF7B0FF002038BD05487047002038BD8465081014ED00E000ED00E0004002080100560038B50369002B0DDA0D4604460B0C1B0423B140F2A721044801F0D6FA72
:40124000A9B26160002038BD014838BDC865081001008A0038B50368002B01DA002300E0094B73B90D460446C2600B0C1B0423B140F28E21054801F0B9FAA9B2A160002037
:4012800038BD014838BD00BF01008A00C865081038B504460D4619B99921064801F0A6FA2369002B03DAE3682B60002038BD024838BD00BF0866081001008A000F2840D89A
:4012C000F8B515460E46044682B979B90F2804D940F29D11214801F089FA600100F1804000F50C101E4B18600020F8BD5DB366B316F01F0F2BD10F2C04D940F29D11174881
:4013000001F074FA640104F1804404F50C14144F3C607E60BD60F2080021284602F024FA00212046FFF77EFF3A4652F8040B0021FFF790FF68B900213868FFF773FF50B9B8
:40134000F8BD084870470748F8BD0648F8BD0548F8BD0548F8BD0448F8BD00BF48660810784C020803018A0001018A002DE9F0411B4B1B68DC68236883422CD90D464609CD
:40138000A0EB4610012303FA00F819B901F099FA074600E00027124B18680368002B01DA002300E00F4B83B9626852F8263018EA030F05D023EA080342F82630002400E0A3
:4013C000094C0021FFF72EFF00E0084C25B9384601F07BFA00E0064C2046BDE8F08100BF784C020801008A00020188000301880004018A000B4B1B68DB681A6882420CD9AB
:401400004109A0EB4110012202FA00F05B6853F82130184203D004487047044870470448704700BF784C02080101880004018A0000018800024B1B680BB9014B18607047A4
:40144000844C02082DE9F8430446884691461E46089F072803D9B421244801F0C7F9244B1B682C2000FB04F01C18F5B21D50C6F307236360360CA6600F2D04D940F29D11EE
:401480001C4801F0B3F96D0105F1804505F50C15256165680F2D04D94FF4DC71154801F0A5F9154B03EB45156561A668330C1B0423B14FF4EB710F4801F098F9330C1B047B
:4014C00023B140F2D7110B4801F090F9B3B243EA0646AE60C4F81C90C4F820800023A36117B1B7F90030A381BDE8F88388660810844C02084866081000102340F0B58FB071
:40150000044618B950212C4801F070F9A369072B03D95421284801F069F9E36A1BB95621254801F063F9E368072B03D95721224801F05CF9236A072B03D958211E4801F0C1
:4015400055F9236B1BB959211B4801F04FF907AE04F114050FCD0FC62F6802AD26460FCE0FC533682B60079B1933ADF83030089B0D93A26AE16A0CAD00953B460A98FFF7B4
:4015800061FF00210091069B0A460598FFF75AFF216B2846FFF708FEBDF93030002B08DB590903F01F03012202FA03F3034A42F821300FB0F0BD00BF8866081000E100E0CC
:4015C000F8B507460E461D4614461AB9FC21224801F00CF9072F03D9FD211F4801F006F9072E03D9FE211C4801F000F91B4B1B682C2202FB073002FB06367368012202FAED
:4016000003F31B04476802FA07F70269EAB1B169E9B91268002A01DA002200E0104AC2B92288134323600369DC600123B361756204693B0C1B0423B140F28E21094801F0D0
:40164000D5F8BAB2A2600020F8BD0748F8BD0748F8BD0648F8BD00BF88660810844C020801008A004866081004028A0007028A0070B504460E461546072804D940F25F1170
:40168000084801F0B3F8084B1B682C2202FB0434E369AB4204D9236A43F82560002070BD024870BD88660810844C02080A028A0070B582B000230193044620B94FF4D9718A
:4016C000264801F093F8236923B940F2B311234801F08CF8636923B94FF4DA711F4801F085F8236A23B940F2B5111C4801F07EF86369DD682A0C1CD012041A601B682069BC
:401700000369002B15DA01A9FFF7C2FD60B9019803681E0CDBB2E269934206D2226A52F8233013B1984700E0002631462069FFF779FDADB275B16369ADB21D601B68636A3D
:401740001BB198470023636202E0A36A03B198470023A36163691B6802B070BD8866081010B4D0F8003303F00F03072B06D900230DE0D0F84043CC54013300E0002393429D
:40178000F7D306E0D0F8404321F8134001339342F8D35DF8044B704710B51446D0F80833C3F308039A4200D31C462246FFF7D8FF204610BD036813F4006F01D0802200E003
:4017C0004022D0F80832C3F30803934203D0C0F84012012070470020704700BF10B4D0F8003203F00F03072B06D900230DE0CC5CC0F84042013300E000239342F7D306E0A2
:4018000031F81340C0F8404201339342F8D35DF8044B704710B51446036813F4006F01D0802200E04022D0F80832C3F30803D31AA34200D81C462246FFF7D0FF204610BDDF
:40184000002800F03081F8B50546002900F02D810B78012B03D19948854200F02881087F18B19648854240F0248116460C46012B03D94C21924800F0B9FF6378012B07D9C6
:40188000052B05D0022B03D04D218D4800F0AEFFA378032B03D94E21894800F0A7FF2378012B07D16368023B0E2B03D95021844800F09CFFA36933F00F0303D05121804876
:4018C00000F094FFA368043B0C2B03D952217C4800F08CFFE368043B0C2B03D95321784800F084FF6378022B07D0A268E3689A4203D05421724800F079FF636A33F06D0338
:4019000003D056216E4800F071FFE36A33F0730303D057216A4800F069FF236B33F4206303D05821664800F061FF6378A778052B07D8DFE803F0060305060603022700E0A1
:401940000027A368082B04D8E368082B03D9002302E0002300E0012313B14FF4006200E00022217F11B14FF4807300E000231A436368013B03F00F03134343F080732B602A
:40198000236A2A6812F4006F01D0802200E04022934203D365214A4800F028FFA36A2A6812F4006F01D0802200E04022934203D36621434800F01AFF237D0BB9012100E00F
:4019C00000216278052A01D1022300E000230B43E17C09B1102100E000210B43617C09B1202100E000210B432178012902D14FF0004100E000210B43BF0007F00C073B430B
:401A0000A169090201F470610B43120602F0407213432B62237C13B14FF4807200E00022A17C11B14FF4007300E000231A43A368013B03F00F031343C5F8003394F82030E1
:401A4000C5F80433237C13B14FF4807200E00022E368013B03F00F031343C5F8003294F82830C5F80432636A03F06D03C5F8C83FE36A03F07303C5F8883F236B03F400730A
:401A8000C5F8003F236B03F40063C5F8403F0023C5F8C83E7EB118463360B361F360F361084B3362F8BD084870470748F8BD0648F8BD0548F8BD0020F8BD00BF000069405B
:401AC0000C670810EFCDAB000140AA002DE9F84305460C46036813F4006F02D04FF0800801E04FF04008D5F8007207F00F07A26A012A19D9D4F82490E262561EB9F1000FD3
:401B000000D026B940F22C51254800F06FFE324649462846FFF77EFEA36A1B1AA362072F00D9400048446062D5F80832C3F30803984533D0A36A012B30D10023A362072F72
:401B400002D8636A1E7801E0636A1E8800F0B9FEC5F840624FF40073C5F8803FD5F8803F00F0B3FED5F8883F23F4007222F0010242F4007623F4EE6323F0030323B14FF4F9
:401B80008161084800F032FEC5F8886F236843F002032360236B0BB101209847BDE8F8834C670810C86608102DE9F04105460C46036813F4006F01D0802600E0402676085E
:401BC000A769D4F81C8017B1B8F1000F04D14FF49061314800F00AFE424639462846FFF7DBFD236A03442362E3691B1AE36173BBA368FBB1E3689E4201D8013E00E05E1E8E
:401C00002B6813F4006F01D0802300E040239E4204D340F25E21214800F0E8FDD5F8043323F0FF03F6B21E43C5F804630123C5F8C83F02E00023C5F8C83F636823F0010365
:401C40006360236B33B304209847BDE8F081A169D5F8002302F00F02072A00D940000844A0619E4216D95C1E2B6813F4006F01D0802300E040239C4204D340F25E210748C2
:401C800000F0B4FDD5F8043323F0FF02E3B21343C5F80433BDE8F0814C670810C8660810002800F0A98170B50546002900F0A6819E4B984200F0A48116460C460B78022B3D
:401CC00003D942219A4800F091FD637B023BDBB2062B03D94321964800F088FDA37B3BB1022B05D0032B03D04421914800F07EFD94F82130012B03D945218D4800F076FDA0
:401D000094F82830012B03D94621894800F06EFD2378012B06D86368083B082B94BF0023012307E0A37F2BB16368013B062B94BF002301231BB148217D4800F057FDA368A4
:401D4000053B042B03D94921794800F04FFD6369FF2B03D94A21764800F048FDA369FF2B03D94B21724800F041FDA37C6BB1237833B9A368092B05D1A37B2BB1012304E042
:401D8000012302E0012300E000231BB14D21684800F02CFD636B23F4366323F00D031BB14F21634800F022FDE36B23F4EE6323F003031BB150215E4800F018FD2378022BDD
:401DC00001D1A37F13B163685A1E00E00022237F13B14FF4803100E00021A068082802D84FF4006300E00023194302F00F030B4343F000732B60236B2A6812F4006F01D08B
:401E0000802200E04022934203D36521484800F0EDFCA36B2A6812F4006F01D0802200E04022934203D36621414800F0DFFC636A2A6812F4006F01D0802200E04022934276
:401E400003D367213A4800F0D1FC23781B0603F040732B64637F0BB1402200E00022A17C11B14FF4806300E000231343227C12B14FF4807200E000221343627C12B14FF4A2
:401E8000007200E000221A43E36A013B1B0403F470231343627B013A02F007021343A27B120102F030021343AB64237B13B14FF4807200E00022E17B21B92378022B03D13C
:401EC000012302E0012300E0002313B14FF4007300E000231A43A368013B03F00F031343C5F80033227DA3691B0403F47F031343C5F81033E26AD5F8003303F00F03033329
:401F00009A4201D3102A03D97D21094800F06EFCE37F23B12378012B03D0002302E0002300E0012333B14FF4807204E0000069408C6708100022637B013B03F007031A434F
:401F4000A37B1B0103F0300313436B64237B13B14FF4807200E00022A368013B03F00F0313432278012A02D14FF4803200E000221343C5F8003294F83030C5F8043394F861
:401F8000203013B14FF0007100E0002194F82120012A02D14FF0807300E000230B4394F82820012A02D14FF4803200E00022134394F8242013432B6594F83830C5F8043252
:401FC000636B23F4926323F002031B051B0DC5F8C83FE36B23F08C035B055B0DC5F8883F86B1002070603060B060F0603062F0623063054B736370BD04487047034870BD4B
:40200000024870BD002070BDEFCDAB000160AA000B694A69934202D34869181A7047CA694869101A184470472DE9F04107460D46036813F4006F02D04FF0800801E04FF05D
:4020400040084FEA5808D7F80863C6F308062C6926E00134EB689C4200D100246B699C420FD12B6B0BB1082098476B699C4208D10023C7F8C83F0CB1013C13E0EC68013CAB
:4020800010E0D7F84023D7F8003303F00F03072B02D8AB681A5502E0AB6823F81420013E002ED6D12C61EC6829463846FFF7B0FF201A804519D908B1441E00E000243B68EB
:4020C00013F4006F01D0802300E040239C4204D340F25E21064800F089FBD7F8040320F0FF03E0B21843C7F80403BDE8F08100BFC866081038B504460D46D0F8003E13F042
:40210000080F35D0D0F8CC3F13F448730AD04A681A434A60C0F8C03FD0F8C03F0B6B0BB110209847D4F8CC3F13F4006F09D06B6843F400636B604FF40063C4F8C03FD4F811
:40214000C03FD4F8CC3F13F0010F11D0EB6923B129462046FFF728FD05E0AB681BB129462046FFF761FF0123C4F8C03FD4F8C03FD4F8003E13F0040F2ED0D4F88C3F13F428
:40218000A0630AD02A681A432A60C4F8803FD4F8803F2B6B0BB120209847D4F88C3F13F0010F08D029462046FFF790FC0123C4F8803FD4F8803FD4F88C3F13F4007F0BD057
:4021C0000022C4F8882F2B6823F001032B60EA622B6B0BB10220984738BD00BF1F4B98422DD00CD840282ED003D8E8B1102828D02FE0802829D0B0F5807F28D029E0184BDB
:40220000984228D006D8B0F1204F0DD0154B984212D01EE0144B98420AD00133984209D0023B984215D101E0002070470F4870470F4870470F4870474FF4A0007047074825
:4022400070470D4870470D4870470D487047034870470C4870474FF4A400704706005200010000F0090000A0040000F0010052000200520003005200010050000200500053
:4022800005005200FF00520008B50C4B1B69002B12DB0B4B1868FFF7A1FF0122094BC3F88C24084BD3F80C34002BFAD1054BD3F88C34002BF5D108BD034808BD2000234000
:4022C000884C0208000025400200500000B583B05523ADF80030002301930C496846FEF763FFBDF90030002B08DB590903F01F03012202FA03F3064A42F821300222054936
:402300000120FFF7B5F903B05DF804FB9D43020800E100E0BD4402082DE9F8430E46074618B937216F4800F061FA1EB938216D4800F05CFA002F00F0CF80002E00F0CF80F8
:402340003268694B13401BB14721664800F04EFA7268664B13401BB14821624800F046FAB36813F0FC2F03D049215E4800F03EFAF36813F0FC2F03D04A215A4800F036FAD8
:40238000337D032B03D94B21564800F02FFAB369B3F5803F03D34C21524800F027FAF36D072B03D94D214F4800F020FA336EB3F5803F03D34E214B4800F018FA736EB3F5E7
:4023C000803F03D34F21474800F010FA73687B60B3683B61F3687B613369BB61337D9B07FB61B3693B62336803F46068736803F00409002435E02546A31D06EB83035A68BA
:402400003B4B13401BB15F21364800F0EFF9AB1D06EB8303596805F1200247F822105B6813F0012F0BD1B8F5606F08D1B9F1000F05D04FF478422F4B23F8152003E0002217
:402440002C4B23F81520726F02F11C7303F58033520093FBF2F31BB2274A42F825300134E4B20F2CC7D9F36DC7F81832336EC7F82832736EC7F8383296F87030DBB1B36E47
:40248000B3F1804F03D37B21164800F0AFF9F36E23F44F0323F0FF031BB17C21114800F0A5F96FF04043C7F80433B36EC7F80033F36EC7F84433D7F8003F3F2B02D0D7F877
:4024C000003F13B90B23C7F8003F336843F400133B600020BDE8F8830848BDE8F8830748BDE8F883CC6708100811DF0001FE302088CA887E9C4D0208BC4D0208010006000F
:4025000038B50D46044618B9AD21174800F06EF92CB30023236063604FF0031222616261A361E361236206E003F12002002144F822100133DBB20F2BF6D90023C4F818328F
:40254000C4F82832C4F838325DB16FF04043C4F804330020C4F84003C4F8440338BD034838BD002038BD00BFCC6708100100060008B50368002B0ADBD0F8A032002BFBDBEC
:40258000036843F000430360022000F023F908BD38B505460C46012904D940F26511064800F024F9012C04D16B6843F480336B6038BD01236B6238BDCC670810436813F4EE
:4025C000803F03D0436823F480334360704700BF38B504460D46012904D940F2D111114800F004F9D4F8103203F00103012D06D00AE0D4F8103203F00103013A00E00A4A69
:402600001BB9002AF5D100E0074A33B10123C4F81032D4F81032002038BD0AB9034838BD034838BDCC67081055555501020006000300060038B505460C460F2904D940F20C
:402640004321084800F0D2F80F2C07D8203455F8243013F0012F03D0002038BD002038BD012038BDCC67081038B505460C460F2904D940F21221104800F0B8F80F2C14D829
:4026800021462846FFF7D6FF80F0010010F0FF0F05D06B6813F0080F09D1002038BD6B6813F0040F05D1002038BD002038BD012038BD012038BD00BFCC67081038B50546F3
:4026C0000C460F2904D940F26921064800F08EF80F2C04D8603455F8240080B200E0002000B238BDCC670810F8B506460C4615460F2904D940F26331194800F077F80F2C37
:402700002BD8736813F0800F22D104F1200356F8233013F4806F1BD07768C7F302170137012303FA07F7736813F4807F02D1102F00D9102721463046FFF796FF20B9ADB2F0
:40274000B5FBF7F52DB203E03FB295FBF7F52DB2044B33F81430ED1A2DB22846F8BD00BFCC6708109C4D020870B505460C4616460F2904D940F2C331134800F037F80F2CDD
:402780001AD86B6813F0020F19D1324621462846FFF7AAFF07EE900AF8EEE77AF2EE046A67EEA66A094B53F8243007EE103AB8EEC77AC6EE877A04E0DFED057A01E0DFED37
:4027C000047A17EE900A70BDCC670810BC4D02080000000008B5034B1B7800FB03F000F067F808BDA042020801BEFEE738B50D46044C18220146204601F070FDA561002006
:40280000FFF7F2FFA8470208FEE700BF08B50268254BDA6142681A6282685A62C2689A620269DA6242691A6382695A63C2699A631E4A916AD963D16A1964516A5964516B26
:402840009964926BDA64F1EE103A13F0900F27D0026A154B1A65426A5A65826A9A65C26ADA65026B1A66426B5A66826B9A66C26BDA66026C1A67426C5A67826C9A67C26C23
:40288000DA67026DC3F88020426DC3F88420826DC3F88820C26DC3F88C20026EC3F89020FFF7B2FF08BD00BFA847020800ED00E00230800803D001300238FCD100BF00BF08
:4028C0007047EFF3108072B6704780F310887047084B1B6813F4803F07D17047064B53F8243003B19847013401E010B50024042CF4D910BD10E000E0C84C0208044B1A68D8
:4029000042F002021A601A6842F001021A60704710E000E0042805D1084A136843F0040313607047000600F04070054BC3F84002024A136823F004031360704710E000E02E
:402940000000214010B50C46002304E000210A4A42F823100133042BF8D9084A084BDA63FFF7D8FF24F07F44064B5C6000229A60FFF7C4FF10BD00BFC84C0208D12808109F
:402980000040020810E000E00346042805D8044A52F8200042F8231070470020704700BFC84C0208002800F0FF8038B50546002900F0FC800C460B78032B03D930217D48C2
:4029C000FFF714FF6378032B03D931217948FFF70DFFA378032B03D932217648FFF706FF2379032B03D933217248FFF7FFFEA379012B03D934216F48FFF7F8FEE379012B58
:402A000003D935216B48FFF7F1FEE378012B03D936216848FFF7EAFE6379022B03D937216448FFF7E3FE237A022B03D938216148FFF7DCFE237803F003016278930003F05A
:402A40000C030B43A278120102F03002134322799201D2B21343A279920602F080621343E279D20602F000621343E278120602F0807213436279120702F040521343227A7A
:402A800043EA82732B60E3686B602369AB60237A012B07D013B1022B31D089E0E36AEB60002038BD636903F50063B3F5805F03D352214048FFF79AFEA36903F50063B3F5F8
:402AC000805F03D353213B48FFF790FEE369013BFF2B03D954213748FFF788FE6369C3F30B02A369344901EA03331A43E369013B42EA0363EB60E36A2B61002038BD6369F3
:402B000003F50063B3F5805F03D361212948FFF76DFEA36903F50063B3F5805F03D362212448FFF763FEE369013BFF2B03D963212048FFF75BFE236A03F50063B3F5805F47
:402B400003D364211B48FFF751FE636A03F50063B3F5805F03D365211648FFF747FEA36A013BFF2B03D966211248FFF73FFE6269C2F30B01A269104B03EA02320A43E169A1
:402B8000013942EA0162EA60226AC2F30B02616A03EA01331343A26A013A43EA02632B61E36A6B61002038BD04487047034838BD002038BD0868081000F0FF0001004E00C1
:402BC000214B984203D003F58053984234D10F2934D8002A34D01368002B33D070B516460D4604469368032B03D9B4211748FFF7FDFD326804EB4513C3F80C28337913B170
:402C00004FF4802200E00022B3681B0403F440331343327B12B14FF0004200E000221343727B0AB1042200E00022134305F1400149016350002070BD0548704704487047BC
:402C40000348704702487047000028400868081001004E0038B50D46044618B9F1210848FFF7C4FD23689B0F012B05D013B1022B04D038BDE56038BD256138BD656138BD3E
:402C800008680810002867D038B50546002965D00B7A1BB10B88B3FA83F35B090C461BB12F212F48FFF7A2FD637A1BB16388B3FA83F35B091BB130212948FFF797FDA37963
:402CC0001F2B03D931212648FFF790FD2379032B03D932212248FFF789FD6379032B03D933211F48FFF782FDE379032B03D934211B48FFF77BFD6288238843EA0243EB6098
:402D0000A3791B0603F0F851E279130403F480330B43227A920002F004021343627A920202F480621343E27A12B14FF4006200E0002213436279120202F440721343A27A71
:402D40000AB1082200E000221343227902F0030213432B61002038BD02487047014838BD806808100100D60070B539B900240AE015F8010BFEF70EF9013402E016460D4677
:402D80000024B442F4DB204670BD00BF70B551B900240DE0FEF70AF9C0B2287001340A2806D0013502E016460D460024B442F1DB204670BD052821D8DFE800F003080D1212
:402DC000171C4FF480720E4B1A6070474FF400720B4B1A6070474FF48062094B1A6070474FF40062064B1A6070474FF48052044B1A6070474FF40052014B1A60704700BF6E
:402E000000031D41052821D8DFE800F003080D12171C4FF480720E4B1A6070474FF400720B4B1A6070474FF48062094B1A6070474FF40062064B1A6070474FF48052044BC7
:402E40001A6070474FF40052014B1A60704700BF04031D41052827D8DFE800F003090F151B21124A136843F00503136070470F4A136843F4A063136070470C4A136843F420
:402E8000A023136070470A4A136843F0A06313607047074A136843F0050313607047044A136843F4A0631360704700BF9000314094003140052827D8DFE800F003090F15C0
:402EC0001B21124A136823F00503136070470F4A136823F4A063136070470C4A136823F4A023136070470A4A136823F0A06313607047074A136823F0050313607047044A1F
:402F0000136823F4A0631360704700BF900031409400314010B5002404E02046FFF7CAFF0134E4B2052CF8D9FF22014B1A7010BDB042020810B50446054B1878FF2801D0A7
:402F4000FFF7B8FF2046FFF785FF014B1C7010BDB042020810B5002404E02046FFF752FF0134E4B2052CF8D9FF22014B1A7010BDB142020810B50446054B1878FF2801D034
:402F8000FFF740FF2046FFF715FF014B1C7010BDB142020881F0004102E000BF83F0004330B54FEA41044FEA430594EA050F08BF90EA020F1FBF54EA000C55EA020C7FEA1B
:402FC000645C7FEA655C00F0E2804FEA5454D4EB5555B8BF6D420CDD2C4480EA020281EA030382EA000083EA010180EA020281EA0303362D88BF30BD11F0004F4FEA0131E1
:403000004FF4801C4CEA113102D0404261EB410113F0004F4FEA03334CEA133302D0524263EB430394EA050F00F0A780A4F10104D5F1200E0DDB02FA0EFC22FA05F2801850
:4030400041F1000103FA0EF2801843FA05F359410EE0A5F120050EF1200E012A03FA0EFC28BF4CF0020C43FA05F3C01851EBE37101F0004507D54FF0000EDCF1000C7EEB42
:4030800000006EEB0101B1F5801F1BD3B1F5001F0CD349085FEA30004FEA3C0C04F101044FEA445212F5800F80F09A80BCF1004F08BF5FEA500C50F1000041EB045141EA55
:4030C000050130BD5FEA4C0C404141EB010111F4801FA4F10104E9D191F0000F04BF01460020B1FA81F308BF2033A3F10B03B3F120020CDA0C3208DD02F1140CC2F10C025D
:4031000001FA0CF021FA02F10CE002F11402D8BFC2F1200C01FA02F120FA0CFCDCBF41EA0C019040E41AA2BF01EB0451294330BD6FEA04041F3C1CDA0C340EDC04F114048A
:40314000C4F1200220FA04F001FA02F340EA030021FA04F345EA030130BDC4F10C04C4F1200220FA02F001FA04F340EA0300294630BD21FA04F0294630BD94F0000F83F483
:40318000801306BF81F480110134013D4EE77FEA645C18BF7FEA655C29D094EA050F08BF90EA020F05D054EA000C04BF1946104630BD91EA030F1EBF0021002030BD5FEA9D
:4031C000545C05D14000494128BF41F0004130BD14F580043CBF01F5801130BD01F0004545F0FE4141F470014FF0000030BD7FEA645C1ABF194610467FEA655C1CBF0B46B4
:40320000024650EA013406BF52EA033591EA030F41F4002130BD00BF90F0000F04BF0021704730B54FF4806404F132044FF000054FF0000150E700BF90F0000F04BF0021C1
:40324000704730B54FF4806404F1320410F0004548BF40424FF000013EE700BF42004FEAE2014FEA31014FEA02701FBF12F07F4393F07F4F81F06051704792F0000F14BFCA
:4032800093F07F4F704730B54FF4607401F0004521F0004120E700BF50EA010208BF704730B54FF000050AE050EA010208BF704730B511F0004502D5404261EB41014FF4DE
:4032C000806404F132045FEA915C3FF4DCAE4FF003025FEADC0C18BF03325FEADC0C18BF033202EBDC02C2F1200300FA03FC20FA02F001FA03FE40EA0E0021FA02F11444CE
:40330000C1E600BF70B54FF0FF0C4CF4E06C1CEA11541DBF1CEA135594EA0C0F95EA0C0F00F0DEF82C4481EA030621EA4C5123EA4C5350EA013518BF52EA033541F48011C5
:4033400043F4801338D0A0FB02CE4FF00005E1FB02E506F00042E0FB03E54FF00006E1FB03569CF0000F18BF4EF0010EA4F1FF04B6F5007F64F5407404D25FEA4E0E6D41DD
:4033800046EB060642EAC62141EA55514FEAC52040EA5E504FEACE2EB4F1FD0C88BFBCF5E06F1ED8BEF1004F08BF5FEA500E50F1000041EB045170BD06F0004646EA01010D
:4033C00040EA020081EA0301B4EB5C04C2BFD4EB0C0541EA045170BD41F480114FF0000E013C00F3AB8014F1360FDEBF002001F0004170BDC4F10004203C35DA0C341BDC06
:4034000004F11404C4F1200500FA05F320FA04F001FA05F240EA020001F0004221F0004110EBD37021FA04F642EB06015EEA430E08BF20EAD37070BDC4F10C04C4F1200502
:4034400000FA04F320FA05F001FA04F240EA020001F0004110EBD37041F100015EEA430E08BF20EAD37070BDC4F1200500FA05F24EEA020E20FA04F301FA05F243EA02036A
:4034800021FA04F001F0004121FA04F220EA020000EBD3705EEA430E08BF20EAD37070BD94F0000F0FD101F00046400041EB010111F4801F08BF013CF7D041EA060195F068
:4034C000000F18BF704703F00046520043EB030313F4801F08BF013DF7D043EA0603704794EA0C0F0CEA135518BF95EA0C0F0CD050EA410618BF52EA4306D1D181EA0301DF
:4035000001F000414FF0000070BD50EA410606BF1046194652EA430619D094EA0C0F02D150EA013613D195EA0C0F05D152EA03361CBF104619460AD181EA030101F00041D2
:4035400041F0FE4141F470014FF0000070BD41F0FE4141F4780170BD70B54FF0FF0C4CF4E06C1CEA11541DBF1CEA135594EA0C0F95EA0C0F00F0A7F8A4EB050481EA030EF8
:4035800052EA03354FEA013100F088804FEA03334FF0805545EA131343EA12634FEA022245EA111545EA10654FEA00260EF000419D4208BF964244F1FD0404F5407402D291
:4035C0005B084FEA3202B61A65EB03055B084FEA32024FF480104FF4002CB6EB020E75EB030E22BFB61A754640EA0C005B084FEA3202B6EB020E75EB030E22BFB61A75469F
:4036000040EA5C005B084FEA3202B6EB020E75EB030E22BFB61A754640EA9C005B084FEA3202B6EB020E75EB030E22BFB61A754640EADC0055EA060E18D04FEA051545EABF
:4036400016754FEA06164FEAC30343EA52734FEAC2025FEA1C1CC0D111F4801F0BD141EA00014FF000004FF0004CB6E711F4801F04BF01430020B4F1FD0C88BFBCF5E06F97
:403680003FF6AFAEB5EB030C04BFB6EB020C5FEA500C50F1000041EB045170BD0EF0004E4EEA113114EB5C04C2BFD4EB0C0541EA045170BD41F480114FF0000E013C90E6DA
:4036C00045EA060E8DE60CEA135594EA0C0F08BF95EA0C0F3FF43BAF94EA0C0F0AD150EA01347FF434AF95EA0C0F7FF425AF104619462CE795EA0C0F06D152EA03353FF4A5
:40370000FDAE1046194622E750EA410618BF52EA43067FF4C5AE50EA41047FF40DAF52EA43057FF4EBAE12E74A0011D212F5001211D20DD56FF47873B3EB62520ED44FEA60
:40374000C12343F0004343EA505323FA02F070474FF00000704750EA013002D14FF0FF3070474FF00000704702440346934202D003F8011BFAE770472DE9F04788B0002B75
:40378000149F1299109EDDF84CA01D4627F02007BBBF03F100431D4600232D231446B8BF1446462F0B7003D0452F03D1013601E0032300E0022307AA049206AA03928DE89A
:4037C000480422462B4600F0EFFE472F804602D1119BDB0728D5462F08EB060911D198F80030302B0AD1002200232046294602F0DBFC18B9C6F10106CAF80060DAF8003048
:403800009944002200232046294602F0CDFC08B9302202E0CDF81C9006E0079B994503D9591C07911A70F8E7079B159AC8EB03034046136008B0BDE8F08773B50346002947
:40384000B8BF494203F8022BB4BF2D222B220929427019DD0DF1070216460A2591FBF5F405FB14113031092C02F8011D2146F5DC3031541E02F8011CB4421A460AD214F8FB
:40388000012B03F8012BF7E730241A46214402F8024B5970101A02B070BD00002DE9F04F91B00C46DDF8688016461F46054601F093FD03680893184600F008FD00230E9356
:4038C000D8F800300990073323F0070303F1080294F818A0D4F800B0C8F80020D3E90023C4E91223D4E9128929F000430B93CDF828804FF0FF32A74BDDE90A0102F086FC13
:40390000A0B94FF0FF32A34BDDE90A0102F060FC60B9002200234046494602F04FFC10B12D2384F843309C4B9C4A0AE042464B464046494602F06AFC002800F09281984BB6
:40394000984ABAF1470F8CBF90469846032323612BF0040323604FF000093DE0BAF1670F00F08A81BAF1470F00F08681236000210DF1330201936368059002920093424623
:403980004B460691CDF810A0CDF80CE02846FFF7F3FE0AF0DF03472B804600F08481BAF1650F0D9900F28D810139524604F150000D91FFF742FF0E9A8318012A81462361F1
:4039C00000F37C812268D10700F178819DF8333013B12D2384F84330009733460FAA2146284600F09FF9013002D14FF0FF3096E123685A0501D4236965E0BAF1650F40F2A0
:403A0000D58000220023D4E9120102F0CDFB78B30123654A31462846B8470130E5D00E9B0D9A9A420BDB2368D80708D423689B0740F111814FF0000804F1190906E1099B69
:403A4000089A31462846B8470130CED04FF0000804F11A090E9B013B9845E7DA01234A4631462846B8470130BFD008F10108F1E70D9B002B29DC01234B4A31462846B84768
:403A80000130B2D00D9B23B90E9B13B92368D907CCD5099B089A31462846B8470130A4D04FF0000904F11A0A0D9B5B42994509DA0123524631462846B847013095D009F1E8
:403AC0000109F1E70E9B4246A7E00E9AA36D9A42A8BF1A46002A914606DC4FF0000A29EAE97904F11A0B11E01346314642462846B8470130F1D178E701235A463146284665
:403B0000B84701303FF471AF0AF1010AA36DC9EB03029245F0DB08EB03090D9A0E9B9A420FDB2368DA070CD40E9B0D9A9844C9EB08089B1A9845A8BF9846B8F1000F08DCCD
:403B40000FE0099B089A31462846B8470130EBD14BE743464A4631462846B84701303FF444AF4FF0000928EAE87804F11A0A09E00123524631462846B84701303FF435AF15
:403B800009F101090D9A0E9B9B1AC8EB03039945EEDB4BE7FFFFEF7F086908100C6908101069081014690810186908100E9A012A01DCDB0738D50123424631462846B847FA
:403BC00001303FF412AF099B089A31462846B84701303FF40AAF00220023D4E9120102F0E3FA20B14FF0000804F11A0A0EE00E9B08F10102013B19E00123524631462846DB
:403C0000B84701303FF4F1AE08F101080E9B013B9845F1DB4B4604F1500231462846B84701307FF403AFE0E60123424631462846B8470130EED1D8E601234A463146284643
:403C4000B84701303FF4D1AE08F10108E3680F9A9B1A9845F0DBE0680F9B9842B8BF18465DE06268531C0EA84BF480630DF1340E7FF474AE062201E012B90122626075E637
:403C8000002106910DF133018DE80C00236005904246CDF810A0CDF80CE002914B462846FFF76AFD80460D9BD81C02DB626893421DDDAAF1020A5FFA8AFA70E6013323617A
:403CC00084E6BAF1660F14D10029636807DD216113B92268D2071DD501330B4419E013B92268D00701D5023313E0012311E04FF0670A0D9B0E9A934205DB22682361D10783
:403D000008D5013305E0002BD4BFC3F102030123134423610D9BA3654FF0000956E611B0BDE8F08F2DE9F04791461F460A698B68DDF820809342B8BF1346C9F8003091F87B
:403D4000432006460C4612B10133C9F800302368990642BFD9F800300233C9F80030256815F0060510D104F1190A07E00123524639463046C04701301AD00135E368D9F866
:403D800000209B1A9D42F1DB94F843302268003318BF012392060FD5E1185A1C302081F84300224494F8451082F84310023303E04FF0FF30BDE8F08704F1430239463046F0
:403DC000C0470130F4D02268D9F80050E36802F00602042A08BF5D1B2269A3680CBF25EAE57500259342C4BF9B1AED184FF000091A344D4509D00123224639463046C047E0
:403E00000130D5D009F10109F3E70020BDE8F0872DE9F04317460A7E85B06E2A984606460C460C9B01F1430E00F0AE8011D8632A22D009D8002A00F0BB80582A40F0CA8079
:403E400081F84520834955E0642A1ED0692A1CD0C0E0732A00F0B08009D86F2A2ED0702A40F0B8800A6842F020020A603EE0752A24D0782A3AD0ADE01A6801F14205111D8E
:403E80001960136884F84230A8E021681A6811F0800F02D0111D196008E011F0400F02F10401196002D0B2F9003000E01368002B3CDA2D225B4284F8432037E021681A68A5
:403EC00011F0800F02D0111D196007E011F0400F02F10401196001D0138800E01368227E5C496F2A14BF0A2208221BE078225A4984F845202268186812F0800F00F1040595
:403F00001D6003D1550601D5038800E00368D00744BF42F0200222601BB9226822F0200222601022002084F8430001E049490A226568A560002D08DB206820F004002060B7
:403F40002BB9002D7DD175460CE0002B79D07546B3FBF2F002FB1033CB5C05F8013D03460028F5D1082A0BD12368DA0708D5236962689A42DEBF302305F8013C05F1FF35C6
:403F8000C5EB0E0323612EE008681A68496910F0800F03D0101D1860136808E010F0400F02F104001860136801D0198000E0196000232361754616E01A68111D19601568A6
:403FC00062680021284601F073FA08B1401B6060636804E004F1420584F8422001232361002384F84330CDF800803B4603AA21463046FFF797FE013002D14FF0FF3026E060
:4040000023692A4639463046C0470130F5D023689B0710D5002504F1190907E001234A4639463046C0470130E7D00135E368039A9B1A9D42F2DBE068039B9842B8BF1846B1
:4040400005E00B7884F8423004F142058AE705B0BDE8F0831A6908102B6908100FB40A4B13B51C6824B1A36913B9204601F02AF905AB049AA1680193204601F02FFE02B07D
:40408000BDE8104004B070471443020838B5084B1C68054624B1A36913B9204601F012F9A26829462046BDE8384001F033BF00BF1443020870B50E46054618B183690BB9E5
:4040C00001F000F9AB69AC6813B9284601F0FAF8224B9C4201D16C6808E0214B9C4201D1AC6803E01F4B9C4208BFEC68A3891B0701D523693BB92146284600F057F910B1C8
:404100004FF0FF3070BD013EA36816F8011F013BA36091B1002B04DAA269934206DB0A2904D023685A1C22601970EDE72246284600F0E8F80130E7D1E2E7002B08DA22466D
:404140000A21284600F0DEF80130D9D00A2070BD23680A205A1C2260187070BD4C6908106C6908108C690810024B01461868FFF7A1BF00BF144302082DE9F7431D464F4BAF
:404180001E6804460F46904626B1B36913B9304601F098F84A4B9C4201D1746808E0494B9C4201D1B46803E0474B9C4208BFF468B8F1020F04D0B8F1010F79D8002D77DB58
:4041C0002146304601F014F8616B41B104F14403994202D0304601F0ABFC002363630023A3616360A3891B0603D52169304601F09FFCA38923F44A6323F00303B8F1020FE9
:40420000A3811ED001AB6A462146304601F0E8F8A3891843A0810DB9009D00E02FBB284601F03EF90746D0B9DDF80090A94502D14FF0FF3006E0484601F032F9074678B97F
:40424000F6E70020A38943F00203A3810023A36004F1470323602361012363612AE0A946A38943F08003A3814D46B36913B9304601F028F8B8F1010F08BFA389276004BF6E
:4042800043F00103A381A389276103F0080080B2656158B113F001034FF000001DBF6D42A060A561A56008BF184603E0A06001E04FF0FF3003B0BDE8F08300BF14430208D5
:4042C0004C6908106C6908108C690810034613F8012B002AFBD1181A0138704710B5034642B111F8014B03F8014B013A002CF7D11A4400E010BD934202D003F8014BFAE7B9
:4043000010BD0000F8B50F461446064618B183690BB900F0D7FF224B9C4201D1746808E0204B9C4201D1B46803E01F4B9C4208BFF468A369A360A3891A0709D523693BB1B1
:4043400023682069181A63699842FDB20FDB08E02146304600F02AF80028F1D04FF0FF30F8BD2146304600F043FF0028F6D1A368013BA36023685A1C22601F706269431C51
:40438000934204D0A389DB0707D50A2D05D12146304600F02DFF0028E0D12846F8BD00BF4C6908106C6908108C690810324B70B51D6806460C4625B1AB6913B9284600F009
:4043C00081FF2E4B9C4201D16C6808E02C4B9C4201D1AC6803E02B4B9C4208BFEC68B4F90C309AB215071DD4D00602D4092232603AE0510712D5616B41B104F144039942F2
:4044000002D0304601F094FB00236363A38923F02403A3810023636023692360A38943F00803A38123694BB9A38903F42073B3F5007F03D02146304600F0F6FFA28912F08F
:40444000010305D00023A36063695B42A36103E0920758BF6369A36023695BB9B4F90C3003F0800080B230B143F04003A3814FF0FF3070BD002070BD144302084C690810AF
:404480006C6908108C6908102DE9F74F03690C699C42804600F38380013C01F114074FEA840E00F1140657F8245006EB0E030193013556F82430B3FBF5F507EB0E09002D0C
:4044C00039D04FF0000A3846B446D34650F8042B93B205FB03A34FEA134A9BB2C3EB0B03120CBCF800B005FB02A213FA8BF34FEA124A1FFA82FBDCF80020CBEB124202EB11
:4045000023429BB243EA024381454FEA224B4CF8043BDBD256F80E306BB9019B043B9E421A4602D3C8F8104005E01268043B002AF8D1013CF3E7404601F023FA00282CDBA0
:40454000013530464FF0000E57F8041BD0F800C08AB2C2EB0E03090C13FA8CF3C1EB1C4202EB23429BB243EA0243B9454FEA224E40F8043BE8D256F8242006EB840362B999
:40458000043B9E421A4602D3C8F8104005E01268043B002AF8D1013CF3E7284600E0002003B0BDE8F08F00002DE9F04F456A97B08246239CCDE9022345B9102000F070FF70
:4045C000CAF82400456085600560C560DAF82430196859B15A684A60012393408B60504600F0F6FFDAF8243000221A60039BA04A002BBFBF01232360039B23F00043B8BF42
:404600000393DDF80C80A4BF0023236028F000431B0D1B0593421DD1229A42F20F731360029B43B9934A944BC8F31300002814BF1846104600E09048249B002B00F04A85FC
:40464000C37813B100F1080300E0C31C249A136000F040BDDDE90245002200232046294601F0A2FD074658B1229A01231360249B002B00F0228581481860013800F02ABD30
:4046800014AB019315AB009322462B46504601F0F3F9C8F30A56059056B1C5F3130343F07F51204641F44011A6F2FF3611971DE0159B149E1E4406F23243202B0ADD029A23
:4046C00006F21240C3F1400322FA00F008FA03F3184304E0C3F12000029B03FA00F0FEF79BFD0123A1F1F871013E11930022644BFEF754FC58A3D3E90023FEF703FE58A368
:40470000D3E90023FEF74CFC044630460D46FEF793FD55A3D3E90023FEF7F4FD02460B4620462946FEF73CFC04460D4601F084FD0022834600232046294601F03FFD58B145
:404740005846FEF779FD02460B462046294601F02BFD08B90BF1FF3BBBF1160F0DD8494901EBCB01DDE90223D1E9000101F044FD30B10BF1FF3B002300E00123109300E019
:404780001090149B9E1B731E089343BFC3F10009002308934FF00009BBF1000F07DB089BCDF834B05B4408930023099306E0CBF1000309930023CBEB09090D93209B092B63
:4047C00027D8052BC4BF043B2093209BA3F10203CCBF00250125032B20D8DFE803F0060E0204012302E0012308E000230C93219B002B1CDD069398461EE000230C93219B4A
:404800005B4403F1010806934346012BB8BF012312E00125002320930C9501E001230C934FF0FF33069398460022122303E00123069398461A462192DAF8244000226260D6
:40484000042101F114029A421ED86268013262604900F6E7AFF3008061436F63A787D23FB3C8608B288AC63FFB799F501344D33F0000F07F3C690810456908101969081008
:404880000000F83FE86908106168504600F06BFEDAF8243020601B680793B8F10E0F00F25D81002D00F05A819DED027BBBF1000F8DED0E7B31DDA04A0BF00F0302EBC303D2
:4048C00093ED007B4FEA2B14E2068DED0A7B0CD59A4BDDE90E01D3E90823FEF73DFE04F00F04CDE90201032600E00226934D6CB1E30708D5DDE90A01D5E90023FEF702FD51
:40490000CDE90A01013664100835F0E7DDE90A23DDE90201FEF720FE20E0CBF1000404B3854B864D04F00F0203EBC203D3E90023DDE90E01FEF7E6FCCDE9020124110023BA
:40494000022654B1E70705D5D5E90023FEF7DAFC0136012364100835F3E71BB1CDE9020100E00226109BEBB1DDE902450022744B2046294601F022FCA0B1B8F1000F11D020
:40498000069B002B40F3E6800BF1FF330A9300226C4B20462946FEF7B5FC0136CDE90201069F02E0CDF828B047463046FEF744FCDDE90223FEF7A6FC0022634BFEF7F0FAF6
:4049C0000446A1F15075CFB90022604BDDE90201FEF7E4FA22462B46CDE9020101F00CFC002840F04182224605F10043DDE9020101F0E4FB002840F02E82ABE00C9A4E4B73
:404A0000791E002A4AD003EBC103D3E9002300204F49FEF7A1FD22462B46FEF7BFFA079C05460E46DDE9020101F006FC1290FEF703FC02460B46DDE90201FEF7AFFA129BF7
:404A4000303304F8013B2A463346CDE9020101F0B5FB002840F02183DDE9022300203849FEF79CFA2A46334601F0A8FB002840F0D280079BE31ABB426CDA0022314B284630
:404A80003146FEF73FFC002205460E462D4BDDE90201FEF737FCCDE90201C3E703EBC10122462B46D1E90001FEF72CFC079BCDE91201DC191D46DDE9020101F0BDFB0646E0
:404AC000FEF7BAFB303602460B46DDE90201FEF765FA05F8016BAC42CDE902014FF0000223D11B4BDDE91201FEF75AFA02460B46DDE9020101F080FB002840F08C80DDE92B
:404B0000122300201249FEF749FA02460B46DDE9020101F053FBE8B114F8013C302B04F1FF3240F0BA821446F6E7064BFEF7EAFBCDE90201BFE700BFE8690810C0690810F3
:404B40000000F03F0000244000001C40000014400000E03FDDE90E34CDE90234159B002B7CDBBBF10E0F79DC8F4B03EBCB03D3E90067219B002B14DAB8F1000F11DC40F02C
:404B80006C810022894B30463946FEF7BBFBDDE9022301F027FB45464646002840F05F8166E1079C32463B46DDE90201FEF7D4FC01F042FB0546FEF73FFB32463B46FEF71E
:404BC000A1FB0B460246DDE90201FEF7E7F905F1300E04F801EB079BC3EB040EF045CDE902012ED102460B46FEF7DAF98046894602460B463046394601F0E0FA78B942466F
:404C00004B463046394601F0CFFA002800F04782E90704D443E2DDF828B000E01C4614F8012C392A04F1FF3307D1079A9A42F5D1079930220BF1010B0A701A7801321A70D6
:404C40002DE200225A4BFEF75DFB00220023CDE9020101F0A9FA0028A4D020E20C9A002A2DD0209A012A0ADC119A12B103F2334302E0149BC3F13603099D4C4615E0099B21
:404C800008F1FF35AB42BFBF099B0995EA1A0D9BB7BF9B185D1B0D930025B8F1000FB9BFC8EB090400234C464346089A01211A4450469944089200F02AFD064602E0099DC0
:404CC0000C9E4C465CB1089B002B08DDA342089AA8BF2346C3EB0909E41AD31A0893099B002B1DDD0C9BABB185B131462A46504600F0A8FD059A01460646504600F010FD42
:404D000005990746504600F063FC0597099B5A1B06D000E0099A0599504600F093FD05900121504600F0F3FC0D9B05465BB31A460146504600F086FD209B012B054618DCDE
:404D4000029B83B9039BC3F3130373B9039B23F000473F0D3F054FB1089B013309F101090893012702E0002700E0029F0D9B73B100E000272B6905EB8303186900F07AFC50
:404D8000C0F1200004E0209B012BD9DD0D9F0120089B184410F01F000ED0C0F12003042B08DDC0F11C0008E0E8690810000014400000244006D018461C30089B03448144EB
:404DC00004440893B9F1000F05DD4A460599504600F086FD0590089B002B05DD29461A46504600F07DFD0546109BEBB12946059800F0C7FD002817DA00230A2205995046FC
:404E000000F0FDFB0C9B05900BF1FF3B002B00F05881002331460A22504600F0F0FB069B002B064637DC33E0B8F1000F2ADC209B022B27DDCDF81880069B83B92946052235
:404E4000504600F0DCFB01460546059800F099FD00280DDC03E03D4600E000252E46219B079C6FEA030B0AE0DDF828B03D463E46079B079A5C1C312313700BF1010BB0463C
:404E80000026F7E00C9BCDF8188023B9079CB1E0209B022BD0DC002C05DD31462246504600F01EFD06469FB17168504600F05BFB326902320446920006F10C010C3000F093
:404EC00047FB01222146504600F00AFD804600E0B046029BDDF81C9003F00103089329460598FFF7D1FA3146044600F13007059800F047FD424602902946504600F05DFD1D
:404F0000C36802463BB901460990059800F039FD099A034600E0012311465046099300F057FB099B4BB9209A3AB9089A2AB9392F28D0029B002B1ADC1BE0029A002A04DB14
:404F40001AD1209AC2B9089AB2B9002B11DD01220599504600F0C4FC2946059000F011FD002802DC05D1FA0703D5392F0AD004F1310709F101040CE0002B09F101040BDDC1
:404F8000392F05D1392389F8003009F1010954E0013789F800706DE0079B069A04F8017CE31A9342A1463AD000230A220599504600F025FB464505904FF000034FF00A023A
:404FC0003146504604D100F01AFB0646804686E700F015FB4146064600230A22504600F00EFB80467BE700230A220599504600F006FB059029460598FFF746FA00F13007FF
:4050000004F8017B079B069AE31A9342EBDB079B012AACBF9B180133B0469946002601220599504600F05CFC2946059000F0A9FC002802DC15D1FB0713D54C4614F8013C1B
:40504000392B04F1FF3209D1079B934204D10BF1010B3123079A02E01446EFE70133137008E04C4614F8013C302B04F1FF3201D11446F7E72946504600F0AAFAB8F1000F1B
:405080000DD02EB1464503D03146504600F0A0FA4146504600F09CFA01E0DDF828B00599504600F095FA0023229A23700BF101031360249B1BB11C6001E008480AE00798B5
:4050C00008E0069B002B3FF7E1AE209B022B7FF7DDAEB1E617B0BDE8F08F00BF186908108A892DE9F041054610070C4659D44B68002B02DC0B6C002B17DDE66AAEB102F442
:405100008052002392B22F682B600AB1606D15E0216A01232846B047411C0FD12B686BB11D2B01D0162B03D12F600020BDE8F081A38943F04003A381BDE8F081A3895A073B
:4051400005D56368C01A636B0BB1236CC01A00230246E66A216A2846B047431CA38906D129681D293AD8214ACA40D60736D500226260D9042269226004D5421C01D12B6800
:4051800003B96065616B2F600029CED004F14403994202D0284600F0CBFC00206063BDE8F0810F69002FC0D093070E6808BF4B690F6018BF0023C7EB06088B6002E0074442
:4051C000C0EB0808B8F1000FAFDD43463A46216AA66A2846B0470028F1DCA38943F04003A3814FF0FF30BDE8F08100BF0100402038B50B6905460C46DBB118B183690BB945
:4052000000F060F80C4B9C4201D16C6808E00B4B9C4201D1AC6803E0094B9C4208BFEC68B4F90C302BB121462846BDE83840FFF757BF002038BD00BF4C6908106C690810C8
:405240008C690810014900F0A9B800BFF1510810002310B5044603604360836081814366C281036143618361194608225C30FEF77BFA054B6362054BA362054BE362054BAA
:405280002462236310BD00BFA15F0810C35F0810FB5F08101F60081070B568234D1E5D430E4605F1740100F091FC044640B1002180E842000C30A06005F16802FEF754FA1F
:4052C000204670BD836910B5044633BB8364C3640365124B124A1B688262984204BF0123836100F01FF86060204600F01BF8A060204600F017F80022E06004216068FFF71D
:40530000A7FF01220921A068FFF7A2FF02221221E068FFF79DFF0123A36110BD0469081045520810F8B51C4B1E68B369074613B93046FFF7C7FF4836B4687368013B04D4F7
:40534000B4F90C507DB16834F8E733680BB13668F2E704213846FFF79FFF30600028F6D10C233B60F8BD4FF6FF73E3810123A38165662560A560656025616561A56108227F
:40538000294604F15C00FEF7EFF96563A563A564E5642046F8BD00BF046908102DE9F8438046894600F14804002694B1A5686768013F0CD4AB89012B07D9B5F90E300133E5
:4053C00003D029464046C84706436835F0E72468EBE73046BDE8F883004870471843020870B50E46B1F90E10002990B014461D4606DA00232B60B3891A060ED540230EE03C
:4054000001AA00F033FE0028F3DB029A02F47042A2F500535A425A412A604FF480630020236010B070BD00008B8973B59E0705460C4610D401AB6A46FFF7D2FF009906469B
:40544000284600F0C3FB68B9B4F90C309A0522D443F00203A38104F14703236023610123636118E00D4BAB62A389206043F08003A381009B6361019B20614BB1B4F90E10C1
:40548000284600F005FE18B1A38943F00103A381A0893043A08102B070BD00BF45520810024B0146186800F091BB00BF1443020801F0FF01102A2BDB10F0070F08D010F89A
:4054C000013B013A8B422DD010F0070F42B3F6D1F0B441EA012141EA014122F007047FF000070023F0E80256083C85EA010586EA010685FA47F5A3FA87F586FA47F6A5FAF5
:4055000087F68EB9EED1F0BC01F0FF0102F0070232B110F8013B013A83EA010313B1F8D10020704701387047002D06BF35460338073815F0010F07D1013015F4807F02BF5B
:40554000013015F4C03F0130F0BC0138704700BF10B5431E0A44914204D011F8014B03F8014FF8E710BD70B5456A04460E463DB91020FFF795FF6062456085600560C56007
:40558000656AEB6843B1636ADB6853F8260078B1026843F8262017E021220421204600F0B9FA636AE860DB68002BECD1002070BD012101FA06F56A1D9200204600F0AAFA20
:4055C0000028F3D04660856000230361C36070BD70B5446A06460D463CB91020FFF760FF7062446084600460C4603DB1736A6A68DB6853F82210296043F8225070BD2DE9BA
:40560000F0410D691F4606460C4601F1140E0023DEF8000081B202FB01710F0C000C02FB007089B2013301EB00419D424FEA10474EF8041BECDCD7B1A3689D4212DB61681D
:4056400030460131FFF78FFF2269023204F10C01804692000C30FFF77BFF21463046FFF7B7FF444604EB850301355F6125612046BDE8F081030C1B0413B90004102300E0A6
:40568000002310F07F4F04BF0002083310F0704F04BF0001043310F0404F04BF80000233002803DB420003D5581C70471846704720207047036813F007020BD0D90722D4B9
:4056C0009A074BBF5B089B08036003604CBF01200220704799B209B91B0C102213F0FF0F04BF1B0A0832190704BF1B090432990704BF9B080232D90702D45B0805D00132FD
:40570000036010467047002070472020704710B50C460121FFF727FF01224461026110BD2DE9F74F14460A6923699A42B8BF0B468846BCBFA0461C46D8F81070D4F8109038
:40574000D8F80830D8F8041007EB09069E42C8BF0131FFF708FF00F1140505EB860C2B460022634502D243F8042BFAE704F1140208F1140102EB890301EB87070093009B86
:405780000192934257D9B2F800B0BBF1000F23D08946AE464FF0000859F8044BBEF800A0A3B20BFB03A34FEA144ADEF8004043444FEA14480BFB0A8404EB1344F2469BB220
:4057C00043EA04434F454FEA14484AF8043B01D9D646E1E7CEF80480019BB3F802A00432BAF1000F21D02B682C4689464FF00008B9F800E0B4F802B00AFB0EBEF044A346C1
:405800009BB243EA08434BF8043B59F8043BB4F804E01B0C0AFB03E303EB18434F454FEA134801D95C46E3E763600435A7E75CF8043D13B9013E002EF9DC066103B0BDE84C
:40584000F08F00002DE9F843154612F0030206460F4607D0013A214C002354F82220FFF7CEFE0746AD1036D0746A3CB91020FFF717FE7062446084600460C460D6F82480F1
:40588000D8F808404CB940F271213046FFF73FFF0023C8F80800044603604FF00008EB070AD5394622463046FFF73AFF394681463046FFF78DFE4F466D100CD0206808B1B5
:4058C0000446ECE7224621463046FFF729FF2060C0F80080F4E73846BDE8F883B46908102DE9F0470C464FEA621A26694968A368564407469146751CAB4202DA01315B007E
:40590000FAE73846FFF72FFE0023804600F114011A46534503DA41F823200133F9E72AEAEA73206901EB830319F01F0904F1140101EB800E14D0C9F1200C0022086800FA1A
:4059400009F002439A4643F8042B51F8042B8E4522FA0CF2F2D8CAF8042042B1B51C06E0043B51F8042B43F8042F8E45F9D8013D3846C8F810502146FFF72AFE4046BDE88B
:40598000F08703690A699B1A10B511D192001430143183180A4453F8044D52F8041D8C4202D007D3012010BD9842F4D3002010BD184610BD4FF0FF3010BD2DE9F8430C462B
:4059C0000746114620461546FFF7DBFF061E08D131463846FFF7C7FD012303614661BDE8F883BCBF23462C4638466168BABF1D4601260026FFF7B7FD2B69C660266905F1C8
:405A00001409143404EB860709EB830800F114054FF0000C54F8043B59F8042B1CFA83F11FFA82FE120CCEEB0101C2EB134303EB214389B24FEA234CC84541EA0343A64608
:405A400045F8043BE6D8BE450ED25EF8041B1CFA81F2131403EB114392B242EA03424FEA234C45F8042BEEE755F8043D0BB9013EFAE70661BDE8F8832DE9F34101211C463D
:405A8000089E099D9046FFF76EFDC4F31303C4F30A5407460CB143F480130193B8F1000F19D002A840F8088DFFF704FE009B48B1019AC0F1200102FA01F10B43C2407B61EE
:405AC000019200E07B61019BBB61002B14BF02210121396107E001A8FFF7ECFD019B7B6101213961203034B1A4F2334404443460C0F1350009E007EB8103A0F23240306028
:405B00001869FFF7B7FDC0EB41102860384602B0BDE8F08138B502FB01F4214600F056F8054618B122460021FDF71EFE284638BD38B50546002946D051F8043C0C1F002B86
:405B4000B8BFE41800F0C6FA1F4A1368114613B96360146032E0A3420ED92268A018834204BF18685B68636004BF121822600C6024E0A24203D813465A68002AF9D11868E9
:405B80001918A1420BD12168014458188242196014D1106852685A60014419600EE002D90C232B600AE021686018824204BF10685268626004BF091821605C602846BDE8CE
:405BC000384000F088BA38BDE04C020870B5CD1C25F0030508350C2D38BF0C25002D064601DBA94202D90C23336046E000F072FA234B1C681A462146A1B10B685B1B0ED4D2
:405C00000B2B03D90B60CC18CD501EE08C420DBF63684B686360136018BF0C4615E00C464968E9E7174C23681BB9304600F0A8F920602946304600F0A3F9431C18D0C41CC8
:405C400024F00304A0420DD12560304600F043FA04F10B00231D20F00700C31A0ED05A42E25070BD211A304600F08AF90130EBD10C233360304600F02EFA002070BD00BFA7
:405C8000E04C0208DC4C02089368013B002B10B4936009DA9469A34202DBCBB20A2B03D15DF8044BFEF72EBB1368581C10601970C8B25DF8044B7047F8B506460F46144654
:405CC000D518AC4208D03A4614F8011B3046FFF7DBFF431CF5D100E00020F8BD2DE9F04F9DB00C4617460393064618B183690BB9FFF7E8FA7F4B9C4201D1746808E07E4B9E
:405D00009C4201D1B46803E07C4B9C4208BFF468A38918070CD5236953B10023099320238DF8293030238DF82A30DFF8D4B144E021463046FEF73AFB0028EED04FF0FF3043
:405D4000D5E0039A111D12680391002A80F28C80524243F002000792049098F800302E2B00F08480032298F800106548FFF7A0FB48B14023CBEB000003FA00F0049B1843EE
:405D8000049008F1010898F800105E488DF82810062208F10107FFF78BFB002800F09580594B002B40F08880039B073323F0070308330393099B53440993B846454615F83E
:405DC000013B1BB9B8EB07090FD003E0252BF9D0A846F3E74B463A4621463046FFF76CFF01307FD0099B4B44099398F80030002B78D000234FF0FF32049307930592069378
:405E00008DF853301A930127052229783F48FFF74FFB05F10108049B38B13C4A801A07FA00F0184304904546EEE7D90644BF20228DF853201A0744BF2B228DF853202A78E8
:405E40002A2A3FF47EAF079A00210A20A846013598F80030303B092B03D800FB02320121F4E700293FF479AF079276E798F801302A2B0BD1039B1A1D1B680392002BB8BFFD
:405E80004FF0FF3308F1020805936BE70023059308F1010019460A258046013098F80020303A092A03D805FB01210123F4E7002B3FF458AF059155E703AB00932246144BC2
:405EC00004A93046FDF7EAFC07E003AB009322460F4B04A93046FDF79BFFB0F1FF3F82467FF468AFA3895B063FF528AF09981DB0BDE8F08F4C6908106C6908108C690810E8
:405F0000B66A0810BA6A08109D380810B06A0810B95C081070B50D461446064618B183690BB9FFF7CFF9134B9C4201D1746808E0114B9C4201D1B46803E0104B9C4208BF6F
:405F4000F468A368013B002BA3600CDAA269934202DBEBB20A2B06D1224629463046BDE87040FEF7CFB923685A1C22601D70E8B270BD00BF4C6908106C6908108C69081088
:405F800038B5064C002305460846236000F09CF9431C02D1236803B12B6038BD204E020810B50C46B1F90E1000F096F80028ABBF636DA3891B1823F48053ACBF6365A38116
:405FC00010BD2DE9F0411F468B89DB0505460C46164605D502230022B1F90E1000F068F8A389B4F90E1023F48053A38132463B462846BDE8F04100F017B810B50C46B1F940
:406000000E1000F055F8431CA38915BF606523F4805343F48053A38118BFA38110BDB1F90E1000F013B8000038B5074C054608461146002222601A46FCF796FE431C02D191
:40604000236803B12B6038BD204E020838B5064C002305460846236000F016F9431C02D1236803B12B6038BD204E020838B5074C0023054608461146236000F00DF9431CD8
:4060800002D1236803B12B6038BD00BF204E020838B5064C002305460846236000F004F9431C02D1236803B12B6038BD204E020838B5074C054608461146002222601A460F
:4060C00000F0FAF8431C02D1236803B12B6038BD204E02087047704738B5074C054608461146002222601A46FCF750FE431C02D1236803B12B6038BD204E02084FF0FF3C8F
:4061000006E000BF4FF0010C02E000BF4FF0010C4DF804CD4FEA410C7FEA6C5C4FEA430C18BF7FEA6C5C1BD001B050EA410C0CBF52EA430C91EA030F02BF90EA020F0020B2
:40614000704710F1000F91EA030F58BF994208BF90422CBFD8176FEAE37040F0010070474FEA410C7FEA6C5C02D150EA013C07D14FEA430C7FEA6C5CD6D152EA033CD3D07B
:406180005DF8040B704700BF8446104662468C461946634600E000BF01B5FFF7B7FF002848BF10F1000F01BD4DF808EDFFF7F4FF0CBF012000205DF808FB00BF4DF808EDE5
:4061C000FFF7EAFF34BF012000205DF808FB00BF4DF808EDFFF7E0FF94BF012000205DF808FB00BF4DF808EDFFF7CEFF94BF012000205DF808FB00BF4DF808EDFFF7C4FF20
:4062000034BF012000205DF808FB00BF4FEA410C7FEA6C5C02D150EA013C0AD14FEA430C7FEA6C5C02D152EA033C02D14FF0000070474FF0010070474FEA410212F50012DB
:4062400015D211D56FF47873B3EB625212D94FEAC12343F0004343EA505311F0004F23FA02F018BF404270474FF00000704750EA013005D111F0004008BF6FF0004070475F
:406280004FF00000704700BF024B58221A604FF0FF307047204E0208024B58221A604FF0FF307047204E0208024B58221A600020704700BF204E0208024B58221A604FF09E
:4062C000FF307047204E0208044A05491368002B08BF0B461844106018467047E44C0208284E0208F8B500BFF8BC08BC9E467047F8B500BFF8BC08BC9E467047000300004A
:40630000000000010100000000000000000000000100000000000000000100000000000000000000010000000000000047656E6572617465645F536F757263655C50536F8B
:4063400043365C70646C5C647269766572732F7065726970686572616C2F646D612F63795F646D612E6800006D61696E5F636D342E63000053697A65206F662057535F6607
:4063800072616D65427566666572203D2025640A00000000546573742030783030203D202530580A00000000546573742030784646203D202530580A00000000546573740A
:4063C0002030783830203D202530580A00000000253032582000000053746172746564005761636820646F672053746172746564000000004D697373696F6E2053746172F3
:40640000746564210D00000047656E6572617465645F536F757263655C50536F43362F4144435F312E6800000300000001000000010000000000000005036000040000001D
:4064400001000000000000000100000006046000080000004C4C0208510F08108A0000000700000032000000070000002F000000070000002E000000070000000000000059
:406480000C0000000800000000020000000000000000000000000000000000000000000000000000000000000B0000000000000000000000000000000000000047656E653C
:4064C00072617465645F536F757263655C50536F43365C70646C5C647269766572732F7065726970686572616C2F7361722F63795F7361722E6800000000000001000000C7
:406500000C650810000000000200000072C02053F80000900400020002000200F101000E000000000100000000050000000000000000000000000000000000000000000093
:40654000000000000000000000000000000000000000000000000000000000000000000000000000000000000100000000000000000000000000000000000000000000001A
:40658000E40C000047656E6572617465645F536F757263655C50536F43365C70646C5C647269766572735C7065726970686572616C5C737973696E745C63795F73797369C1
:4065C0006E742E630000000047656E6572617465645F536F757263655C50536F43365C70646C5C647269766572735C7065726970686572616C5C6970635C63795F697063F8
:406600005F6472762E68000047656E6572617465645F536F757263655C50536F43365C70646C5C647269766572735C7065726970686572616C5C6970635C63795F697063E9
:406640005F6472762E63000047656E6572617465645F536F757263655C50536F43365C70646C5C647269766572732F7065726970686572616C2F6970632F63795F69706335
:406680005F6472762E68000047656E6572617465645F536F757263655C50536F43365C70646C5C647269766572735C7065726970686572616C5C6970635C63795F69706369
:4066C0005F706970652E630047656E6572617465645F536F757263655C50536F43365C70646C5C647269766572735C7065726970686572616C5C7363625C63795F736362D4
:406700005F636F6D6D6F6E2E6800000047656E6572617465645F536F757263655C50536F43365C70646C5C647269766572735C7065726970686572616C5C7363625C63794A
:406740005F7363625F7370692E63000047656E6572617465645F536F757263655C50536F43365C70646C5C647269766572735C7065726970686572616C5C7363625C6379B5
:406780005F7363625F756172742E680047656E6572617465645F536F757263655C50536F43365C70646C5C647269766572735C7065726970686572616C5C7363625C637900
:4067C0005F7363625F756172742E630047656E6572617465645F536F757263655C50536F43365C70646C5C647269766572735C7065726970686572616C5C7361725C6379B7
:406800005F7361722E63000047656E6572617465645F536F757263655C50536F43365C70646C5C647269766572735C7065726970686572616C5C646D615C63795F646D6106
:406840002E63000047656E6572617465645F536F757263655C50536F43365C70646C5C647269766572735C7065726970686572616C5C646D615C63795F646D612E680000D5
:4068800047656E6572617465645F536F757263655C50536F43365C70646C5C647269766572735C7065726970686572616C5C6D637764745C63795F6D637764742E63000051
:4068C000010003000400000008000000080000000100000000000000000000000000000000000000000000003F00000000000000000000000080008000001000000001002F
:4069000043000000B4420208494E4600696E66004E414E006E616E00300030313233343536373839414243444546003031323334353637383961626364656600496E666926
:406940006E697479004E614E000000000000000000000000000000000000000000000000000000000000000000000000000000000000000000000000000000000000000056
:406980000000000000000000000000000000000000000000000000000000000000000000000000000000000000000000504F534958002E0005000000190000007D0000007B
:4069C0000080E03779C34143176E05B5B5B89346F5F93FE9034F384D321D30F94877825A3CBF737FDD4F1575000000000000F03F00000000000024400000000000005940EC
:406A00000000000000408F40000000000088C34000000000006AF8400000000080842E4100000000D01263410000000084D797410000000065CDCD41000000205FA002424B
:406A4000000000E876483742000000A2941A6D42000040E59C30A2420000901EC4BCD64200003426F56B0C430080E03779C3414300A0D8855734764300C84E676DC1AB43A3
:406A8000003D9160E458E143408CB5781DAF154450EFE2D6E41A4B4492D54D06CFF08044F64AE1C7022DB544B49DD9794378EA44232D302B2000686C4C00656667454647DE
:406AC000000000000000000000000810004002088C020000E86A08108C4202081C0500003C480208E80500000048E80100127A0000093D0000127A0000127A0008000000A5
:406B0000401F00000000A00F02FF0000FFFF0000000000004C6908106C6908108C690810000000000000000000000000000000000069081000000000000000000000000000
:406B4000000000000000000000000000000000000000000000000000000000000000000000000000000000000000000000000000B4420208B2690810B56A0810B56A081074
:406B8000B56A0810B56A0810B56A0810B56A0810B56A0810B56A0810B56A0810FFFFFFFFFFFFFFFFFFFFFFFFFFFF0000B10208108D0208100000000080B2C300B0B13E213B
:406BC0000B4A116041F61E7104321160A2F584720621C2F8181523F07F43C2F81C35D2F81C35044BD3F81C35002BFADA704700BF040126400000264008B54FF26003404A30
:406C0000D3589BB2A2F580229268013B032B76D8DFE803F0021F3C59032A02D10822394B9A60394A13691069C0F307221B0E581C02FB0000354B03FB00F0354B1B68354AFB
:406C4000A2FB03239B09B0FBF3F08230FFF7B4FF08BD032A02D108222A4B9A602A4A13691069C0F307221B0E581C02FB0000274B03FB00F0264B1B68264AA2FB03239B095C
:406C8000B0FBF3F08230FFF797FF08BD032A02D108221C4B9A601C4A13691069C0F307221B0E581C02FB0000184B03FB00F0184B1B68184AA2FB03239B09B0FBF3F08230A7
:406CC000FFF77AFF08BD032A02D108220D4B9A600D4A13691069C0F307221B0E581C02FB00000A4B03FB00F0094B1B68094AA2FB03239B09B0FBF3F08230FFF75DFF08BDF7
:406D000000002540A00023400000214040420F0090420208D34D621008B54378FF2B0ED100F048F9064BDB685A68136843F001031360136813F0010FFBD100F053F908BD03
:406D400080002340F8B505460E46264B1B69002B1FDB002000F03EF9234B98421BD00023224A0121184600F01DF918B1204C15E0013400E00024002000F02CF91A4B984264
:406D800002D01C4B9C42F3D91A4B9C4205D9184C04E0174C02E0164C00E0002404BB00F009F90746144A0121144800F0F3F868B925B93046FFF700FF114C08E00F4B1B699A
:406DC000002BFBDB00F016F9044600E0084C0121002000F0F7F80028F9D1384600F002F92046F8BDA000234001018800AC42020805005200EF490200884C02082000234007
:406E000001005000394B1B68002BFBDA30B4374BDA6842F00102DA60DB6813F0020F20D0324DEB689CB232490A69120A120402F47F02D1F890301B0A42EA03632343EB60F4
:406E40000B6923F47F4343F410630B61D1F8903023F47F4343F41063C1F890300B69D1F89030224B00225A605B68224A136943F004031361012801D030BF07E020BF1E4B73
:406E80001B7803B120BF01221B4B1A70184BD3F8803003F00303022BE7D0144B1B68002BFBDA124BDB6813F0020F15D010490B6923F47F420D48C3681B0C1B0203F47F4341
:406EC00013430B61D1F8903023F47F42C3681B0E42EA0323C1F89030044BDA6822F00102DA6000225A6030BC704700BFE00023400000214000ED00E0984C02081E4A1369EF
:406F000043F004031361012801D030BF07E020BF1A4B1B7803B120BF0122184B1A70184BD3F8803003F00303022BE7D0154B1B68002BFBDA144BD3F80C31C3B941F61E7211
:406F4000124B1A60062203F582631A603E22A3F214431A60442203F583631A600C4B1B68002BFBDA4FF0AA32074BC3F80C210022044B5A60704700BF00ED00E0984C0208AC
:406F800000002140E000234000002540080126401C05264001B40248844601BC604700BF5512081001B40248844601BC604700BFC115081001B40248844601BC604700BFA1
:406FC000C328081001B40248844601BC604700BF6D13081001B40248844601BC604700BFF513081001B40248844601BC604700BFCB28081001B40248844601BC604700BF1B
:40700000892208100000000000000000000000000000000000000000000000000000000000000000000000000000000000000000000000000000000000000000000000008D
:407040000000000000000000000000000000000000000000000000000000000000000000000000000000000000000000000000000000000000000000000000000000000010
:4070800000000000000000000000000000000000000000000000000000000000000000000000000000000000000000000000000000000000000000000000000000000000D0
:4070C0000000000000000000000000000000000000000000000000000000000000000000000000000000000000000000000000000000000000000000000000000000000090
:40710000000000000000000000000000000000000000000000000000000000000000000000000000000000000000000000000000000000000000000000000000000000004F
:40714000000000000000000000000000000000000000000000000000000000000000000000000000000000000000000000000000000000000000000000000000000000000F
:4071800000000000000000000000000000000000000000000000000000000000000000000000000000000000000000000000000000000000000000000000000000000000CF
:4071C000000000000000000000000000000000000000000000000000000000000000000000000000000000000000000000000000000000000000000000000000000000008F
:0200000490303A
:02000000E731E6
:0200000490501A
:0C0000000005E20721002101E231083177
:00000001FF