:020000040000fa
:100000000200d2021003000000000002100b0000ea
:10001000000000021013000000000002101b00008e
:10002000000000021023000000000002102b00005e
:10003000000000021033000000000002103b00002e
:10004000000000021043000000000002104b0000fe
:10005000000000021053000000000002105b0000ce
:10006000000000021063000000000002106b00009e
:10007000000000021073000000000002107b00006e
:10008000000000021083000000000002108b00003e
:10009000000000020dfee490000378c579018002a3
:1000a000f0a3d8fcd9fa7ac77b009000e4780979ec
:1000b000018015e493a3ad82ae838a828b83f0a383
:1000c000aa82ab838d828e83d8e9d9e71203e4122a
:1000d0000e1d75d00075813f751c8075931e53925f
:1000e000fe0200960010000000000200bb0102e7c3
:1000f00022c0925392fec082c08389828a83bb0051
:1001000003e08002e493d083d082d09222bb00151a
:10011000c0925392fec082c0838a838982f0d083ca
:10012000d082d09222bb0101f722cac0e0e6f309d7
:1001300008dafad0e0fa22cac0e0e0f208a3dafa5c
:10014000d0e0fa22600c08c6c313c618c613c6d581
:10015000e0f422700422600d18c6c333c608c6330b
:10016000c6d5e0f41822e4735392fed083d08225e2
:100170001cf8c51cc39824fbcef208e520f208e960
:10018000c0e07908e709f208defad0e0f9eff208fa
:10019000d0e0fed0e0f208eef208e473a81ce2fe24
:1001a00008e208f520e9c0e07908e208f709dffa7b
:1001b000e208ffd0e0f9e208c0e0e208c0e0881cf5
:1001c0005392fe22e584f208e585f222e208f584e6
:1001d000e2f585227403800474028000c9c0e0e562
:1001e0001cc399f51cc912012ad0e0f922740380be
:1001f00000c8c0e0e51cc398f51cc8120137d0e068
:10020000f82275bc0075bc005392fe22800f8a82d2
:100210008b835392fee0f5bda3aa82ab83ecf8ed8d
:10022000f9e824ff1ce934fffde84970e15392fe30
:1002300022e5bdf9e5bcfae9fb5392fe227400f514
:10024000d374032408f5d25392fe2275c90bc2afb2
:1002500080fe74fa120168e9fec394024029a2af3d
:10026000e433f8c2af906270e0a2e740f8eec33327
:10027000906272f0906270e0d2e0f0e0a2e740fba2
:10028000e8a2e092af800312024b7f0102019c744e
:10029000f9120168e9fe8a088b09740978081201cd
:1002a00044e508c39402404ca2afe433ffc2afed73
:1002b000900003f0eca3f0a37462f0a37473f0a3b6
:1002c000e4f0eea3f0a37412f0a37442f0eb90629a
:1002d00072f0ea906271f07400f5d575d40375d6aa
:1002e00001906270e0d2e1f0e0a2e740fbefa2e013
:1002f00092af800312024b7f0202019c5392fe9048
:100300006276e075c6807480659e70fa9062707443
:1003100008f022c008c0098908750900740b780824
:10032000120153fae5094480fbd009d0085392fe2c
:100330002274f7120168909093e064bf7063e5c780
:10034000f50812020275c7007c937d007a007b904d
:1003500012020c7c5d7d077aa37b9012020c9090b8
:1003600094e014f5097f00801674032ffef9120340
:1003700013eec4540ff5c77c007d0812020c0fef7a
:10038000c3950940e48508c71202318a088b09a881
:1003900008a909909095e0687003a3e069703e8019
:1003a00038e5c7f5087fa57e02eef91203138a82ad
:1003b0008b83eec4540ff5c778007908e02fffa3b4
:1003c000e824ff18e934fff9e84970f00eeec39411
:1003d0003040d68508c7ef70047901800279007f2c
:1003e0000402019c5392fe900001e090001bf090eb
:1003f0000002e090001cf0e59d5418641070089015
:10040000001be0a2e0403de5c7f8790075c7009009
:100410009000e0640270010988c7e9a2e05025124b
:100420000331e9601f9000017403f090001ce0901c
:100430000002f005929000c7e0f582a3e0f5830585
:10044000921201661202fc900001e4f012023d12c9
:1004500006e412071412076480fb74f81201681591
:100460001c151ca81c1201c490620ee0fee4f09062
:100470006211e0ffa2e450197480f0900024740728
:10048000f012066d6006120689120166900024e4df
:10049000f0efa2e2500b906211e4f0900024f080a3
:1004a00060900024e0f87402687042906216e0ffe9
:1004b00090003b1201edeff97a207b6212072005d4
:1004c0001c051c051c8f0890003e12066212065582
:1004d0002f120678120670600474408002744890ef
:1004e0006211f0e8496003020642020625740668bc
:1004f0007006120689120166900024e0600302056e
:10050000cfefa2e04003020642750833750900757b
:100510000a0078081201d479087a207b6212072039
:10052000051c051c051c900040e4f0a3f09000336e
:10053000e054e0600e24e0606a24a0604024e060a3
:1005400071807ea3e014602624fe601d24fe600af4
:1005500024fc601f24fe60208067120ae5900024be
:10056000e06404706474608062120adf80ef120a33
:10057000d980ea120c1580e5120d4c80e0a3e060f2
:100580000e24fa600f24fe601024fe6011803212e7
:10059000091580c9120b2d80c4120bef80bf120cfd
:1005a000ee80ba900040748cf0a37407f012078cb0
:1005b00080ab9000407463f0a37408f0120863806d
:1005c0009c9000247404f0809c7440906211f09020
:1005d0000024e0f8740168705e7f0290003ee0f84d
:1005e000a3e0f9c3e89420e994005007e8f50a7ff6
:1005f0000a8003750a2090003b1201eda90a7a20b7
:100600007b62120739051c051c051c850a081206a9
:10061000552508120678120662ef906211f0e50a7d
:10062000c39420501d12066d6006120689120166e1
:10063000900024e4f0800b7405687006120689129d
:100640000166ee90620ef0a81c1201cc051c051c80
:100650007f0302019c90003be0f9a3e0faa3e0fbda
:10066000e922c3e09508f0a3e09400f02290004056
:10067000e0f8a3e0f9e84922f9e43afa90003be90e
:10068000f0a3eaf0a3ebf0a3220592900040e0f57e
:1006900082a3e0f583059222c008c0097800742582
:1006a00028f582e43400f583e95392fef008e8c3ac
:1006b000940540ea7800742a28f582e43400f58332
:1006c000e9f008e8c3940540edd009d00822539220
:1006d000fe90001d7402f0a3e4f0900024f0790372
:1006e00012069822c008c0097508417509007808eb
:1006f0001201d87c007d007a427b00120e21051c7d
:10070000051c90001d7402f090620f04f0e0a2e757
:1007100050fb80b553f4fed29043fe015392fe226b
:1007200012075260105392fee012010de9240109f4
:10073000e43afadcf05392fe2212075260101200e3
:10074000ec5392fef0e9240109e43afadcf053920a
:10075000fe228a828b83e9fca81ce2f908e2fa08ef
:10076000e2fbec22eec0e05392fe906206e0f890cd
:100770006202e0fe906204e0e8a2e250031206cebc
:10078000eea2e0500312045ad0e0fe2274f71201e8
:1007900068900034e07003020848146003020858af
:1007a00090001b7401f0900024e0f870389000393c
:1007b000e0f8a3e0f9e849700d9000cd7402f090e4
:1007c0000024e402085d90003b7483f0a37400f001
:1007d000a3e4f0a3e8f0a3e9f09000247402f09001
:1007e00000cd048078740268706e900035e024407b
:1007f000f508a3e03400f509c39408400c900024e8
:10080000e4f09000cd740a8054e508541f701285fe
:10081000080a85090b7405780a120144a90a120214
:1008200052900039e0240354fcf97c837d00740469
:100830007808120153aa08ab0912028f900024e431
:10084000f09000cd7405801590001b7402f09000ac
:1008500024e4f075c90880069000247404f07f0435
:1008600002019c5392fe900034e06403701a9000e1
:100870003b74c9f0a37400f0a3e4f0a37406f0a3e2
:10088000e4f090002404f02280009000247404f02e
:10089000225392fe9000c3e4f0a3740ff02274fa86
:1008a000120168151c151ca81c1201c4eafcebf807
:1008b0007a007b00088038e8604d05929000c3e024
:1008c000fda3e0f5838d82a3e493fdec6d6034e934
:1008d0006d70099000c3e0faa3e0fb189000c3e03c
:1008e0002efea3e03400ff9000c3eef0a3eff090e3
:1008f00000c3e0f584a3e0f585e4059293fe70b7ac
:10090000e860047a007b00a81c1201cc051c051cc1
:100910007f0102019cc008120ce060030209eda3f4
:10092000e0f8a3e060030209eda3e064027002a313
:10093000e060030209ed900033e024806009146058
:100940004f14605c0209ede860030209ed9000308d
:10095000e060047801800278009000c5e8f0a3e42c
:10096000f090002fe0600a9000c5e04402f0a3e49c
:10097000f0900024e06404601490003b74c5f0a380
:100980007400f0a3e4f0a37402120d43f0d0082227
:1009900090001de0640470559000c5e4f0a380d081
:1009a000e8547ff50890001de064047040e508c33a
:1009b00094065039741d2508f582e43400f583e867
:1009c00054806018a3a3a3a3a3a3a3e064037004ab
:1009d0007801800278009000c5e88091e582240cbf
:1009e000f58250020583e0640370e980e3900024ff
:1009f0007404809874f9120168151c151ca81c1247
:100a000001c4e9fa900039120ce66003020ac390af
:100a1000001de06404600b900037120ce6600302d6
:100a20000ac3900033e0541f60091460231460125d
:100a3000020ac3900035e064017015ea90002f02ad
:100a40000ac8900037e0547ff508900035e0600454
:100a500079008077e508c394065068e50890620e37
:100a6000f0741d2508f584e43400f585900037e026
:100a700054806021ea600474108002744090621116
:100a8000f0ea600474038001e40592a3a3a3a3a386
:100a9000a3a3f08025ea6004742080027480906231
:100aa00014f0ea600474038001e4c0e0e584240cdf
:100ab000f582e43585f583d0e0f05392fe90620e26
:100ac000e480059000247404f07901a81c1201cc84
:100ad000051c051c7f0202019c79001209f4227991
:100ae000011209f4225392fe900037120ce670189e
:100af000a3120ce67012900035e0f8a3e0f9e85478
:100b000080fae9fbea4b6002801ce8906200f090fa
:100b1000001d6009e06402700c7403f022e06403bd
:100b200070037402f0229000247404f02274f8120e
:100b30000168120891900035e0faa3e0f91460080a
:100b400014600d14603180377b007a0079018033a6
:100b5000eafb7a00790212089e120bdae92402f904
:100b6000e43afa89828a83e493f8740193f9900055
:100b70003ee8f0a3e9801ceafb7a00790380047b5d
:100b8000007a0012089e120bdaa37b801200eca3fd
:100b9000f0a3e4f090003be0fca3e0fda3e0feec5a
:100ba0004d4e900024700474048029e06404602594
:100bb000900039e0faa3e0fb90003ee0f8a3e0f9f2
:100bc000c3ea98eb99500890003eeaf0a3ebf0904e
:100bd00000247401f07f0302019c90003beaf0a323
:100be000ebf0a37480f090003be0f9a3e0fa22124e
:100bf0000ce07010a3120ce6700aa3e0640170020e
:100c0000a3e06003020b2690003b741ef0a3740067
:100c1000120d39f02274f812016890001de0640290
:100c20007003020cc7900037120ce66003020cc779
:100c3000a3120ce66003020cc7900036e0600302ca
:100c40000cc7120891900035e07003020ccf7b00b6
:100c50007a00790212089e8a088b09ae08af09ee65
:100c60004f6064900035e0f88e828f83a3a3a3a326
:100c7000a3e493c0e0e8fad0e06a70d290001d745b
:100c800004f0e8a3f0750a008e828f83a3a3a3a3c8
:100c9000e493f8e50ac3985044850a08741f2508b0
:100ca000f582e43400f583e4f07b007a00790412e5
:100cb000089e8a828b83e58245836007a3a3a3e411
:100cc0009370e6050a80c19000247404f0800e90b1
:100cd000001ef090001d7403f0f9120698020bd567
:100ce0005392fe900035e0f8a3e0f9e8492274f849
:100cf00012016890001de064047019900033e064f4
:100d0000817011120ce3700c900039e064017002e4
:100d1000a3e060079000247404801a900037e02458
:100d20001ff508a3e03400f50990003be508f0a3a7
:100d3000e509120d39f0020bd5f0a3e4f0a304127b
:100d40000d4322f0a3e4f0900024042274f9120170
:100d500068151c151ca81c1201c490001de0640439
:100d60006003020df1900033e064016003020df1b5
:100d7000900039120ce670791208917b007a0079a4
:100d80000212089e8a828b83e5824583600fa3a3ab
:100d9000a3a3a3e493f890001ee06870de7b007ac2
:100da00002790412089e8a828b83e5824583604122
:100db0000592900035e0f8a3e0f9900037e0faa33f
:100dc000e0fb858284858385a3a3e493fcea6c70b1
:100dd00001eb600d0592a3a3a3e493fce86c4970ba
:100de000bc741f2af58274003bf583e85392fe80a1
:100df000059000247404f0020acb5392fe2274fa88
:100e0000120168151c151ceafeebffa81ceef20887
:100e1000eff2aa1cab937901120dfa80ee12009347
:100e20002274fa120168e51c2406f8e2fe08e2ffcb
:100e3000ee4f6014ecf88a828b83e8f0a3ee24ff77
:100e40001eef34ffff4e70f27f0102019cffffff97
:100e5000ffffffffffffffffffffffffffffffffa2
:100e6000ffffffffffffffffffffffffffffffff92
:100e7000ffffffffffffffffffffffffffffffff82
:100e8000ffffffffffffffffffffffffffffffff72
:100e9000ffffffffffffffffffffffffffffffff62
:100ea000ffffffffffffffffffffffffffffffff52
:100eb000ffffffffffffffffffffffffffffffff42
:100ec000ffffffffffffffffffffffffffffffff32
:100ed000ffffffffffffffffffffffffffffffff22
:100ee000ffffffffffffffffffffffffffffffff12
:100ef000ffffffffffffffffffffffffffffffff02
:100f000012010002000000205824feff0000010230
:100f1000030109021b0001010480250904000000ef
:100f2000fe01020409210d03e84000010104030948
:100f300004120342006c00750065006700690067d9
:100f400000610016034c006f007700200045006e22
:100f50000065007200670079000a03310032003337
:100f6000003400080344004600550000ffffffff67
:100f7000ffffffffffffffffffffffffffffffff81
:100f8000ffffffffffffffffffffffffffffffff71
:100f9000ffffffffffffffffffffffffffffffff61
:100fa000ffffffffffffffffffffffffffffffff51
:100fb000ffffffffffffffffffffffffffffffff41
:100fc000ffffffffffffffffffffffffffffffff31
:100fd000ffffffffffffffffffffffffffffffff21
:100fe000ffffffffffffffffffffffffffffffff11
:100ff000ffffffffffffffffffffffffffffffff01
:101000000211080232b5ffffffffff023f1bffff87
:10101000ffffff023fcaffffffffff024081ffff0c
:10102000ffffff02272cffffffffff023cdeffff59
:10103000ffffff024163ffffffffff024021ffffb1
:10104000ffffff023fa5ffffffffffffffffffffc7
:10105000ffffff02329bffffffffffffffffffffce
:10106000ffffffffffffffffffffff023e55fffff8
:10107000ffffff0240f3ffffffffff023ed8ffff2d
:10108000ffffff0232c0ffffffffffffffffffff79
:10109000ffffffbf32f67f000000000000000000ed
:1010a0000000797582fe75837f7400121123e47944
:1010b000347802b800028004f709d8fce4900303f6
:1010c000784779078002f0a3d8fcd9fa7a497b09de
:1010d000901144788279028015e493a3ad82ae83a7
:1010e0008a828b83f0a3aa82ab838d828e83d8e918
:1010f000d9e775824675838d74031211237582eecc
:101100007583ff740212112375d00075813f75310c
:1011100000753203753303759f007593005392fe7b
:101120000210aec09ff59fe473d09f225392fed071
:1011300083d082c09fe493c0e0740193c0e0740246
:1011400093f59f220300000201020300000f00c379
:10115000a88ee8b19dcf7f5eb98b9f41efb055f46b
:1011600001fa00960064004b0032001e001400d605
:10117000be898e000106021213151429417671fff3
:10118000c1fbe84c90728be7b3518963ab23230218
:10119000841872aa612f3b51a8e53749fbc9ca0cd4
:1011a00018532cfd45e37102000040420f0000403f
:1011b0000000ffffffff0afaffffff000080006250
:1011c000000000ff7f00000500060007000000018e
:1011d0000001000001000102020300020000000003
:1011e000000202010002bf01fb9d4ef3bc36d87421
:1011f000f5394138684c19000000093d0000e4ff52
:10120000fffffb349b5f80000080001000000000a7
:10121000000002000000ff000000000008050100bf
:1012200000000000010805000000000000070300a6
:10123000000080000100008000000000070a040098
:101240000000000007090000000d00000104070075
:1012500000000000020100000202831b891b8f1b9b
:10126000951b9b1ba11bff1a751d511d2f1ec31d16
:10127000c91d8000040580000406060000008000ef
:10128000040280000404800002000b0000008000c3
:101290000600401f0000e80300007517e513b519ac
:1012a0006f14d51d7b1d491c1d1ef91a010000007d
:1012b0008000000040ffffff00ffffffff00000075
:1012c00000c000000012112c49e00212112c61e054
:1012d0000212112c8ce00212112cd9e00212112cf6
:1012e000f1e00212112c19e10212112c69e1021233
:1012f000112c99e10212112cfae10212112c16e2c2
:101300000212112c32e20212112c57e20212112c9d
:10131000b0e20212112c3fe70212112cf3e7021285
:10132000112ca8930312112cc0930312112c319489
:101330000312112c74940312112c14fa0212112ca2
:10134000a8fa0212112c1efb0212112c34fb0212fd
:10135000112c60fb0212112c75fb0212112ccefb1a
:101360000212112ceffb0212112c4dfc0212112c57
:1013700092fc0212112c03fd0212112c2efd0212fe
:10138000112cb2fd0212112ce1fd0212112c00fef3
:101390000212112c14fe0212112c59fe0212112cf1
:1013a00052f50212112c6ef50212112ca4f5021244
:1013b000112cb2f50212112ce3f50212112c10f6c9
:1013c0000212112c19f60212112c5cf60212112cc9
:1013d000eaf60212112c57f70212112ca8f702128a
:1013e000112cd7f70212112c2bf80212112cfdf838
:1013f0000212112c08f90212112c3bf90212112cc5
:101400006cf90212112cbdf90212112cfaf9021218
:10141000112c2b970312112c4b970312112c74973c
:101420000312112cd1950312112ce5950312112ce6
:101430003c960312112cdc970312112cf397031224
:10144000112c58ff0112112c85ff0112112cdbf316
:101450000112112c48f40112112c8ef40112112cde
:10146000b7f40112112cc3f40112112ce6f401128d
:10147000112c2af50112112c71f50112112ccff546
:101480000112112c22f70112112c05f80112112c56
:10149000acf80112112cd2f80112112c16f901121c
:1014a000112cb1f90112112cc6f90112112c04faf8
:1014b0000112112c24fa0112112c86fa0112112c9e
:1014c00099fa0112112ca9fa0112112c98fb0112a0
:1014d000112cb6fc0112112c28fd0112112cdcfd7f
:1014e0000112112c5eba0112112c04bc0112112c34
:1014f00088bc0112112cdcbd0112112c4bbe011253
:10150000112c85be0112112c4fbf0112112cd0bf1e
:101510000112112cb8c00112112cc9c10112112cd9
:10152000bbc20112112cf5c30112112c4ec40112c1
:10153000112cb6c40112112c33c50112112cd4c5c3
:101540000112112c46c60112112cdfc60112112cfa
:1015500045c70112112cb3c70112112c08c8011282
:10156000112c90c80112112c46c90112112cfcc972
:101570000112112cbecb0112112ceccd0112112c39
:1015800033ce0112112ca6ce0112112c16cf01124e
:10159000112c64cf0112112c0ed10112112caed1dd
:1015a0000112112c3ad20112112c7bd20112112cf2
:1015b000fcd30112112c5dd40112112c67d501123c
:1015c000112c5dd60112112c8cd70112112cbfd811
:1015d0000112112ca2da0112112c58dd0112112c6a
:1015e00009de0112112cabde0112112c9adf01125f
:1015f000112c0de00112112c79e40112112cfbe6e3
:101600000112112cd0e70112112c22ea0112112c27
:1016100042eb0112112c6bec0112112c82ec011225
:10162000112c99f30112112c6a830312112ca98336
:101630000312112cd6830312112c03840312112cd4
:10164000f0840312112cc7850312112ca7fe02127d
:10165000112c00ff0212112c61ff0212112c0080cc
:101660000112112c1e800112112c3b800112112c31
:1016700058800112112c80800112112ca5800112ba
:10168000112ccd810112112c47820112112c5f8483
:101690000112112cc5840112112c50850112112c3c
:1016a00090850112112cc4850112112c068601129d
:1016b000112c74860112112c22870112112c3087f3
:1016c0000112112c43870112112c70880112112c68
:1016d000ac8a0112112c2c8b0112112c608b01127f
:1016e000112ca48c0112112ccd8d0112112ced8d19
:1016f0000112112c148e0112112c508e0112112c7a
:10170000838e0112112c84920112112cac920112c1
:10171000112cf8920112112c7f990112112ccb99e6
:101720000112112c0c9a0112112cb89a0112112cd1
:101730007f9b0112112c239e0112112c8e9f0112ee
:10174000112cfe9f0112112caca20112112c27a307
:101750000112112c6ba30112112cb7a30112112c31
:101760000fa40112112cb0a40112112cfaa4011221
:10177000112c55a50112112c5fa50112112c96a652
:101780000112112c4da70112112cd3a70112112cfb
:101790002ea80112112ceea80112112c8fa90112f2
:1017a000112c19ab0112112c3aab0112112c74ad92
:1017b0000112112ca6ae0112112c4aaf0112112cec
:1017c000beaf0112112c97b00112112c9ab1011267
:1017d000112c92b20112112ca3b20112112cadb234
:1017e0000112112caab40112112c05b50112112cf1
:1017f00034b50112112c9bb50112112ccab501127e
:10180000112c5db60112112cf1b60112112c52b738
:101810000112112cc8b70112112cfeb70112112ca4
:1018200033b80112112c52b80112112cabb80112ad
:10183000112cc5b80112112cf2b80112112c00b9eb
:101840000112112c29b90112112c98b90112112c75
:1018500033900312112cef900312112c11910312eb
:10186000112c5c910312112c9f910312112c4e9696
:101870000312112ceba00212112c17a10212112c31
:101880006ca10212112ccca10212112c54a2021232
:10189000112c19a30212112c34a40212112c2ea601
:1018a0000212112c16aa0212112c25ac0212112cb4
:1018b00021af0212112c65af0212112c59b0021285
:1018c000112c5eb10212112cbeb20212112c33b3d4
:1018d0000212112c56b30212112c79b40212112cdf
:1018e000b3b40212112c00800312112c2c800312ad
:1018f000112c43800312112c47800312112ce1801c
:101900000312112cd1820312112c00800212112c0f
:1019100076800212112c93800212112cc0800212c8
:10192000112cec800212112c20810212112c6781e3
:101930000212112c96810212112cf9810212112c23
:1019400056820212112c24830212112c9e83021241
:10195000112c3f850212112cf7850212112c8a8856
:101960000212112c018c0212112c458c0212112c26
:101970009e8c0212112c548d0212112c258f0212f2
:10198000112cb58f0212112cf68f0212112c4c90d3
:101990000212112cc7900212112cec900212112c81
:1019a0003f910212112c80910212112cfb92021213
:1019b000112c1c940212112c2d940212112ca99599
:1019c0000212112cbf950212112ce7950212112c54
:1019d0009e960212112cb3960212112ce596021259
:1019e000112ceb970212112c7d980212112cb39836
:1019f0000212112cfb980212112cef990212112cd9
:101a00004a9a0212112c319b0212112ca49b021231
:101a1000112ce89b0212112cff9c0212112cdf9f4b
:101a20000212112c0fa00212112c71a00212112c03
:101a3000daa00212112cf1910312112cfe91031263
:101a4000112c21920312112c64930312112c719307
:101a50000312112c9f930312112ce27a0012112c05
:101a6000297b0012112c457b0012112c107c0012d6
:101a7000112cb67d0012112c147e0012112c627fe5
:101a80000012112ccb7f0012112c3c950312112c4b
:101a90006a950312112c94950312112c3a860312a5
:101aa000112cc3860312112cf5860312112c6587a5
:101ab0000312112c07880312112c2f880312112cea
:101ac000b9ff0212112cc5ff0212112c585000123e
:101ad000112cae500012112c7a510012112c9a5375
:101ae0000012112c34550012112cfa550012112c31
:101af000fe560012112c7c570012112ce9570012cf
:101b0000112c9f580012112c075b0012112c875bbf
:101b10000012112ce45b0012112cc05c0012112c7d
:101b20006a5d0012112c675e0012112c5e5f0012bc
:101b3000112c2a640012112c56660012112c2169f6
:101b40000012112ca56b0012112c856e0012112ca5
:101b50006e700012112cfc720012112c51770012c1
:101b6000112c84780012112c6a790012112ce07962
:101b70000012112c347a0012112c577a0012112cf9
:101b8000558e0312112cd38e0312112ce98e0312e1
:101b9000112cff8e0312112c158f0312112c368f6e
:101ba0000312112c4c8f0312112c628f0312112c73
:101bb0009bcf0212112c2bd00212112caed002128c
:101bc000112cd4d00212112ca0d10212112c56d2f9
:101bd0000212112c96d20212112c1cd30212112cbb
:101be0008ed30212112cf0d30212112c6dd40212da
:101bf000112c80d40212112c94d40212112cc9d4ad
:101c00000212112cfbd40212112c2dd50212112c10
:101c100073d50212112cb3d50212112c07d6021261
:101c2000112c16d60212112c1fd60212112cb2d66c
:101c30000212112ce9d70212112c88c60212112ca3
:101c400097c60212112c88c70212112ca2c70212c9
:101c5000112c49c90212112cfec90212112c67ca9b
:101c60000212112c8cca0212112cafca0212112cb2
:101c700007cb0212112c52cb0212112c9ccb021258
:101c8000112ce5cb0212112c44cc0212112c6acc7f
:101c90000212112c8acc0212112caccc0212112c83
:101ca000d6cc0212112c2ecd0212112c87cd02128d
:101cb000112cd4cd0212112c1cce0212112c3cceb0
:101cc0000212112c4fce0212112c5fce0212112cd7
:101cd00071ce0212112c7fce0212112c8dce021267
:101ce000112c9dce0212112cadce0212112c16cf4a
:101cf0000212112c42cf0212112c4ccf0212112cc5
:101d000055cf0212112c67cf0212112c728c0312c4
:101d1000112c9f8c0312112ce4b40212112c08b563
:101d20000212112c1db50212112cbbb50212112c7e
:101d30001ab60212112c73b60212112c88b60212b6
:101d4000112cd3b60212112c6ac30212112cecc34f
:101d50000212112c88c50212112c10c60212112c6d
:101d6000858a0312112ce78a0312112c0b8b0312a4
:101d7000112c5a8b0312112cae8b0312112c4f8c89
:101d80000312112c688c0312112c0bd80212112c87
:101d900028d80212112c38d90212112c97d902120c
:101da000112c3fda0212112cbedb0212112c6adc5c
:101db0000212112cb8dc0212112c1ddd0212112ca2
:101dc00083dd0212112cd5dd0212112c61de02120c
:101dd000112cdcde0212112cb5df0212112c0fe8df
:101de0000212112c63ea0212112c97ea0212112c32
:101df0000deb0212112c57eb0212112c89eb02127f
:101e0000112cb4eb0212112ce3eb0212112c17ec83
:101e10000212112c3fec0212112c7cec0212112c3c
:101e20009eec0212112c53ed0212112ca7ed02129e
:101e3000112cc2ed0212112c80880312112ce7889c
:101e40000312112c47890312112c49890312112cfa
:101e50005f890312112c038a0312112ca29403121e
:101e6000112cc0940312112c83ef0212112c65f077
:101e70000212112c4cf10212112c54f10212112ced
:101e80005cf10212112cb5f10212112c57f2021260
:101e9000112c54f30212112c87f30212112c64f44a
:101ea0000212112cc2f40212112ca3100012112cd8
:101eb000be960312112c89970312112c0b9803e084
:101ec00066701008a3e066700a08a3e06670040854
:101ed000a3e06622c3e7960809e7960809e7960893
:101ee00009e796a2d265d03322c3e09608a3e09614
:101ef00008a3e09608a3e096a2d265d03322c021c1
:101f0000c3e096f52108a3e096422108a3e096429b
:101f10002108a3e0964221a2d265d033e5217001c9
:101f2000d3d02122c3e7960809e7960809e7960867
:101f300009e79622c3e09608a3e09608a3e0960876
:101f4000a3e09622c021c3e096f52108a3e09642c3
:101f50002108a3e096422108a3e09645217001d311
:101f6000d02122bb0102e722c0925392fec082c060
:101f70008389828a83bb0003e08002e493d083d00c
:101f800082d09222bb0015c0925392fec082c083c1
:101f90008a838982f0d083d082d09222bb0101f75c
:101fa00022080808eac0e0ebc0e086f0e7a4fa18cf
:101fb0000986f0e7a42afa180986f0e7a42afa1895
:101fc0000986f0e7a42afa1986f0e7a4fbe5f02acf
:101fd000fa190886f0e7a42bfbe5f03afa1908860f
:101fe000f0e7a42bfbe5f03afa18180986f0e7a40d
:101ff000c5f02bfbe43afa1908e7c5f0c6a426f6ab
:10200000e5f03bfbe43afa1886f0e7a4f6e5f008c1
:1020100026f6e43b08f6e43a08f6d0e0fbd0e0fa16
:1020200022e4cfc0e0e4cec0e0e4cdc0e0e4ccc028
:10203000e075f020e626f608e633f608e633f60803
:10204000e633f6181818ec33fced33fdee33feeff3
:1020500033ffc3ec9709ed9709ee9709ef9719192c
:1020600019400fffec97fc09ed97fd09ee97fe195b
:102070001906d5f0bfecf709edf709eef709eff710
:10208000191919d0e0fcd0e0fdd0e0fed0e0ff222d
:102090001220f81818181220211220e719191922f5
:1020a0001220e7191919080808e618181820e7e09f
:1020b0001220211220f818181822090909e7191905
:1020c0001920e7dc080808e618181820e7030220a2
:1020d000211220f81818181220211220f8181818a8
:1020e0001220e719191922e4c397f709e497f709b1
:1020f000e497f709e497f722e4c396f608e496f626
:1021000008e496f608e496f6226017080808c6a2c6
:10211000e713c618c613c618c613c618c613c6d505
:10212000e0e9226016080808c6c313c618c613c61d
:1021300018c613c618c613c6d5e0ea2270090808e7
:1021400008226016181818c6c333c608c633c60856
:10215000c633c608c633c6d5e0ea22e627f6080924
:10216000e637f60809e637f60809e637f622e026ec
:10217000f608a3e036f608a3e036f608a3e036f644
:1021800022e026f008a3e036f008a3e036f008a32a
:10219000e036f022c3e697f60809e697f60809e666
:1021a00097f60809e697f622c3e0c696f608a3e07c
:1021b000c696f608a3e0c696f608a3e0c696f622f1
:1021c000e056f608a3e056f608a3e056f608a3e0aa
:1021d00056f622e647f60809e647f60809e647f606
:1021e0000809e647f622e046f608a3e046f608a30b
:1021f000e046f608a3e046f622e066f608a3e066ad
:10220000f608a3e066f608a3e066f622e0f608a367
:10221000e0f608a3e0f608a3e0f622e6f008a3e65d
:10222000f008a3e6f008a3e6f022e0faa3e0fba39f
:10223000e0fca3e0fd22eaf0a3ebf0a3ecf0a3edb9
:10224000f022e0fca3e0fda3e0fea3e0ff22ecf01f
:10225000a3edf0a3eef0a3eff022e0f8a3e0f9a3e2
:10226000e0faa3e0fb22e8f0a3e9f0a3eaf0a3eb95
:10227000f022cac0e0e6f0a308dafad0e0fa22caf7
:10228000c0e0e0a30592f0a30592daf6d0e0ca22fe
:102290005392fefae9fb7921e7f0a309dafae8f0b4
:1022a000a3ebf9f0a3ecf0a3edf0a3eef0a3eff0b5
:1022b000a3e520f0a3e5f0f0a3e592f0a3e584f018
:1022c000a3e585f0a3e581f0a3e531f0a3e532f0c5
:1022d000a3e533f0a3d0e0fad0e0f0a3caf0eac05f
:1022e000e0e0c0e07a007b00225392fecac0e0eb3f
:1022f000c0e07921e0f7a309dafae0f8a3e0f9a356
:10230000e0fca3e0fda3e0fea3e0ffa3e0f520a333
:10231000e0f5f0a3e0c0e0a3e0f584a3e0f585a339
:10232000d0e0f592d0e0fbd0e0fae0f581a3e0f553
:1023300031a3e0f532a3e0f533a3d0e0d0e0e0c074
:10234000e0a3e0c0e0ea4b70027a0122b90010bbc2
:102350000008e88af084f8aaf022e4fbc8fa22eb2d
:1023600070227b10c833c8c933c9335007c39ac31e
:10237000dbf280069a50012adbeac833f4c8c9337d
:10238000f4c9fa2275f008e4c833c8c933c933c99f
:102390009ac99b5004c92ac93bd5f0ecfbc833f459
:1023a000c8e4c9fa22600d08c6a2e713c618c6130e
:1023b000c6d5e0f322600c08c6c313c618c613c600
:1023c000d5e0f422700422600d18c6c333c608c6d7
:1023d00033c6d5e0f41822253210af08f532400c90
:1023e00015338008f53240021533d2af2200c0d039
:1023f000253210af08f532500c05338008f5325005
:10240000020533d2afd0d0222532f58210af08f5c5
:1024100032400c15338008f53240021533d2af85b7
:10242000338322c5822532c582c583353310af0779
:10243000f5338582328007f533858232d2afc5838a
:10244000222532f582e43533f583222532f584e402
:102450003533f585222532f8e43533f9222532fa71
:10246000e43533fb222532fce43533fd22e473539b
:1024700092fe2532c582c0e0e53334ffc583c0e05b
:10248000e532c3958224f810af0885833385823204
:102490008008858333858232d2afcef0a3e520f069
:1024a000a37821e608f0a3defaeff0a3e58124fa91
:1024b000f8e608f0a3e608f0a3e608f0a30808e6ab
:1024c00008f0a3e608f0a315811581d0e0fed0e066
:1024d000f8158115811581e8c0e0eec0e022539225
:1024e000fe2532c582c0e0e53334ffc583c0e0e598
:1024f00032c3958224f910af0885833385823280f8
:1025000008858333858232d2afcef0a3e520f0a3d5
:102510007821e608f0a3defaeff0a3e58124fbf8ca
:10252000e608f0a3e608f0a30808e608f0a3e6082a
:10253000f0a315811581d0e0fed0e0f8158115815a
:10254000e8c0e0eec0e0225392fe853383853282fc
:10255000e0a3fee0a3f5207821e0a3f608dffae08f
:10256000a3ffe0a3c0e0e0a3c0e0e0a3c0e0e0a3dd
:10257000c0e0e0a3c0e010af0885823285833380dd
:1025800008858232858333d2afd083d0825392fec6
:102590000211295392fe853383853282e0a3fee047
:1025a000a3f5207821e0a3f608dffae0a3ffe0a37b
:1025b000c0e0e0a3c0e0e0a3c0e0e0a3c0e010af53
:1025c000088582328583338008858232858333d2c1
:1025d000afd083d0825392fe22c0925392fec0d0dd
:1025e0002532c582c0e0e53334ffc583c0e0e53263
:1025f000c3958224f210af08858333858232800828
:10260000858333858232d2afc8f0a3e9f0a3eaf024
:10261000a3ebf0a37921e709f0a3d8faecf0a3ed3e
:10262000f0a3eef0a3eff0a3d0e0f0a3d0e0f0a38e
:10263000d0e0f0a3e520f0a3e5f0f0a3d0e0f02295
:102640005392fe853383853282e0c0e0a3e0f9a394
:10265000e0faa3e0fba37821e0f608a3dffae0fcb0
:10266000a3e0fda3e0fea3e0ffa3e0c0e0a3e0c081
:10267000e0a3e0f5d0a3e0f520a3e0a3f5f0e0a30c
:10268000c0e010af088583338582328008858333ac
:10269000858232d2afd0e0d082d083f592d0e0f8fc
:1026a000d0e032e584f0a3e585f022e0a3f584e0f4
:1026b000f5852274048006740280027401c0e0f47f
:1026c00004122408d0e0122272227404800a7403d7
:1026d0008006740280027401c0e0f404122408d061
:1026e000e012227f22d083d082e9c0e0e493a3c32a
:1026f00086f0c5f095f0f908e493a386f0c5f0954f
:10270000f0700be493a3c3994005e9048002a3e4ad
:1027100075f002a42582f582e5f03583f583d0e0db
:10272000f9e493a3c0e0e493c0e022ffc0e0c0d08e
:1027300075d008c092c082c083c0f0759800e5a82b
:10274000f8c2af5392fe9004e8e0d2e1f075340095
:10275000e8a2e7e433fee8a2e792af12130dd0f04f
:10276000d083d082d092d0d0d0e032c082c0835308
:1027700092fe9004b0e4f0a3f0a3f0a3f0d083d0d5
:10278000822274f71224de7900121a3390046e123a
:102790002deb12399beac398f8eb99f99003ff12dd
:1027a000352ac3e89ce99d402c9003fd12352a9000
:1027b0000401e02af8a3e03bf9e8c39cf8e99df99d
:1027c0009003f212310ba3ecf0a3edf09003ffecb9
:1027d000f0a3ed80239003f2122c959003ff122dad
:1027e000f69003ff12399b9003f412310b9003fb18
:1027f000e070047402800114f07af07b031239aea9
:10280000800ff08532828533831226ab7402122347
:10281000ed7f0202259374f71224dee9fe9003fc9b
:10282000e0f8ee600924fe601d14601a8032900307
:10283000f9e0a2e35009e860279003fc148020c26d
:10284000e2f0d2e380199003f9e0a2e2500c7408a0
:1028500068600d9003fce0048005c2e3f0d2e2f072
:102860009003fae070089003f874fff080499060dc
:102870000a122a2149703d90618fe0c0e09003fc6c
:10288000e0f87408c398f8d0e0b800028004c313dd
:10289000d8fcf52174ff6521700990600ae4f0a36b
:1028a000048010e5212401f8e43400f990600ae87e
:1028b000f0a3e9f012278202281174f71224dee94e
:1028c000fe24fc600624fe602d80109004cae064a3
:1028d00001702312173fe9701d805890041de064b9
:1028e000017013900417e4f0ee700b7b091231fcb9
:1028f000fa7900123d8d900417e070089004157469
:10290000fff0802f90618fe0ff7900121a338b2245
:10291000a922900419e02af8a3e039f9740f5ffaac
:10292000e82af8e439f990040f12310b7a0d7b0490
:102930001239ae02281174f71224de74fe12240834
:102940001226a3900467122a212412fae439fb907c
:10295000605ce060088a828b83e0d2e1f0e824309a
:10296000fce439fde82432f584e439f58590605ab9
:10297000e0700690605ee0603a8a828b83e0a2e1bc
:10298000401dd2e1f0e82422f582e439f583122ccf
:102990008b1223c48c828d83e521f0a3e522f0e421
:1029a0000592f0a3f079008532828533835392fe3d
:1029b000022809e8241ef582e439f583123992854c
:1029c0008482858583e02ef0a3e03ff08c828d83a6
:1029d0000592e0fca3e0fdc30592e09ca3e09d50be
:1029e000c488828983a3a3a3a3a3a3a3a3a385824b
:1029f000848583858a828b83e0a2e15004740880f9
:102a000002743e0592f07b02888289830592a3a31b
:102a1000a3a3a3a3a3a3e0fa7900123d8d790180bb
:102a20008612399fe82274f51224de74fe122408ff
:102a30001226a31230d8f584e43ff5850592e0fc18
:102a40007003022c86ee242ef582e43ff583059276
:102a500012399b8e828f83a3a3a3a3a3a3a3a385d1
:102a600082238583248e828f83a3a3a3a3a3a3a3fe
:102a7000a3a3aa82ab83ee24341230f6687003a3ba
:102a8000e069702d74026c7003022c1f74016c706d
:102a900003022b1f740c6c7003022c86740d6c7077
:102aa00003022c8674096c60258a828b83742280d1
:102ab00059ec14606a147003022c1f24fa601c1471
:102ac000600c146046147003022c62022c86906025
:102ad00008e0a2e65003022c868030ee2439f5820d
:102ae000e43ff583801388828983a3a3a3e0640372
:102af0007003022c8688828983122a214970e78a12
:102b0000828b83e0641370037416f07b028523824a
:102b1000852483e0fa7900123d8d7901022c88ee3c
:102b20002455123433ee244cfce43ffdea24fff537
:102b300021eb34fff522e521687003e52269707509
:102b4000ee244d122d168e828f83122c938c828d43
:102b500083e025e0f8e433f9e82403f85001098e16
:102b6000828f83a3a3a3a312310c900498e0a2e068
:102b700050098e828f83a3a31231079004b9e4f029
:102b8000a3f0a3f0a37402f0900498e0a2e0400345
:102b9000022c86906062e4f08c828d83e0f875f000
:102ba000e2a4c8aaf075f004a42af9e81230cd1204
:102bb000310b022c86ea687002eb696003022c86f6
:102bc00075210975220078211226b7ee241bfae43c
:102bd0003ffb121eb374021223ed900498e0a2e0b2
:102be0005007eefaeffb12343fe40592f0ee242298
:102bf000f582e43ff5830592122c8b1223c4ee2458
:102c000030f582e43ff583e521f0a3e522f0ee24e0
:102c100032f582e43ff583e4f0a3f07b08805ae8c4
:102c2000240108500109ee245c1230f6687003a3f9
:102c3000e069705275210575220078211226b7eee1
:102c40002457fce43ffdee2424fae43ffb121eb3bc
:102c500074021223edeefaeffb121739e40592f03d
:102c60008024eefaeffb121313e40592f005929024
:102c70000498e0a2e0500f7b07852382852483e03f
:102c8000fa7900123d8d790002320e122e22740361
:102c9000782122a3a3e028f0a3e039f02274f812ef
:102ca00024de74fe1224081226a3900467123c80ce
:102cb000122a26e97050122936e9704ae584242e3a
:102cc000f582e43585f583e02401f0a3e03400f0db
:102cd000906008e0c0e0e5842436f582e43585f5af
:102ce00083d0e0f0e584241ef582e43585122d1aa8
:102cf0000592a3a3e028f0a3e039f00592900467c1
:102d00001234391239ae8532828533831226ab7480
:102d1000021223ed803ff582e43ff583122d20223d
:102d2000e0f8a3e0f9e828f8e933f92212376ef564
:102d300082e43ff5831237561217c9ee241ef5823e
:102d4000e43ff5831230e424fcf8e934fff98e8285
:102d50008f831231077f0102259374f71224de74ea
:102d6000fe1224081226a39004d71239a89004d783
:102d7000122debac82ad839004bec8241ef584e412
:102d800038f5850592e0f8a3e0f9e828f8e933f989
:102d900090049ae0f521a3e0f522122e0c0592e0b2
:102da00028f8a3e039f98c828d8312310b9004b995
:102db000122dff8c828d83122df69004bb122dfff5
:102dc0007a207b4e12234c882189228c828d83e0cd
:102dd0009521f0a3e09522f09004c0122dffe82881
:102de000f8e933f9e81230c5022802e0f8a3e0f56b
:102df000838882a3a322c3e098f0a3e099f0221273
:102e0000399f90049a122e22122e0c22e88521f06e
:102e1000a4c8aaf08522f0a42afa8521f0e9a42a00
:102e2000f922e0f521a3e0f5222274f31224de74e6
:102e3000fe1224081226a31230d8f523e43ff5240d
:102e4000852382f583e0640c7011906008e05403e0
:102e50006009852382852483740df0ee2412f584a5
:102e6000e43ff5850592e0a2e35008c2e3f0059245
:102e70000230a98e828f830592a3a3858221858348
:102e800022906062e0600e7910121a3385218285eb
:102e900022831239a8122a26e960030230b21229cd
:102ea00036e960030230b2906008e0c0e0ee2436fc
:102eb000f582e43ff583d0e0f09061d5e0f89061d1
:102ec000d7e06805926005e0d2e28003e0c2e2f05c
:102ed00005929004bb123439906062e06016ea24d7
:102ee000c0faeb3437fb123d629004c01230e4129a
:102ef00030c58012123d4c9004c0122d1c906064ad
:102f0000e028f0a3e0391230fe24fff0a3e034ff04
:102f1000f0ee242b1230f69004bdf0ee2420123493
:102f200033ee242ef525e43ff526ee245cf584e40b
:102f30003ff585ea4b7003022fe790049ce0f8858b
:102f40002382852483e0fc702b1230e96003022f7a
:102f5000e7ee24391230ec6003022fe7e8a2e050dc
:102f600003022fe7ea2401f8e43bf990049ae8f021
:102f7000a3e9805d740d6c706e1230e97069ee2407
:102f8000391230ec7061e8a2e0405c85848285856e
:102f9000838525848526850592e0f8a3e0f90592ce
:102fa000e0c398f8a3e099f9e824ff18e934fff9a1
:102fb000ea24010a50010bc398eb9990049a500639
:102fc000eaf0a3eb800b12310b85238285248374f6
:102fd000021230fef8a3e0f99004be12310beefab3
:102fe000effb122d5a805a90049a7401f0a3e4f07a
:102ff000ee241e122d16852182852283122c959097
:1030000004b912399b852182852283122df68523ee
:1030100082852483e0640c7028852582852683e0e0
:103020002402f8a3e03400f90592e0faa3e0fbc320
:10303000e89ae99b400b85238285248374020592dc
:10304000f08e828f835392fea3a3a3a3a3a38582b2
:103050008485838590606412399b7a717b02122388
:103060004c8922e82405f8e43522f9858482858597
:103070008312310b8e828f83a3a3a3a312343985cd
:103080008482858583e0f8c3ea98eb99a2d265d063
:10309000335007ea0592f0a3ebf05392fe123998f1
:1030a000852582852683122c959004671234391267
:1030b00039ae8532828533831226ab74021223ed3a
:1030c0007f060225931230cde8f0a3e92224eaf826
:1030d000e93402f990606422900467e0fea3e0ff07
:1030e000ee240a22122d20e822ee24321230f6fcc1
:1030f000a3e0fdec4d22f582e43ff583e022f0856c
:103100002182852283e022a3a3a3a3e8f0a3e9f010
:103110002274f51224de74fe1224081226a38031d4
:10312000c2e51231f7c0e09004c8e01231dcd0e013
:10313000f09004c8e004f0a3e004f0a3e004f090f1
:1031400004cce0700c7401f07b007a007900123d31
:103150008d90605ae0f521906002e0a2e050047882
:1031600000800590605de0f89004c9e0fae5212850
:10317000f8e43400f9e86a7001e960589004c8e0a6
:10318000f52374012523547ff521e5231231dce07a
:10319000f808089004c8e028f074802521f582e43e
:1031a0003460f5830592900467e0f8a3e0c8240832
:1031b000f584e438f585e0a2e70592e040030231aa
:1031c00020d2e5f01231ee24db1231f7fa1231eea3
:1031d0004a023130853282853383803b1231e022ce
:1031e000547ff8748028f582e43460f583229004db
:1031f000c8e01231e0e022f01231fc22900467e0d6
:10320000f8a3e0c82408f582e438f583e02285328b
:10321000828533835392fe1226ab74021223ed7f14
:103220000402259374f51224de74fe12240812267b
:10323000a389210592900467e0f582a3e0f58385d8
:103240008284858385a3a3a3a3a3a3a3a3e0a2e76a
:1032500040469004cbe0f8906054e0c398f522908b
:1032600004cbe02522f0ae82af838011ee2439fa40
:10327000e43ffb121649ea4b6003121865852223ce
:1032800074ff2523f5220470e3e521a2e6400979c5
:1032900000eefaeffb1217c902320ec0e074f11211
:1032a00025d98535c675a70075a1007950121a5128
:1032b0007f01022640c0d075d01875bf00d0d03233
:1032c000c0e0c0d075d018c092c082c083c0f08565
:1032d00035c6e591fe759b00f4f5915392fe906022
:1032e00002e0a2e050047800800278087900e84407
:1032f000015e6003123111eea2e55004f91232248e
:10330000eea2e75029e5a8f8c2af9004e8e0d2e0c9
:10331000f0753400e8a2e7e433f9e8a2e792afe5fc
:1033200094a2e24009759403e594a2e250faeea259
:10333000e64003023400906061e0f99004c9e4f0d3
:103340009004cbf09004671234398a828b83a3a354
:10335000a3a3a3a3a3a3e02410601224fc60092468
:10336000fc700f12281680661228ba806112167936
:10337000805c900497e06005146014802390606086
:10338000e06480601be0c0e012341dd0e08010904b
:103390006058e0f890605ce028f812341de028f0f6
:1033a000906060e064806016e0c0e0900467e0f840
:1033b000a3e0c82413f582e438f583d0e0f090044c
:1033c00098e0a2e05005122e2a8003122c9d9060f6
:1033d00059e0f89004b0e028f0906058e0f89004cc
:1033e000b1e028f090605a12341490605e123414e8
:1033f00090605ce0f89004b3e028f012165b800463
:10340000a2e75003123ad6d0f0d083d082d092d027
:10341000d0d0e032e0f89004b2e028f022ea242c88
:10342000f582e43bf583e0fa74722af582e4340411
:10343000f58322f582e43ff583e0faa3e0fb22c0a6
:1034400082c0835392fe9004bbe4f0a3f09004b9d1
:10345000f0a3f012167f9004c0eaf0a3eb02277ce1
:1034600074f71224de74fe1224081226a3123527e4
:10347000123998ec2429f582e43df583ec242bfaeb
:10348000e43dfb8a848b85740168497012e0f8057d
:1034900092e028fac39425402974db2afa8023e0bd
:1034a000f521e88521f0a4f8aaf08521f0e9a42a05
:1034b000f90592e0fae82af8e439f97a257b001256
:1034c000234ceaf0ea131313541ff8ec28f8e43df8
:1034d000f9e82424f582e439f5830592e0c0e0742c
:1034e000075af8d0e0b800028004c313d8fca2e069
:1034f00040288005e8cac39afaec24e5f582e43d49
:10350000f583e0f8eac39850ebec2af8e43df9e8db
:1035100024c0f582e439f583e0faec242cf582e44a
:103520003df583ea022802900467e0fca3e0fd2257
:1035300074f61224de74fe1224081226a390041ed0
:10354000e09060026004740e8002740ff090041822
:10355000e0906001f090097412225a906195122255
:10356000661217d590041de0f521740165219004c1
:10357000167040e05402f97a1f7b0412169d9004e5
:1035800016e0a2e050097aa47b0475214080077af6
:103590009e7b04752100a2e150047e8080027e00a3
:1035a00075230678231226bb7c1f7d04e5214e443b
:1035b000018068e0a2e050087aa47b04784080068d
:1035c0007a9e7b04780005929004441226d67c25ce
:1035d0007d0474782521f582e43409f5830592e0b1
:1035e00048f91216a374011223ed90041de0f8604f
:1035f00005740268702e900416e0a2e050087aa4c8
:103600007b04784080067a9e7b04780005929004c3
:10361000641226d67c457d04e84404f91216a3748e
:10362000011223ed900416e0a2e0e433f91216979c
:1036300075910090041ee0906182600474c880025d
:1036400074c0f08532828533831226ab7402122354
:10365000ed7f03022593c082c0835392fe906002e7
:10366000740ff09003fbe004f064037002e4f0e0f8
:103670002425906000f090097412225a90619512ee
:1036800022669003f9e05420f91216971217d5908c
:1036900003f9e0a2e15004d2f08002c2f0a2f0e40b
:1036a0003390600cf09003f9e0a2e1503c75d90d25
:1036b000a2e55004784080027800e84403f5d9e0a0
:1036c000a2e550067aa47b0480047a9e7b047906e6
:1036d000121661740675d9001470fae5e170fc7574
:1036e000e1959003ef740380049003efe4f075918b
:1036f0000090618274c102277c74f81224de74fe8b
:103700001224081226a31237b11217d51237a712a6
:10371000225a9061951222661237c0123460123715
:103720006ef584e43ff5858584828585831237565e
:103730001217c9123acce0a2e250180592e0f8a3a1
:10374000e0f58388820592a3a3e02402f89061d576
:10375000e028f0022d0612399fee2437f582e43f6f
:10376000f583e8f0a3e9f07900eefaeffb22ee240e
:103770002c1230f6906000f07591009004d6e09025
:103780006182f0ee24392274f81224de1237b1126d
:1037900017d51237a712225a906195122266123756
:1037a000c0123460022d2cee2414f582e43ff58320
:1037b00022900467e0fea3e0ff906002740ff02205
:1037c000ee24361230f6906008f0ee24181230f62f
:1037d000906005f0ee24191230f6906006f0ee24a9
:1037e0001a1230f6906007f02274f81224de1237b5
:1037f000b11217d51237a712225a9061951222667c
:103800001237c0022d2c74f11224de74fe1224082b
:103810001226a37521007522007c6e7d04801f880e
:103820008289831239928c828d83eef0a3eff08827
:10383000828983e521f0a3e522f0882189228c8208
:103840008d83123992ee4f70378c828d831239a896
:103850008a828b83e4f0a3f0aa21ab228532828591
:1038600033831226ab74021223ed7f08022593e501
:10387000232527f8e5243528f98a828b83122c9397
:10388000eef8eff988828983a3a38a848b85059259
:10389000a3a3e0f523a3e0f5240592e0c39523f567
:1038a00023a3e09524f5248a828b83a3a3a3a3a357
:1038b000a3e0f525a3e0f526c3e5239525e52495aa
:1038c00026a2d265d033403e8a828b8312310b8a86
:1038d000828b83a3a3a3a385828485838512399bce
:1038e000c3e52398e52499a2d265d033500d858491
:1038f00082858583e523f0a3e524f08c828d83ea1d
:10390000f0a3eb02385788828983a3a3a3a3a3a3c0
:10391000e0f527a3e0f528c3e49527f525e49528ed
:10392000f526c3e5259523e5269524a2d265d03357
:1039300050288a828b83a3a3a3a3a3a3a3a3e0a25b
:10394000e7500302386f88828983a3a3a3a3a3a3ac
:10395000a3a3e0a2e7500302381f88828983a3a3b0
:10396000a3a3858284858385c3e49523fce4952401
:10397000fd123992c3ec9eed9fa2d265d033500b5d
:10398000858482858583ecf0a3edf0e8fce9fd02f7
:10399000383ee0fea3e0ff2290049a12399f22e015
:1039a000f8a3e0f9229003f2eaf0a3ebf02274f717
:1039b0001224de74fe1224081226a3ea4b6031a200
:1039c000afe433fec2af1238068a828b838016aa18
:1039d00082ab838582848583850592e0f582a3e0ae
:1039e000f583123806e582458370e4eea2e092afdb
:1039f00002280374f31224de74fe1224081226a394
:103a0000eaf8ebf9e8497003023ab5a2afe433f5fe
:103a100023c2af90046e123cae6015a2e75011882d
:103a2000828983a3a3a3a3a3a3a3a3e0a2e7407fc8
:103a3000123527ecfaedfb123c9b123ac38a828bbb
:103a400083a3a3e0c39521f525a3e09522f526c322
:103a5000ee9525ef9526a2d265d03350528584820b
:103a6000858583a3a3a3a3e0123ac30592a3a3e091
:103a7000f525a3e0f526e521c39525f521e5229559
:103a800026f522c3ee9521ef9522a2d265d03350c0
:103a90001eecfeedff123acc0592e0d2e4f08882f3
:103aa00089831239a890046e12310b79018008e5e0
:103ab00023a2e092af79008532828533835392fe50
:103ac0000230b82406fea3e03400ff22ee2412f5f3
:103ad00082e43ff5832274f51224de74fe1224087a
:103ae0001226a37900121a338a238b247977121aab
:103af000519061b1e4f0e070f87401f0e06401709d
:103b0000f890046e12399b90046712310be84970eb
:103b100012123cc1e594a2e24003023c7a75940083
:103b2000023c7a8882898312343990046e1239a853
:103b3000123c9b2521faa3e03522fbea24fdfeeb93
:103b400034ffff88828983a3a3a3a3a3a3a3a3e035
:103b500054f8601b9003efe0f8c3ee98feef94007a
:103b6000ffc3e5219ee5229f4005e521123c93908d
:103b700060607480f0e521c39523e5229524f9e582
:103b8000232401fae43524fb900467123cae241090
:103b9000604724fc600624fc6007805812353080a2
:103ba0007c90046e123c80e584458560270592a3d5
:103bb000a3a3a3a3a3a3a3e0a2e74018123c8850a9
:103bc000138a218b22c3ea9eeb9f4003123c92058d
:103bd000921239a51236568044123c8850118a211f
:103be0008b22c3ea9eeb9f4003123c921239a5122e
:103bf00017db8029900498e0a2e050051236f98086
:103c00001ca985e5842412f582e439f583e0a2e459
:103c10005008c2e4f01237e98003123787aa21abbb
:103c2000227930121a45eefaeffb7940121a4579e3
:103c300054121a517900121a338a238b24e521c3b6
:103c40009523f8e5229524f9c3e89401123c8950a4
:103c50000c1217ede5e170fc75e121801d90036801
:103c6000e0a2e04012aa21ab22121a3f9004b51242
:103c70002236123cc180031217ed1219010231d411
:103c8000e0f584a3e0f58522c3e99400a2d265d0d3
:103c90003322ea2401fee43522ff2288828983a3ad
:103ca000a3122e2288828983a3a3a3a3e022123c1d
:103cb00080858482858583a3a3a3a3a3a3a3a3e074
:103cc00022e5a8f8c2af9004e8e0c2e0f075340045
:103cd000e8a2e7a2e792af22853487c2af22c0e014
:103ce000c0d075d018c092c082c083c0f074fc12de
:103cf00023d75392fe9004e9e0601c1216919003c2
:103d000068e054117008e5c654384487f5c690043d
:103d1000e9e4f0c2c78020c2c7aa32ab331217e76a
:103d2000e9640170129004e97401f08532828533f0
:103d30008312222a1218f575340074041223edd070
:103d4000f0d083d082d092d0d0d0e03275c300744e
:103d500020c39afa744e9bfbeaf5a2ebf5a35392ab
:103d6000fe22c02175c301e5a2f521e5a375c300bc
:103d7000f9e5212420f8e9344ef9e8c39af8e99be3
:103d8000f9e8f5a2e9f5a3d0215392fe2274f512c9
:103d900024dee9feeaff8b21753400a2afe433f59f
:103da00022c2af90058ce0f52474012524540ff550
:103db0002390058be0652370057900121ab1e52484
:103dc00075f003a4f8a9f0741928f8740539f9e816
:103dd0002442f582e439f583eef0e82443f582e4e9
:103de00039f583eff0e82444f582e439f583e521e1
:103df000f0e52390058cf0e522a2e092af7f04026b
:103e00002593c082c08374fc1223d7e5a8f8c2af03
:103e1000e5958532828533835392fef0e596c0e0c6
:103e20007401122441d0e0f0e597c0e0740212243e
:103e300041d0e0f0e8a2e7a2e792af740312244178
:103e4000e4f085328285338312222a74041223ed32
:103e5000d083d08222c0e0c0d075d018c092c0827a
:103e6000c083c0f0121c37123e0290062112223687
:103e7000e58955ab900625f0e580900628f0900680
:103e800025e0f4f5899062d0e0f8a2e15027900691
:103e900025e0a2e5501f53abdf9062d0e0a2e0e442
:103ea0003390062bf0900625e0c2e5f07b307a00d7
:103eb0007906123d8d900625e0600e7b007a007930
:103ec00006123d8d7900121c43c2c5d0f0d083d0bc
:103ed00082d092d0d0d0e032c0e0c0d075d008c03f
:103ee00092c082c083c0f0121c37123e029006219d
:103ef000122236e58a558df8900626f0e590900658
:103f000029f0e8f4f58ae8600e7b017a0079061260
:103f10003d8d7901121c43c2eb80b0c0e074f012f9
:103f200025d99061a9e06017c2afe589f8e5abf942
:103f300075ab00e4f090624bf0888989abd2af900a
:103f40000630e0640f7012e5c7f8900369e0f5c72a
:103f500090ff1ce0f4f5ae88c7e5bbf8e5baf521a3
:103f6000e8fb900630e025e0f8e433f9743128f5f9
:103f700082740639f583e521f0a3ebf0900630e07a
:103f80002410fb7a007906123d8de5a8f8c2af90a7
:103f900004e8e0c2e2f0753400e8a2e7a2e792afdd
:103fa0007f02022640c0e0c0d075d018c092c0f099
:103fb000e5d1f875d100c2c0a2e350097b037a00b5
:103fc0007904123d8dd0f0023ed1c0e0c0d075d052
:103fd00010c092c021c022c082c083c0f05392fea4
:103fe0009007bb1240e5602a900776e0700c7401e0
:103ff000f07b007a007904123d8dee9007bbf0e56e
:10400000c1c0e074bd2521f582e43407f583d0e01a
:10401000800be5c4a2e650069007757401f00240db
:10402000d4c0e0c0d075d010c092c021c022c082e0
:10403000c083c0f0c2e95392fe900778e0fa90077f
:1040400077e09a543ff8602974792af582e43407be
:10405000f583e0f974012a543f900778f089c19004
:1040600007b9e06870197b027a007904123d8d80ef
:104070000ee5a8f8c2af9004e8e0c2e31241538015
:1040800053c0e0c0d075d010c092c021c022c08201
:10409000c083c0f05392fe9008451240e56029901d
:1040a0000800e0700b7401f07b00fa7904123d8d7a
:1040b000ee900845f0e5f9c0e074472521f582e46b
:1040c0003408f583d0e0800be5fba2e650069007ac
:1040d000ff7401f0d0f0d083d082d022d021d092d2
:1040e000d0d0d0e032e0f52174012521543ffea369
:1040f000e06e22c0e0c0d075d010c092c021c022b6
:10410000c082c083c0f0c2ea5392fe900802e0fa77
:10411000900801e09a543ff8602974032af582e47c
:104120003408f583e0f974012a543f900802f089bd
:10413000f9900843e06870197b027a017904123d16
:104140008d800ee5a8f8c2af9004e8e0c2e4124109
:10415000538081f0753400e8a2e7e433f9e8a2e780
:1041600092af22c0e074f01225d9906206e0f89078
:10417000089de048f0906202e0543ff5217522006e
:10418000740478211223c490089de04521f0a3e037
:104190004522f0906204e0543ef521752200740936
:1041a00078211223c490089ee04522f090089de0fb
:1041b00054046007e054fbf0121de790089ee054a1
:1041c000016013e054fef09008ade060097b037ad3
:1041d000007907123d8d121e1790089ee054206052
:1041e0000de054dff07b027a007907123d8d758b6c
:1041f00000c2e87f02022640033f000003000428bb
:104200000d98089007900194011b0195111b08f06f
:104210000939821f0ea4fecd82210622fb38181810
:10422000162118f0ef3818f2ed3828f2eb3868f064
:1042300003392a1fe73f08f00428ba3868f0393cf0
:1042400008f1053c88f1173ca8f10e3ce09f2c1fbb
:104250000128104a291fd63f15d0033827d0093826
:10426000009004289f3f0128154101980128014a28
:1042700025d01f38041f831f0ea4fecd042205384d
:104280001421202807a0083f0628681527d0e939ff
:10429000202807d0f238832178f10238042188f1f0
:1042a000083d0628a14001f004288438042807a00e
:1042b00005284d1528f1163c68f1143d77cf1240c2
:1042c000599202d80f3912d00739699222d0043995
:1042d000799242d004380528ef151e3fc09f04286c
:1042e0006c3f08f1233c88f1203d094028f1103d46
:1042f0004540f7c759f2083d9303131183e1b9f024
:104300000f3c23e00d3f09d8ea38f9c30b3f68f1b1
:10431000033d59f2f23c09d8f9390528bd150528a5
:10432000f01501900128214a051f48f00c3c08f1c6
:104330000a3868f1033c98f106390c960528f915fe
:104340000228843f47a00c960528f315531f052823
:10435000e31507288ced0528ec1501280195711b44
:1043600001280ce40528e515511f88f10b3808f1e8
:10437000073868f109390128214201f00b3947d08b
:1043800009383521063f28f1033838f10339351f44
:10439000341f04280ce047d0033903280ce8052813
:1043a000c815571f28f00638561f811f021f38f006
:1043b000063930215b9005283b15fd3f88f1033d10
:1043c0000428f7150528811547d0133808f10f394f
:1043d0002c470cf00c38c403b4125c110c3e04f0f2
:1043e0000a38c103802801a0411b063f3021043f49
:1043f00007284ced4c1b5b9047d0173827d003287b
:10440000e8390ea4fecd02220d3900220838102111
:10441000002914e00328dd3c4c1bf13f05289e15c4
:10442000ee3f46181221033f0528021588f1303966
:10443000052811150128fb41302100291be00a3d08
:104440000428f61505280715f6c35192166a3b9005
:104450006b080428ed150428fe150bf0fb3917d066
:1044600004382d1f0128c43f0328214701f00839d3
:104470000328314701f00439a2958090033fc2958b
:1044800000920328b615201b54900128b33f08f171
:104490000539052111900128214a38f103390021fd
:1044a000023f302110216a030428c2156b033141f9
:1044b000224128f1093d02f00239f29101f00b3955
:1044c000ff28f191083f02f00239529201f00339be
:1044d000ff28f193f7cb1b06023907a4b20c073d66
:1044e00047d003286e3824900328753f1690b608ed
:1044f0000428b115a6030428ae153be0f7ce28f139
:10450000703c012807a0f090a00668f1323d14909d
:1045100030f0053938f103285e38073f50f00328a2
:104520005a3958f10328573838f104380328ab15a5
:10453000033f0328891503287515012807d003397f
:1045400007a1563f424130f00c3907a112d0033881
:1045500007d84e3887a0c14041d04a38f7ce483fef
:1045600038f1033822d0443807d8423907a1403ff8
:1045700078f1123847d02d3800f0033860f0063952
:10458000c14011d0073887a0113f10f0033820f048
:10459000ab3977cf0b3f00f0033810f0a53941411c
:1045a00081d0043903285015093f03286c1568f1a0
:1045b0000539414141d0023907b810f006390328c6
:1045c0003115012807d0033807d8123907a1103f49
:1045d00040f00228fc390328141507d8f838083fa2
:1045e000a10383403112310511d0023907a14bf0ec
:1045f000063c04281d1504282e15fa3f042818151a
:104600001bf0fd3d38f103380328a115f7cd032831
:10461000214701f005390328314701f0033807a28b
:10462000f7ce224082d00a380603042814150693d8
:1046300076062611960404280e15710341120028ef
:1046400071c021070438e7cf4198043f17d00439df
:1046500051980728214817d00538f2952028009056
:104660001d3f07d20438c2950092183f07d1043885
:10467000d2950094133f07d40438e29500980e3f7a
:10468000809028f10a3d3190a10631f0063903a44b
:10469000b2950228aa1500a1a2950228a615201bf2
:1046a00028f1633d08f10a39012807d007390728a6
:1046b00051411128c14a012807a017d20539e3cf7b
:1046c0008ad0023813a007d20539b3cf4ad00238b6
:1046d00043a083d01e3931031112310521d007398f
:1046e000319907282148002915e0133f52950228e7
:1046f0007c15454003d10d39429502287615281fb7
:1047000021990728214803d20438629502286d15a3
:1047100073cf834808f1093977cf17d0063907d20c
:1047200003390ad1023887a0349007d2073807d856
:1047300003383090543f07a8023ff7c718f15a39a1
:1047400027d04c39314011d0493987d0073917d09b
:10475000453907d203390ad1413805f04b39414078
:1047600001f0483850903b3f68f1153878f13938fe
:10477000149017d03d3907d23d3987d00338349093
:10478000393f07d1373911900128214a4090032839
:104790006e15253f47d01c38249007d30c39119053
:1047a0000128214a87d008385144002911e0043af1
:1047b000514c023877cf17d01b3987d0033834904b
:1047c000193f07d31739c14021d01438073f17d0fc
:1047d0000f3907d303383090023f009044900a3fce
:1047e000249017d0053907d305393490033fa09f93
:1047f00044900221c190511b8121342124f00839b9
:1048000027d004390c9cfd2bae3f10904490b7cfbd
:1048100034f00e3953210328e195711b541f0f28e2
:10482000cc9506282141f1c081111c09143f01904b
:10483000511b0728f19f711b802114f00128863835
:1048400054f0fd2b0a380128ad3f541f032864158e
:104850001028cced03286d1576217821501f0128f2
:10486000a29a217001b2218001b221802ce3032899
:10487000601574210128ace408f1073c88f1033d80
:104880000228971503282115011f0128349d0328ac
:104890005015201f002168f0093d069058f003399b
:1048a0000728364102289315fa3f0728504078f12f
:1048b0000439331f321f0421500000dc01287c38ea
:1048c00028f1103d8340f7cb31031112310521d07f
:1048d000033903d1033900d8103807a41b901a906c
:1048e000163f00d80128683998f107394b70012824
:1048f000e2412b0800288e3f102807a04b701bf0c8
:10490000fc2bed3c4a70224128f1303d02f0023987
:10491000f29112e0b20cfc2be23c419031061111f5
:10492000ff2be29f3204520022111a042a04324063
:10493000002862c018f1033927d00d3922f0093957
:1049400007280141b109002921e0093a0aa1073fde
:1049500042f00339face033f62f0f93818f12539f5
:1049600077cf0ad1223887a0203f02f00239529235
:1049700012e0b20cfc2bb33c68f1123d38f1153853
:1049800087d013390128314201f00f38402807a0a1
:104990000728914231c0c1a00728914a063f02284a
:1049a0000190710621121a04ff2bf29fb2084be00e
:1049b000a60302280c1526030228091568f1293cd4
:1049c000fbf0273c6290467002280115d23704287c
:1049d000609662904670062d0128f915c23778f16d
:1049e0001839d04000d81538dbf0133c829046705f
:1049f0000128ed15d237764400d40338060e023f65
:104a0000060d41700128e315417086120128df155b
:104a10003290b20c053d46700128d915fb3f08f1d4
:104a2000063941721128c14a012807a0ef28f7cfa3
:104a300028f11e3d83403090a0063103111231054c
:104a400021d003398295043f30f004397295002853
:104a5000cc1553c843d0023823a007d4023803a191
:104a600030f0023903a2834892950028be150690c3
:104a70000bf005380128ab15591ffb3f0ea4fecde6
:104a80000122043902286a15fa3f551f1121031f1c
:104a9000249008f10f390ad1033987d024383140e6
:104aa00011d0213905f02139414001f01e385090d4
:104ab0001b3f48f1073828f1033858f1063987d0f1
:104ac000143877cf1490113f78f1053911900128ef
:104ad000214a093f98f10939829500288a15281f33
:104ae0005490033f009044900ea4fecd032204395d
:104af00002283415fa3f13212c1801210321741fb9
:104b0000f1900000f1370190511b0728f19f711bb4
:104b1000802132210728914231c00728914abf28bd
:104b2000f7cf28f1063c88f1043d92955e15281fc9
:104b300044f0383814f00a3854f0fb2b8e38012832
:104b40000ce40128f615fc2b023f0128901500907b
:104b500027d0283902d8083838f124393290012872
:104b60009215e237193f19e089f2043c38f11a39fd
:104b7000599238f103390128861512409103002912
:104b800051e2120e12d0f038012886150128b9150d
:104b90001240012891153199072821482c18fe2b25
:104ba000553f0128104a0028a915fb2b2b3ff09fe9
:104bb000043fd09f023fb09f0028d0152c1ff23f2a
:104bc00028f1053c68f1033d1490053f2090023f19
:104bd0001090449041980728214838f1fe2b0a385c
:104be0000028b515fe2b063f217011e02180020040
:104bf0000128214107282148217811e0218802005d
:104c0000f7c7761571033112a10501d4023907a83f
:104c10000428649631150238f7c70428c4f6fb3c13
:104c20000200fe28f7cf641551417111a10501d88a
:104c30000339012807a064911f150338fe28f7cf18
:104c4000c4f1fb3c0200f7c753155141022807a0ed
:104c50000ad40339fd28f7cf5111a10501d4023937
:104c600007a8c4910428659607150238f7c756317e
:104c700024f2fb3c02000028db150028ec15412d36
:104c8000160c0200f7c73415d032d332234268f134
:104c900009394141904041d0043850000306023f99
:104ca00003033142022807a00ad404395100fd2829
:104cb000f7cf13064492042865960028b9150028fa
:104cc000ca155631ff28e19f4070060c02381306c2
:104cd0008ea0810064e044f5f83c0029f4e2a4f2df
:104ce000ed3c03f0023807a8d32fd02f02009bf031
:104cf000023c020007a12de0020098f109381028bb
:104d000007d0033908f1043831990728214808f100
:104d10000c39012807d00938072851411128c04211
:104d2000010c0338072850491190082807d005388e
:104d30000628b148f728f7cf042807d005380628f9
:104d4000a148fb28f7cf3021291f0200311fff287f
:104d5000f19f411b301f312102000221012103215b
:104d6000532309380628d14001d112384198072829
:104d700021480b3f54230c385021f1910000f137aa
:104d8000741ff1900000f13768f0023c2b1f019076
:104d9000511b81210728f19f711b80210728914217
:104da00031c00728914abf28f7cf322134210200b1
:104db000082807d007390628b14001f00438082830
:104dc00007a0020004280d98fe2bf43f402807d0ce
:104dd0000d390ea4fecd012204390028bf15fa3f7b
:104de000661b112100291be002000728a64a0ea419
:104df000fecd012204390028b115fa3f01283142c5
:104e0000b10941e0053a08384bf00c38ea3d072873
:104e1000a142611be73f0728914271cf0728914ac1
:104e2000f73f0728914281a20728914ada3f0ea452
:104e3000fecd0222043900289115fa3f46181221ae
:104e400000291be01bf00639581f0628e040012806
:104e5000004a020017d00a393122063817a04198bb
:104e600007282148033f0728a6480200124038f1ce
:104e7000093802d807399103002941e2120e120db8
:104e80001248020047a07b280c9c10215215ff2bd2
:104e90005e15b7cf020059f203396391083f69f2fa
:104ea0000339e392043f79f2033943960200042860
:104eb0000d98fa2b143f02d407389103002901e220
:104ec000117006286148020088f10a3c012831412e
:104ed0000728814ab1460328314fa1460f3f0728d2
:104ee000894a28f1063d31440328314f5140053f9e
:104ef000552851950328314f81110328214f020075
:104f0000e3f3033cf190033f23e051920628614a0a
:104f10000628434802007b21772141900000f137a9
:104f2000702175217a218cee0415521f801f02001a
:104f30004c1b001f47d0033827d009390ea4fecde3
:104f4000002203390b15f73f1021020004280d98a9
:104f500038f1fe2b2738fe2b3c3fd23202180119c4
:104f6000210601d41a381218162162f003392a1fbb
:104f70002d3f12f2153822f22838fe2bef1568f07b
:104f8000063c61900128114afe2bb81530212803f8
:104f900004280d98f92b373f01d11438142120280b
:104fa00007d00d3878f1123904231038714401f01c
:104fb00002398144002911e0714c083f202807a0e4
:104fc000053f01d20538152127a0d22f020011d0ac
:104fd0000638102104280d98fd2bf33ff2ce520025
:104fe000121bf43f0306030202030302060203033b
:104ff000010502020100010101010001000003029c
:105000000000050002070700020301010100000380
:105010000202010f00080305050207040608060640
:105020000503040401030602020101090101020152
:105030000102010000000302020105050201010353
:10504000050001000203010000000201010401004b
:10505000000304040203020474f512246feafeeb59
:10506000ff8923e9c394114003752310852321751b
:10507000220078211226b7121eb374021223ed7497
:105080001065236026852382aa827410c39af521b5
:1050900095e0f52278211226b77c007d00ee2afaf1
:1050a000e43ffb121eb974021223ed0255e774f0bf
:1050b00012246f74fe1224081226a38a848b85059d
:1050c00092a38a828b830592e0600624026060804e
:1050d00065900655e4f00592e0f5250592a3f0757c
:1050e0002200240250020522e4c522f521e4f52322
:1050f000f524f526f527f528900a17782512216e54
:10510000900a1b78251221c07408782512213c785a
:105110002179251221d3900a1f78211221e69006c9
:1051200051782112221bea2402f521e43b801e055e
:1051300092e0700280fe5392fe90065574fff0a339
:10514000e41263e912787d7405f0e4f521f5227824
:10515000211226b790065612664d79061268f11292
:10516000246d74021223ed8532828533831226abbf
:1051700074021223ed7f0802254774e812246f742d
:10518000fe1224081226a374fb1223d78a848b856f
:10519000752d00752e0085848285858378211222e5
:1051a0000ce5c7c0e07404122441d0e0f09003691c
:1051b000e0f5c7858482858583a3a3a3a385822f79
:1051c000858330e0fa8584828585838a29e4f52aff
:1051d000f52bf52c782912216e90f7e8125391f5f2
:1051e00028740b782512213c78297925121f245028
:1051f000030253410592a3a3a3a3a3059290f7e44e
:10520000125391740b782512213c782179251221b3
:105210005beafee5215403fc70030252ac740312f6
:10522000244174fff0740212244174fff0740112df
:1052300024411253868c82aa827404125aee5005bd
:105240007404c39cfe8e2575260078251226b7ac03
:1052500084ad857402122441e5822afae43583fb89
:10526000121eb374021223ed7904ac32ad338521e2
:105270002585222685232785242874027825122156
:1052800023aa25ab261214458e25e5842ef584e449
:105290003585f585e4f526f527f528782179251259
:1052a000215b852f82853083e0c39efeeec394048c
:1052b0004031eef9ac84ad858521258522268523f4
:1052c0002785242874027825122123aa25ab2612cb
:1052d00014458e25e52554fcf8e58428f584e4354d
:1052e00085f58574035efc605e740312244174ffcf
:1052f000f0740212244174fff0740112244112531d
:10530000868c2575260078251226b7ac84ad857469
:105310000212245d121eb374021223edac32ad33bf
:105320008e25e4f527f5287821792512215b740272
:105330007821122123aa21ab227404f9121445808a
:1053400006752d80752e017404122441e0f5c79076
:105350000655e52df0a3e52e12664674071270651a
:105360001226b71268e712246d74021223ed740539
:105370001223ed8532828533831226ab7402122309
:10538000ed7f1002254774fff0853282853383f06c
:1053900022e0f525e4f526f5272274e812246f743f
:1053a000fe1224081226a374c01223d78a828b838c
:1053b0008582848583850592a3a3a3a3e0fee5c728
:1053c000ff900369e0f5c790f7e8e0f525e4f526de
:1053d000f527f528740b782512213ceec394414043
:1053e000027e400592782912220c78257929121f15
:1053f0002440030254d5852921852a22852b238523
:105400002c248e2de4f52ef52ff5307821792d12f0
:10541000215b78217925121f245005e529f404fe2b
:1054200090f7e4e0f521e4f522f523f524740b78f8
:105430002112213c7829792112215b852921852a95
:1054400022852b23852c24740f7821122123e5211a
:10545000f5238523c7ac29e52a4480fd8e82858209
:1054600025752600ec2ef521e43df522c3e52595b2
:1054700021e49522500c78251226b7740212245d7f
:105480008049e525c39521f525e49522f526782563
:105490001226b7740212245d121eb374021223ed99
:1054a00074012523f5c778211226b77c007d80c3bf
:1054b000e49521fae49522fb7402122441e5822e40
:1054c000f8e43583f9e82afae93bfb121eb37402cb
:1054d0001223ed80027e008fc7ee900655f0f52571
:1054e000f582ac827d002401125ca8900a23782505
:1054f00012216e7408782512213c78217925122119
:10550000d3900a2778211221e690065178211222a1
:105510001ba832a9338821892278211226b77a5113
:105520007b0679051268f112246d74021223ed7462
:105530004002537074f512246f74fe122408122670
:10554000a3eafeebff7523008e828f83a3e0fb743a
:10555000ff6b601e7c007d007a0479008e828f8351
:10556000e025e01263c31268f612246de97003753a
:1055700023018e828f83a3a3e0fb74ff6b60347cd6
:10558000007d007a0379008e828f83e025e0fee4bf
:1055900033ff746b2ef584740a3ff585059212680b
:1055a000f612246de97004d2f08002c2f0a2f0e499
:1055b000334223e523a2e050067880790180047805
:1055c0000079001255ec740e1270651226b712683d
:1055d000e712246d74021223ed8532828533831223
:1055e00026ab74021223ed7f03022547900655e88f
:1055f000f0a3e912794fe4f0a32274ec12246f7443
:10560000fe1224081226a374c01223d78a848b8525
:10561000858482858583a3a3a3a3e0f8c394405027
:105620000488218003752140e5c7f52285848285a1
:105630008583782512220c740f7825122123e52505
:10564000f5c7852182ae828e237524007823122629
:10565000b7858482858583782512220cac25e526c2
:105660004480fd740212245d121eb374021223edf5
:105670008522c785848285858312225a9006551219
:105680002266ee900659f024051268cae0f529e476
:10569000f52af52bf52c900a2b782912216e900a09
:1056a0001b78291221c07408782912213c782579a9
:1056b000291221d3900a2f78251221e690065178dd
:1056c0002512221ba832a933882389247823122685
:1056d000b7eefc7d007a517b0679091268f112243d
:1056e0006d74021223ed74401223ed8532828533ee
:1056f000831226ab74021223ed7f0c02254774f649
:1057000012246f74fe1224081226a374f91223d7f0
:105710001216b57f007e00ac32ad33740112245de9
:10572000eef9121a21e9601c740112245d8532829f
:10573000853383e0f91216a9e960089006551263d3
:10574000f0800e0f0eeec3940840cc900655e4f0a6
:10575000a3f0efa312770512704b74071270651255
:1057600026b77c007d007a517b0679071268f1121a
:10577000246d74021223ed7407027acc74ec1224a7
:105780006f74fe1224081226a3e9fe8c258d269044
:105790000655eaf0a3ebf0eea3f0f529f582ac8212
:1057a0007d002403125cb0f52af52bf52c900a330a
:1057b000782912216e7408782912213c78217929e0
:1057c0001221d3900a3778211221e69006517821d0
:1057d00012221b78251226b77a517b0679071268a8
:1057e000f112246d74020256e874f612246f74feee
:1057f0001224081226a374fc1223d7ea146006149c
:10580000603b02589a90061de0240260051460096e
:10581000800e9006557484800c900655748a80051d
:1058200090065574851270521226b71268e712243a
:105830006d74021223ed90061de4f0805d7e00aad7
:1058400032ab33eef9121a1be96048ee900655129e
:1058500063ff900656f07401122441e05401900653
:1058600057f07403122441e090065812703274808d
:10587000f0a37404126e09141270651226b77c002e
:105880007d007a517b0679081268f112246d74024a
:105890001223ed0eeec3940840a57404027acc7472
:1058a000f212246f74fe1224081226a38922ebfe42
:1058b000ea600d24fb6029147003025a95025ab164
:1058c00090061de0fa7440125aee40030259f5e0ca
:1058d000f87440c398f5240259f790061d74fef041
:1058e000ee7003025ab190061de0a2e75027eec306
:1058f000944140047f408002eeff7cdd7d05effb9c
:10590000125ac61268f612246de9cec39efe7003c9
:10591000025ab180d9c39404504ce070160592909d
:105920000a3b1226ca7b017a007908121a697404ac
:105930001223ed90061de0f87404c398125af95032
:105940000ae0f87404c398f52180028e21125ae30c
:10595000ab21125ac61268f612246de9cec39efe20
:1059600090061de029f0e0c3940450030258e0e0e3
:10597000640470189005dde060030258daa3e0c308
:10598000943d400890061d74ff0258df90061de00c
:10599000f89005dee02404c398f8c39e50048824e0
:1059a00080028e24e8601e90061d125ae3ab24127a
:1059b0005ac61268f612246de9f8e524687006905c
:1059c000061de029f0e524cec39efe90061de0faf8
:1059d0009005dee0790024045001096a4960030261
:1059e00058e090061de0f97add7b05121b6b9006ee
:1059f0001de40258df8e24e524c39e5003025a9111
:105a000085242575260078251226b774dd2afae448
:105a10003405fb121eb374021223ed90061de0251f
:105a200024f0e0c394045003025ab19005dee0fc78
:105a300090061de0faec2404f8e43400f9ea98e456
:105a400099406e74042cf524f97add7b05121b6bea
:105a5000a82490061de0c398f07c0090061de0f895
:105a6000ecc39850bd8c82a882852425e82525fab0
:105a7000e43400fb74dd2af58274053bf583e0c055
:105a8000e074dd28f582e43405f583d0e0f00c8085
:105a9000ca7900801ee5c7f525900369e0f5c79037
:105aa000ff25e0f974ff6960057a00121c738525f3
:105ab000c779018532828533831226ab74021223a3
:105ac000ed7f060225477a027900e52225e0f525db
:105ad000e433f526746b2525f584740a3526f5859f
