:020000041008E2
:4000000000780408F90208100D00000061030810610308106103081061030810000000000000000000000000000000005D0308105D030810000000005D0308105D0308104C
:400040005D0308105D0308105D0308105D0308105D0308105D0308105D0308105D0308105D0308105D0308105D0308105D0308105D0308105D0308105D0308105D03081000
:400080005D0308105D0308105D0308105D0308105D0308105D0308105D0308105D0308105D0308105D0308105D0308105D0308105D030810C51308105D0308105D03081048
:4000C0005D0308105D0308105D0308105D0308105D0308105D0308105D0308105D0308105D0308105D0308105D0308105D0308105D0308105D0308105D0308105D03081080
:400100005D0308105D0308105D0308105D0308105D0308105D0308105D0308105D0308105D0308105D0308105D0308105D0308105D0308105D0308105D0308105D0308103F
:400140005D0308105D0308105D0308105D0308105D0308105D0308105D0308105D0308105D0308105D0308105D0308105D0308105D0308105D0308105D0308105D030810FF
:400180005D0308105D0308105D0308105D0308105D0308105D0308105D0308105D0308105D0308105D0308105D0308105D0308105D0308105D0308105D0308105D030810BF
:4001C0005D0308105D0308105D0308105D0308105D0308105D0308105D0308105D0308105D0308105D0308105D0308105D0308105D0308105D0308105D0308105D0308107F
:400200005D0308105D0308105D0308105D0308105D0308105D0308105D0308105D0308105D0308105D0308105D0308105D0308105D0308105D0308105D0308105D0308103E
:400240005D0308105D0308105D0308105D0308105D0308105D0308105D0308105D0308105D0308105D0308105D0308105D0308105D0308105D0308105D0308105D030810FE
:400280005D0308105D0308105D03081010B5054C237833B9044B13B10448AFF300800123237010BD4890020800000000848B0810084B10B51BB108490848AFF30080084834
:4002C000036803B910BD074B002BFBD0BDE81040184700BF000000004C900208848B0810B4480208000000007047EFF3108072B6704780F310887047FFF7F6FF72B6114C62
:40030000114DAC4209DA21686268A368043BA2BFC858D050FAE70C34F3E70C490C4A00209142BCBF41F8040BFAE70A480A490860BFF34F8F00F016F900F0F0F800F01EF899
:40034000FEE70000646E09107C6E091048900208BCA002080040020808ED00E0FEE7FEE700B504207146084202D0EFF3098001E0EFF30880043002F0CDFBFEE708B562B66F
:4003800000F0A6FF002008BD704700BF5C4AD2F8803303F00F0303F1D00152F8212002F00702032A04D0042A05D092B9554914E0554A116811E003F1C002514951F8222015
:4003C00002F01F02112A06D0132A04D04FF4FA4103E04E4901E04FF400418BBB484BD3F8902502F00100D3F88825C2F30172D3F8883513F0405F07D0414BD3F88835C3F3B4
:400400000173012B02D102E0012300E0002303B108B9032A46D13A48D0F88025C2F31103D0F88425C2F30C02D0F88005C0F300600130B1FBF2F202FB03F2B2FBF0F131E0E9
:40044000012B2FD12E4BD3F8402602F00100D3F80026C2F30172D3F8003613F0405F07D0274BD3F80036C3F30173012B02D102E0012300E0002303B108B9032A12D120488E
:40048000D0F8002602F07F02D0F80036C3F30423D0F80006C0F3044002FB01F2B2FBF3F2B2FBF0F1164BD3F88033C3F3011321FA03F215494A601648D0F89030C3F30723A4
:4004C00001330069000E0130B2FBF0F08860B2FBF3F3CB600B6103F5742202F23F220D48A0FB0202C2F387420A7503F2E7330A4AA2FB03239B098B61DB03CB61704700BF77
:400500000000264000127A008C42020800366E010000214083DE1B43D34D621008B5104BD3F8802122F0404242F08042C3F88021D3F8802142F00042C3F88021D3F880218A
:4005400022F00102C3F88021FFF71EFFFFF71EFF00F040FF00F046FF02F01AFA08BD00BF0000264008B5FFF7C0FE074AD2F8883043F47003C2F88830BFF34F8FBFF36F8FF0
:40058000FFF7B7FE08BD00BF00ED00E0034B0122C3F81028D3F81038704700BF00002840F0B58DB06C46394D0FCD0FC40FCD0FC495E80F0084E80F00002530E0344F6B0048
:4005C0002B44DE00BC196946204602F06FFB07F1480303EB052363602E4BA36024B940F226412D4802F086FA24B940F2E5312A4802F080FABB599B0F04D140F227412648D5
:4006000002F078FAE36843F07F43E360013505EB4502D3001E491944204602F09FFC022DCCD91B4B1B6B9B0F04D140F227411A4802F060FA164CE36B23F07F4343F08043DA
:40064000E363002104F1300002F088FC236B43F080732363114C1249204600F067FFB4F90030002B08DB590903F01F03012202FA03F30C4A42F821300B4B0122C3F81828FE
:400680001A6842F000421A600DB0F0BDB47908106490020840026740E4790810EC7B08108D05081000E100E00000284010B584B00A4B009300218DF80410032302938DF892
:4006C0000C10074C6A46204602F0FEFBD4F8003843F00043C4F8003804B010BD649002080000284008B50A4BD3F8043813F0010F0DD0084AD2F88C32591CC2F88C12202B3A
:4007000005DDFFF7D3FF0022024BC3F88C2208BD00002840649002080246002318460AE012F0010F02D040F0C06001E040F08060C00852080133072BF2DD70472DE9F041DF
:40074000054688461F461046FFF7E6FF05EBC504631CC0F307421C4E334483F84820A31CC0F30722334483F84820E31C334483F848004046FFF7D0FF231DC0F307423344A6
:4007800083F84820631DC0F30722334483F84820A31D334483F848003846FFF7BDFFE31DC0F30742334483F848200834C0F30723344484F84830013505EBC505354485F8B5
:4007C0004800BDE8F08100BF64900208F8B50D4616461F46041E03DAA921174802F08AF9AC4203DBAA21144802F084F93F2D03DDAB21114802F07EF99DF818303A46314670
:400800002046FFF79BFF012112E00A1902EBC20201320A48861804EBC40301330344D3F800E05F6840F802E077601B7A337201312B1B9942E9DDF8BD207A0810AC90020823
:4008400070B582B040F24121C54804F06BFF0020FFF762FF06460146C24804F063FFFF20FFF75AFF04460146BF4804F05BFF8020FFF752FF05460146BC4804F053FFBC4B9A
:400880009E4203D0C021BB4802F034F9BA4B9D4203D0C121B74802F02DF9B84B9C4203D0C221B44802F026F9FF23002280211046FFF744FFB24B93F84930922B03D0CA213E
:4008C000AC4802F017F9AE4B93F84A30492B03D0CB21A84802F00EF9A94B93F84B30242B03D0CC21A34802F005F9A54B93F84C30D22B03D0CF219F4802F0FCF8A04B93F80A
:400900004D30492B03D0D0219A4802F0F3F89C4B93F84E30242B03D0D121964802F0EAF8974B93F84F30DB2B03D0D421914802F0E1F8934B93F850306D2B03D0D5218D4810
:4009400002F0D8F88E4B93F85130B62B03D0D621884802F0CFF88023FF2200210120FFF7EDFE874B93F85230DB2B03D0DB21814802F0C0F8824B93F853306D2B03D0DC214B
:400980007C4802F0B7F87E4B93F85430B62B03D0DD21784802F0AEF8794B93F85530922B03D0E021734802F0A5F8754B93F85630492B03D0E1216F4802F09CF8704B93F8A4
:4009C0005730242B03D0E2216A4802F093F86C4B93F85830D22B03D0E521664802F08AF8674B93F85930492B03D0E621614802F081F8634B93F85A30242B03D0E7215D48A0
:400A000002F078F800238022FF210220FFF796FE5B4B93F85B30D22B03D0EC21554802F069F8574B93F85C30492B03D0ED21514802F060F8524B93F85D30242B03D0EE2163
:400A40004C4802F057F84E4B93F85E30DB2B03D0F121484802F04EF8494B93F85F306D2B03D0F221434802F045F8454B93F86030B62B03D0F3213F4802F03CF8404B93F820
:400A80006130922B03D0F6213A4802F033F83C4B93F86230492B03D0F721364802F02AF8374B93F86330242B03D0F821314802F021F800231A4619460220FFF73FFE002311
:400AC0001A4619460320FFF739FE00231A4619460420FFF733FE002300938023FF2204210220FFF773FE264B93F85B30D22B04D04FF482711F4801F0FDFF214B93F85C302D
:400B0000492B04D040F205111A4801F0F3FF1C4B93F85D30242B04D04FF48371154801F0E9FF174B93F85E30DB2B04D040F20911104801F0DFFF124B93F85F306D2B04D026
:400B40004FF485710B4801F0D5FF0D4B93F86030B62B17D040F20B11064801F0CBFF11E02C7A08104C7A0810607A0810747A081024499200207A08102449D200B66DDB001F
:400B800064900208714B93F86130922B04D04FF487716F4801F0AEFF6C4B93F86230492B04D040F20F116A4801F0A4FF674B93F86330242B04D04FF48871654801F09AFF24
:400BC000624B93F86430D22B04D040F21311604801F090FF5D4B93F86530492B04D04FF48A715B4801F086FF584B93F86630242B04D040F21511564801F07CFF534B93F801
:400C00006730DB2B04D04FF48C71514801F072FF4E4B93F868306D2B04D040F219114C4801F068FF494B93F86930B62B04D04FF48D71474801F05EFF444B93F86A30922B9C
:400C400004D040F21D11424801F054FF3F4B93F86B30492B04D04FF48F713D4801F04AFF3A4B93F86C30242B04D040F21F11384801F040FF354B93F86D30D22B04D04FF4DB
:400C80009171334801F036FF304B93F86E30492B04D040F223112E4801F02CFF2B4B93F86F30242B04D04FF49271294801F022FF264B93F87030DB2B04D040F227112448D5
:400CC00001F018FF214B93F871306D2B04D04FF494711F4801F00EFF1C4B93F87230B62B04D040F229111A4801F004FF174B93F87330922B04D04FF49671154801F0FAFE7F
:400D0000124B93F87430492B04D040F22D11104801F0F0FE0D4B93F87530242B04D04FF497710B4801F0E6FE002407E0074B234493F84810074804F0F5FC0134092CF5DD03
:400D40000A2004F007FD02B070BD00BF64900208207A0810887A081010B582B0FFF770FD00200B4B83F848000090034602463F21FFF72CFD074C084A0849204601F0C2F8AF
:400D8000236843F000432360FFF70AFC02B010BD649002080000674094A002089C83081010B504462146034801F066F80028F9D010BD00BF00006640054BD3F80833C3F3DB
:400DC0000803002BF8D0024BD3F84003704700BF000066402DE9F0412C4B0122C3F83021D3F8303100264DE0304603F015FC032001F074FE002441E0204603F05BFB0A20F4
:400E000001F06CFE03F092FB012003F0A1FB0028FAD01F4802F00CFA1E4B1B6803EB83039A001D4B1A44536823B94FF476711B4801F060FE0021164802F07AFA804635467D
:400E40002746144B1B6803EB83039A00124B1A44536823B94FF49661104801F04BFE424600210B4802F0BAFA05EB45056B001F440B4B03EB870738600134E4B2052CBBD953
:400E80000136F6B2052EAFD9BDE8F0810000384000001D41409702080C840810907A0810109F020844F20703984200F09C8030B58BB00C461BD842F21503984200F09F8088
:400EC00007D8B0F5805F2ED042F20903984276D00CE143F20303984239D044F20603984239D043F20203984240F0008123E045F20103984200F08F8008D844F2080398422D
:400F000075D044F21003984240D0EFE045F20303984200F0B080C0F09E8045F20C03984200F0B280E2E072480DF02EFC0021084602F086FCDAE00B78002B40F0D78000218D
:400F4000084602F07DFCD1E0013BDBB200E00623002BF9D1CAE0674B1B88ADF814309DF8153013B9644AD35C00E00023002B40F0BD80624804F05CFC0021084602F060FC87
:400F800000225F4B1A7000F097FAAFE05D4804F0C9FBA06841790279C378847845780078029001950094584804F0BCFB0223574A5360A2F5BF22A2F52072536096E04D4BE3
:400FC0001B788DF8143000238DF81530ADF8183002238DF817308DF8163007F009FF05A80DF02CFC82E00022454B1A70704717223F4B1A810021084602F022FC76E00B7823
:4010000023B93C4B18780DF0E3FB6FE0394B18780DF0DEFB6AE0374A0B8813803C4B14889C813C490868418819813B491960142199803A4B9C8145881D81394D1D609980AC
:40104000384B9C814088188137481860998010780DF0BEFB4AE0274B1A780B789A4206D1324804F0E5FB234BFF221A705A7002222F4B9A603AE04B88B3F5007F28BF4FF4B6
:4010800000731B4A138131E005AB07C983E807002289204B1B689B889A4227D1E0680FF087FF18BB059B1B78003318BF0123144A1370204804F0BCFB154B0E4A10889881D3
:4010C000144A11684A881A81134A1A6014229A80124B98814C881C81114C1C609A80114B988149881981104919609A800BB030BDAC4202080C9F020870A00208B07A08102E
:40110000F7920208C47A0810DC7A081000003840B49F020814460208F89E0208D49E0208E49E0208C49E0208A09F0208007B081080053240147B0810F0B54FF0000E7546E4
:4011400027E00EEB4E02D300034403EB8703D3ED007A9FED127A67EEC77AFDEEE77A17EE902A0DE00E4B83FB0234D317C3EBA4031E4603EB83035C00131B4B5532460135B1
:40118000002AEFDC013700E00027052FD9DD0EF1010EBEF1050FF7DDF0BD00BF0000C842676666662DE9F041234A5523137051215170224A137052215170214A13705323F4
:4011C00053700223002632E0DFF86CC01CF80340825D42EA0414E4B20CF80340DFF85CE01EF803108519AA7C42EA0111C9B20EF80310134F17F8038095F8242042EA081298
:40120000D2B2FA54751C10F8058048EA04140CF803404419A57C45EA01110EF8031094F8241041EA0212FA5402360133DBB2132BCAD9BDE8F08100BFF89E0208E49E02082D
:40124000A09F020810B5164C1649204600F06EF9B4F90030002B08DB5A0903F01F00012181406032104840F82210002B08DB590903F01F03012202FA03F30B4A42F82130D1
:4012800062B60A4C0A4A0021204600F08DFC0123A36040F2E732C4F81421236110BD00BFE47B0810D50D081000E100E0000038409884081000B583B0044800F0A5F86846AC
:4012C00007F09AFD03B05DF804FB00BFA50E081030B59DB062B600F0BDF82D4C204604F0A7FA2C4804F0A4FA204604F0A1FA2A4B1868002302221946406804F0A1FA274830
:4013000004F096FA03F04AF903F0C4F803F074F9FFF722FD4FF4FA51012001F097FC01F071FCFFF7C3F91E49002001F0B1FCFFF7C1FF03F081F9FFF785FF6C22002101A872
:4013400003F076FD07F066FD164B1B78002BF9D001A91548FFF7F0FE01A8FFF723FF134B5B78134AD35C13F0FF0FEBD1114C0125A56011480FF00EFE10480FF00BFE1048EB
:401380000FF008FE0022074B1A706560DAE700BF2C7B0810847B081070480208A07B0810E5060810F7920208109F02080C9F020880A0020800063240B49F0208D49E02089B
:4013C000C49E020808B5024800F04AFB08BD00BF2493020808B500221146042000F030F908BD00BF10B501F0F0FB0446044800F0E3F9044800F044FA204601F0EAFB10BD83
:40140000F8920208A87B081088B108B5094AD062094B1B7833B9104602F09CF80122064B1A7000E0002020B902F0C4F808BD0348704708BDB8420208789402080100160071
:4014400008B50249024801F0B7F908BDC49F02080000664008B5114B1B785BB9104A1149114800F07FFF1149114800F05FF801220A4B1A700E4BB3F90030002B08DB5909C5
:4014800003F01F03012202FA03F30A4A42F82130054A136843F00043136008BD80940208C49F0208A87E08100000664041140810FC7B081000E100E008B5084B1B783BB9E8
:4014C000074A0121074800F0F7FB0122034B1A70044B02229A609A6108BD00BF81940208E87E08100000384038B50C4B9A680C4B9A420ED10D46044619B9FC21094801F026
:40150000F9FA04F11003064A52F8230042F8235038BD1030044B53F8200038BD00ED00E0004002084C7F08100000081070B338B504460D464368072B03D93621154801F045
:40154000D9FAB4F900306268002B08DB5201D2B203F1604303F5614383F8002305E003F00F035201D2B20C49CA540C4B9A680C4B9A420DD11DB94521064801F0BBFA2946FE
:40158000B4F90000FFF7B0FF002038BD05487047002038BD4C7F081014ED00E000ED00E0004002080100560038B50369002B0DDA0D4604460B0C1B0423B140F2A721044821
:4015C00001F098FAA9B26160002038BD014838BD907F081001008A0038B50368002B01DA002300E0094B73B90D460446C2600B0C1B0423B140F28E21054801F07BFAA9B2AE
:40160000A160002038BD014838BD00BF01008A00907F081038B504460D4619B99921064801F068FA2369002B03DAE3682B60002038BD024838BD00BFD07F081001008A00BF
:401640000F2840D8F8B515460E46044682B979B90F2804D940F29D11214801F04BFA600100F1804000F50C101E4B18600020F8BD5DB366B316F01F0F2BD10F2C04D940F2F9
:401680009D11174801F036FA640104F1804404F50C14144F3C607E60BD60F2080021284603F0C6FB00212046FFF77EFF3A4652F8040B0021FFF790FF68B900213868FFF73D
:4016C00073FF50B9F8BD084870470748F8BD0648F8BD0548F8BD0548F8BD0448F8BD00BF108008108494020803018A0001018A002DE9F0411B4B1B68DC68236883422CD93B
:401700000D464609A0EB4610012303FA00F819B901F05BFA074600E00027124B18680368002B01DA002300E00F4B83B9626852F8263018EA030F05D023EA080342F82630BF
:40174000002400E0094C0021FFF72EFF00E0084C25B9384601F03DFA00E0064C2046BDE8F08100BF8494020801008A00020188000301880004018A000B4B1B68DB681A68B6
:4017800082420CD94109A0EB4110012202FA00F05B6853F82130184203D004487047044870470448704700BF849402080101880004018A0000018800024B1B680BB9014B53
:4017C00018607047909402082DE9F8430446884691461E46089F072803D9B421244801F089F9244B1B682C2000FB04F01C18F5B21D50C6F307236360360CA6600F2D04D906
:4018000040F29D111C4801F075F96D0105F1804505F50C15256165680F2D04D94FF4DC71154801F067F9154B03EB45156561A668330C1B0423B14FF4EB710F4801F05AF92F
:40184000330C1B0423B140F2D7110B4801F052F9B3B243EA0646AE60C4F81C90C4F820800023A36117B1B7F90030A381BDE8F8835080081090940208108008100010234099
:40188000F0B58FB0044618B950212C4801F032F9A369072B03D95421284801F02BF9E36A1BB95621254801F025F9E368072B03D95721224801F01EF9236A072B03D95821A9
:4018C0001E4801F017F9236B1BB959211B4801F011F907AE04F114050FCD0FC62F6802AD26460FCE0FC533682B60079B1933ADF83030089B0D93A26AE16A0CAD00953B46EE
:401900000A98FFF761FF00210091069B0A460598FFF75AFF216B2846FFF708FEBDF93030002B08DB590903F01F03012202FA03F3034A42F821300FB0F0BD00BF508008108F
:4019400000E100E0F8B507460E461D4614461AB9FC21224801F0CEF8072F03D9FD211F4801F0C8F8072E03D9FE211C4801F0C2F81B4B1B682C2202FB073002FB0636736884
:40198000012202FA03F31B04476802FA07F70269EAB1B169E9B91268002A01DA002200E0104AC2B92288134323600369DC600123B361756204693B0C1B0423B140F28E2170
:4019C000094801F097F8BAB2A2600020F8BD0748F8BD0748F8BD0648F8BD00BF508008109094020801008A001080081004028A0007028A0070B504460E461546072804D973
:401A000040F25F11084801F075F8084B1B682C2202FB0434E369AB4204D9236A43F82560002070BD024870BD50800810909402080A028A0038B504460D46072804D94FF451
:401A4000C771054801F056F8044B1B682C2202FB0434A56238BD00BF508008109094020870B582B000230193044620B94FF4D971264801F03FF8236923B940F2B31123485F
:401A800001F038F8636923B94FF4DA711F4801F031F8236A23B940F2B5111C4801F02AF86369DD682A0C1CD012041A601B6820690369002B15DA01A9FFF7ACFD60B9019826
:401AC00003681E0CDBB2E269934206D2226A52F8233013B1984700E0002631462069FFF763FDADB275B16369ADB21D601B68636A1BB198470023636202E0A36A03B1984712
:401B00000023A36163691B6802B070BD5080081010B50446072804D940F20B210D4800F0E9FF0D4B1B682C2202FB0434B4F90C30002B0DDB5A0903F01F03012101FA03F3DD
:401B40002032064941F82230BFF34F8FBFF36F8F002010BD508008109094020800E100E010B50446072804D940F22A210B4800F0C1FF0B4B1B682C2202FB0434B4F90C3055
:401B8000002B08DB590903F01F03012202FA03F3044A42F82130002010BD00BF508008109094020800E100E000287DD00346002A7CD070B45068000280B29568AD0405F444
:401BC00080252843D468240404F4403404431069000600F0E0602043147F0CB1012400E0002420430C1DA4011851D06828B903EB81100024C0F808410CE0012805D1146875
:401C000003EB8110C0F8084104E003EB81100124C0F80841106938B9546903EB8110C0F80C419469C0F81041146803EB8110C0F81441906CB0F1FF3F17D0946A04F00F041B
:401C4000166B360206F470663443956B2D0405F470252543146C2403A4B22C430001C0B2204303EB8114C4F82001506A00F00300D66A360106F030063043556B2D0205F4F0
:401C800040752843D46BA401E4B20443506C800000F00C00204303EB8113C3F82401126AC3F83821002003E0024870470148704770BC70470100B600002800F0AC8070B4B0
:401CC0000446002A00F0A98092F828300BB1012500E00025137F0BB1022300E000231D431669B60406F4802645EA060395682D0405F440351D431668300600F0E06028435C
:401D0000136B556B43EA45031B0503F440130343906B43EA8000052E03D1D3681B029BB202E053681B029BB20343081D800123501368062B08D104EB81130120C3F8080199
:401D40003F20C3F828011DE0936843B904EB81130020C3F808013120C3F8280112E0012B08D1506904EB8113C3F808011C20C3F8280107E004EB81130120C3F808011220F8
:401D8000C3F82801106A04EB8113C3F80C01506AC3F810015069C3F814019069C3F81801136EB3F1FF3F17D0106C00F00F00966C360206F470663043156D2D0405F470251B
:401DC0000543906D000380B228431B01DBB2034304EB8110C0F82031D36B03F00303566C360106F030063343D56C2D0205F440752B43506D8001C0B21843D36D9B0003F04F
:401E00000C03034304EB8114C4F82431D36AC4F83831002002E002487047014870BC70470100B60010B4D0F8003303F00F03072B06D900230DE0D0F84043CC54013300E00C
:401E400000239342F7D306E0D0F8404321F8134001339342F8D35DF8044B704710B51446D0F80833C3F308039A4200D31C462246FFF7D8FF204610BD036813F4006F01D0C6
:401E8000802200E04022D0F80832C3F30803934203D0C0F84012012070470020704700BF10B4D0F8003203F00F03072B06D900230DE0CC5CC0F84042013300E00023934209
:401EC000F7D306E031F81340C0F8404201339342F8D35DF8044B704710B51446036813F4006F01D0802200E04022D0F80832C3F30803D31AA34200D81C462246FFF7D0FF9C
:401F0000204610BD002800F03081F8B50546002900F02D810B78012B03D19948854200F02881087F18B19648854240F0248116460C46012B03D94C21924800F0DBFD6378B8
:401F4000012B07D9052B05D0022B03D04D218D4800F0D0FDA378032B03D94E21894800F0C9FD2378012B07D16368023B0E2B03D95021844800F0BEFDA36933F00F0303D07D
:401F80005121804800F0B6FDA368043B0C2B03D952217C4800F0AEFDE368043B0C2B03D95321784800F0A6FD6378022B07D0A268E3689A4203D05421724800F09BFD636A4A
:401FC00033F06D0303D056216E4800F093FDE36A33F0730303D057216A4800F08BFD236B33F4206303D05821664800F083FD6378A778052B07D8DFE803F0060305060603F1
:40200000022700E00027A368082B04D8E368082B03D9002302E0002300E0012313B14FF4006200E00022217F11B14FF4807300E000231A436368013B03F00F03134343F0D8
:4020400080732B60236A2A6812F4006F01D0802200E04022934203D365214A4800F04AFDA36A2A6812F4006F01D0802200E04022934203D36621434800F03CFD237D0BB98C
:40208000012100E000216278052A01D1022300E000230B43E17C09B1102100E000210B43617C09B1202100E000210B432178012902D14FF0004100E000210B43BF0007F0D3
:4020C0000C073B43A169090201F470610B43120602F0407213432B62237C13B14FF4807200E00022A17C11B14FF4007300E000231A43A368013B03F00F031343C5F8003366
:4021000094F82030C5F80433237C13B14FF4807200E00022E368013B03F00F031343C5F8003294F82830C5F80432636A03F06D03C5F8C83FE36A03F07303C5F8883F236BD1
:4021400003F40073C5F8003F236B03F40063C5F8403F0023C5F8C83E7EB118463360B361F360F361084B3362F8BD084870470748F8BD0648F8BD0548F8BD0020F8BD00BFD3
:4021800000006940D4800810EFCDAB000140AA002DE9F84305460C46036813F4006F02D04FF0800801E04FF04008D5F8007207F00F07A26A012A19D9D4F82490E262561E3B
:4021C000B9F1000F00D026B940F22C51254800F091FC324649462846FFF77EFEA36A1B1AA362072F00D9400048446062D5F80832C3F30803984533D0A36A012B30D100230E
:40220000A362072F02D8636A1E7801E0636A1E8800F0DBFCC5F840624FF40073C5F8803FD5F8803F00F0D5FCD5F8883F23F4007222F0010242F4007623F4EE6323F00303CE
:4022400023B14FF48161084800F054FCC5F8886F236843F002032360236B0BB101209847BDE8F88314810810908008102DE9F04105460C46036813F4006F01D0802600E080
:4022800040267608A769D4F81C8017B1B8F1000F04D14FF49061314800F02CFC424639462846FFF7DBFD236A03442362E3691B1AE36173BBA368FBB1E3689E4201D8013E1F
:4022C00000E05E1E2B6813F4006F01D0802300E040239E4204D340F25E21214800F00AFCD5F8043323F0FF03F6B21E43C5F804630123C5F8C83F02E00023C5F8C83F636839
:4023000023F001036360236B33B304209847BDE8F081A169D5F8002302F00F02072A00D940000844A0619E4216D95C1E2B6813F4006F01D0802300E040239C4204D340F2B2
:402340005E21074800F0D6FBD5F8043323F0FF02E3B21343C5F80433BDE8F0811481081090800810002800F0A98170B50546002900F0A6819E4B984200F0A48116460C4674
:402380000B78022B03D942219A4800F0B3FB637B023BDBB2062B03D94321964800F0AAFBA37B3BB1022B05D0032B03D04421914800F0A0FB94F82130012B03D945218D482C
:4023C00000F098FB94F82830012B03D94621894800F090FB2378012B06D86368083B082B94BF0023012307E0A37F2BB16368013B062B94BF002301231BB148217D4800F09A
:4024000079FBA368053B042B03D94921794800F071FB6369FF2B03D94A21764800F06AFBA369FF2B03D94B21724800F063FBA37C6BB1237833B9A368092B05D1A37B2BB1A4
:40244000012304E0012302E0012300E000231BB14D21684800F04EFB636B23F4366323F00D031BB14F21634800F044FBE36B23F4EE6323F003031BB150215E4800F03AFB76
:402480002378022B01D1A37F13B163685A1E00E00022237F13B14FF4803100E00021A068082802D84FF4006300E00023194302F00F030B4343F000732B60236B2A6812F43C
:4024C000006F01D0802200E04022934203D36521484800F00FFBA36B2A6812F4006F01D0802200E04022934203D36621414800F001FB636A2A6812F4006F01D0802200E065
:402500004022934203D367213A4800F0F3FA23781B0603F040732B64637F0BB1402200E00022A17C11B14FF4806300E000231343227C12B14FF4807200E000221343627C8A
:4025400012B14FF4007200E000221A43E36A013B1B0403F470231343627B013A02F007021343A27B120102F030021343AB64237B13B14FF4807200E00022E17B21B9237870
:40258000022B03D1012302E0012300E0002313B14FF4007300E000231A43A368013B03F00F031343C5F80033227DA3691B0403F47F031343C5F81033E26AD5F8003303F0A9
:4025C0000F0303339A4201D3102A03D97D21094800F090FAE37F23B12378012B03D0002302E0002300E0012333B14FF4807204E000006940548108100022637B013B03F0A6
:4026000007031A43A37B1B0103F0300313436B64237B13B14FF4807200E00022A368013B03F00F0313432278012A02D14FF4803200E000221343C5F8003294F83030C5F8F6
:40264000043394F8203013B14FF0007100E0002194F82120012A02D14FF0807300E000230B4394F82820012A02D14FF4803200E00022134394F8242013432B6594F83830BB
:40268000C5F80432636B23F4926323F002031B051B0DC5F8C83FE36B23F08C035B055B0DC5F8883F86B1002070603060B060F0603062F0623063054B736370BD0448704709
:4026C000034870BD024870BD002070BDEFCDAB000160AA000B694A69934202D34869181A7047CA694869101A184470472DE9F04107460D46036813F4006F02D04FF080083F
:4027000001E04FF040084FEA5808D7F80863C6F308062C6926E00134EB689C4200D100246B699C420FD12B6B0BB1082098476B699C4208D10023C7F8C83F0CB1013C13E055
:40274000EC68013C10E0D7F84023D7F8003303F00F03072B02D8AB681A5502E0AB6823F81420013E002ED6D12C61EC6829463846FFF7B0FF201A804519D908B1441E00E05A
:4027800000243B6813F4006F01D0802300E040239C4204D340F25E21064800F0ABF9D7F8040320F0FF03E0B21843C7F80403BDE8F08100BF9080081038B504460D46D0F8F3
:4027C000003E13F0080F35D0D0F8CC3F13F448730AD04A681A434A60C0F8C03FD0F8C03F0B6B0BB110209847D4F8CC3F13F4006F09D06B6843F400636B604FF40063C4F8D5
:40280000C03FD4F8C03FD4F8CC3F13F0010F11D0EB6923B129462046FFF728FD05E0AB681BB129462046FFF761FF0123C4F8C03FD4F8C03FD4F8003E13F0040F2ED0D4F868
:402840008C3F13F4A0630AD02A681A432A60C4F8803FD4F8803F2B6B0BB120209847D4F88C3F13F0010F08D029462046FFF790FC0123C4F8803FD4F8803FD4F88C3F13F418
:40288000007F0BD00022C4F8882F2B6823F001032B60EA622B6B0BB10220984738BD00BF1F4B98422DD00CD840282ED003D8E8B1102828D02FE0802829D0B0F5807F28D026
:4028C00029E0184B984228D006D8B0F1204F0DD0154B984212D01EE0144B98420AD00133984209D0023B984215D101E0002070470F4870470F4870470F4870474FF4A000F9
:402900007047074870470D4870470D4870470D487047034870470C4870474FF4A400704706005200010000F0090000A0040000F001005200020052000300520001005000D8
:402940000200500005005200FF00520008B50C4B1B69002B12DB0B4B1868FFF7A1FF0122094BC3F88C24084BD3F80C34002BFAD1054BD3F88C34002BF5D108BD034808BD6A
:402980002000234094940208000025400200500000B583B05523ADF80030002301930C496846FEF7C3FDBDF90030002B08DB590903F01F03012202FA03F3064A42F82130AC
:4029C000022205490120FFF715F803B05DF804FBF948020800E100E0194A020838B5044600F0F3F82CB1184B5B681F2B03D9002302E0002300E001231D460BB3E368E3B15A
:402A00002368E3B1104B99680B46002203E0A34204D01A465B69002BF9D100E000257DB111B9094B9C6000E05461226100236361054A53680133536002E0002500E00025AA
:402A400000F0C7F8284638BDA494020838B5044600F0BBF8144B5A680AB399680B4602E0A34204D05B69002BFAD1002500E00125B5B1A14206D14B695BB10B498B60002138
:402A8000196106E019695C694C61596909B11B690B61013A044B5A6012B99A6000E0002500F097F8284638BDA494020810B5044605E0084B186800F07FF8A4F50044B4F570
:402AC000004FF6D8044B186800FB04F000F074F810BD00BFA8420208A442020808B5034B1B7800FB03F000F067F808BDA042020801BEFEE738B50D46044C18220146204688
:402B000002F050FFA5610020FFF7F2FF084D0208FEE700BF08B50268254BDA6142681A6282685A62C2689A620269DA6242691A6382695A63C2699A631E4A916AD963D16A07
:402B40001964516A5964516B9964926BDA64F1EE103A13F0900F27D0026A154B1A65426A5A65826A9A65C26ADA65026B1A66426B5A66826B9A66C26BDA66026C1A67426C4D
:402B80005A67826C9A67C26CDA67026DC3F88020426DC3F88420826DC3F88820C26DC3F88C20026EC3F89020FFF7B2FF08BD00BF084D020800ED00E00230800803D0013046
:402BC0000238FCD100BF00BF7047EFF3108072B6704780F310887047084B1B6813F4803F07D17047064B53F8243003B19847013401E010B50024042CF4D910BD10E000E03F
:402C0000D4940208044B1A6842F002021A601A6842F001021A60704710E000E0042805D1084A136843F0040313607047000600F04070054BC3F84002024A136823F00403E2
:402C40001360704710E000E00000214010B50C46002304E000210A4A42F823100133042BF8D9084A084BDA63FFF7D8FF24F07F44064B5C6000229A60FFF7C4FF10BD00BFD1
:402C8000D4940208D92B08100040020810E000E00346042805D8044A52F8200042F8231070470020704700BFD4940208002800F0FF8038B50546002900F0FC800C460B78FD
:402CC000032B03D930217D48FFF714FF6378032B03D931217948FFF70DFFA378032B03D932217648FFF706FF2379032B03D933217248FFF7FFFEA379012B03D934216F48A9
:402D0000FFF7F8FEE379012B03D935216B48FFF7F1FEE378012B03D936216848FFF7EAFE6379022B03D937216448FFF7E3FE237A022B03D938216148FFF7DCFE237803F047
:402D400003016278930003F00C030B43A278120102F03002134322799201D2B21343A279920602F080621343E279D20602F000621343E278120602F0807213436279120789
:402D800002F040521343227A43EA82732B60E3686B602369AB60237A012B07D013B1022B31D089E0E36AEB60002038BD636903F50063B3F5805F03D352214048FFF79AFE8E
:402DC000A36903F50063B3F5805F03D353213B48FFF790FEE369013BFF2B03D954213748FFF788FE6369C3F30B02A369344901EA03331A43E369013B42EA0363EB60E36A4E
:402E00002B61002038BD636903F50063B3F5805F03D361212948FFF76DFEA36903F50063B3F5805F03D362212448FFF763FEE369013BFF2B03D963212048FFF75BFE236AB9
:402E400003F50063B3F5805F03D364211B48FFF751FE636A03F50063B3F5805F03D365211648FFF747FEA36A013BFF2B03D966211248FFF73FFE6269C2F30B01A269104B74
:402E800003EA02320A43E169013942EA0162EA60226AC2F30B02616A03EA01331343A26A013A43EA02632B61E36A6B61002038BD04487047034838BD002038BD948108109F
:402EC00000F0FF0001004E00214B984203D003F58053984234D10F2934D8002A34D01368002B33D070B516460D4604469368032B03D9B4211748FFF7FDFD326804EB45138E
:402F0000C3F80C28337913B14FF4802200E00022B3681B0403F440331343327B12B14FF0004200E000221343727B0AB1042200E00022134305F1400149016350002070BD61
:402F400005487047044870470348704702487047000028409481081001004E0038B50D46044618B9F1210848FFF7C4FD23689B0F012B05D013B1022B04D038BDE56038BDC5
:402F8000256138BD656138BD948108102DE9F8430E46074618B937216F48FFF7ABFD1EB938216D48FFF7A6FD002F00F0CF80002E00F0CF803268694B13401BB14721664862
:402FC000FFF798FD7268664B13401BB148216248FFF790FDB36813F0FC2F03D049215E48FFF788FDF36813F0FC2F03D04A215A48FFF780FD337D032B03D94B215648FFF7C9
:4030000079FDB369B3F5803F03D34C215248FFF771FDF36D072B03D94D214F48FFF76AFD336EB3F5803F03D34E214B48FFF762FD736EB3F5803F03D34F214748FFF75AFDE7
:4030400073687B60B3683B61F3687B613369BB61337D9B07FB61B3693B62336803F46068736803F00409002435E02546A31D06EB83035A683B4B13401BB15F213648FFF722
:4030800039FDAB1D06EB8303596805F1200247F822105B6813F0012F0BD1B8F5606F08D1B9F1000F05D04FF478422F4B23F8152003E000222C4B23F81520726F02F11C73A6
:4030C00003F58033520093FBF2F31BB2274A42F825300134E4B20F2CC7D9F36DC7F81832336EC7F82832736EC7F8383296F87030DBB1B36EB3F1804F03D37B211648FFF7AC
:40310000F9FCF36E23F44F0323F0FF031BB17C211148FFF7EFFC6FF04043C7F80433B36EC7F80033F36EC7F84433D7F8003F3F2B02D0D7F8003F13B90B23C7F8003F3368AB
:4031400043F400133B600020BDE8F8830848BDE8F8830748BDE8F8830C8208100811DF0001FE302088CA887EFC9F02081CA002080100060038B50D46044618B9AD2117480C
:40318000FFF7B8FC2CB30023236063604FF0031222616261A361E361236206E003F12002002144F822100133DBB20F2BF6D90023C4F81832C4F82832C4F838325DB16FF08F
:4031C0004043C4F804330020C4F84003C4F8440338BD034838BD002038BD00BF0C8208100100060008B50368002B0ADBD0F8A032002BFBDB036843F0004303600220FFF752
:403200006DFC08BD38B505460C46012904D940F265110648FFF76EFC012C04D16B6843F480336B6038BD01236B6238BD0C820810436813F4803F03D0436823F48033436012
:40324000704700BF38B504460D46012904D940F2D1111148FFF74EFCD4F8103203F00103012D06D00AE0D4F8103203F00103013A00E00A4A1BB9002AF5D100E0074A33B15A
:403280000123C4F81032D4F81032002038BD0AB9034838BD034838BD0C82081055555501020006000300060038B505460C460F2904D940F243210848FFF71CFC0F2C07D822
:4032C000203455F8243013F0012F03D0002038BD002038BD012038BD0C82081038B505460C460F2904D940F212211048FFF702FC0F2C14D821462846FFF7D6FF80F0010065
:4033000010F0FF0F05D06B6813F0080F09D1002038BD6B6813F0040F05D1002038BD002038BD012038BD012038BD00BF0C82081038B505460C460F2904D940F269210648AB
:40334000FFF7D8FB0F2C04D8603455F8240080B200E0002000B238BD0C820810F8B506460C4615460F2904D940F263311948FFF7C1FB0F2C2BD8736813F0800F22D104F1C2
:40338000200356F8233013F4806F1BD07768C7F302170137012303FA07F7736813F4807F02D1102F00D9102721463046FFF796FF20B9ADB2B5FBF7F52DB203E03FB295FBDD
:4033C000F7F52DB2044B33F81430ED1A2DB22846F8BD00BF0C820810FC9F020870B505460C4616460F2904D940F2C3311348FFF781FB0F2C1AD86B6813F0020F19D1324695
:4034000021462846FFF7AAFF07EE900AF8EEE77AF2EE046A67EEA66A094B53F8243007EE103AB8EEC77AC6EE877A04E0DFED057A01E0DFED047A17EE900A70BD0C820810F5
:403440001CA002080000000010B50378012B02D0082B29D02EE01B4B1B78012B2CD00320FEF78AF9184B984228D0FFF7AEFB174B1860022005F0D0FC044605F0D8FC022C80
:4034800005D1032805D0052805D1002404E0104C02E0002400E00E4C0D4B9C420FD10B4B1868FFF796FB0AE0084B1868FFF791FB002404E0064C02E0054C00E0044C2046BA
:4034C00010BD00BF68A0020801018800E8940208FF00420008B50378022B1CD0082B14D0012B1ED1124B1B78012B1CD0FFF76DFB104B5860022005F08FFC022815D00D4BD8
:403500005868FFF766FB0C4808BD0A4B5868FFF760FB002008BD074B5868FFF75AFB064808BD054808BD044808BD002008BD00BF68A00208E8940208FF00420010B5044CEB
:403540002046FFF783FA04F11800FFF77FFA10BD1C46020810B5A8B10D4A9060C36A0BB10C4A136000240C4B1C700C4B1C700C4B1C600C4B1C7000F057F90B4B1C700B4B8E
:403580001C7000E00A4CFDF72DFF204610BD00BFE894020860A002087CA0020880A0020884A0020881A0020867A002086CA002080100160010B590B0374B0CAC1868596840
:4035C0009A68DB680FC42822002102A801F030FC324B02930CAB049343F6FC63ADF8143004238DF816302E4A92681269069241F266020792FB22ADF82020ADF822200322E7
:403600008DF824208DF8253006238DF8263010238DF827308DF828308DF829307B23ADF82A3001238DF82E301E4C2046FFF7D6F904F11800FFF7D2F905F0D8FB05F0DAFB80
:4036400005F0D6FB08A805F03DFC034608BB164B039302A805F0FEFB0346B8B90122134B1A700023124A1370124A13700C4B9B681A6A00929B6ADB88ADF8043040F2EF1380
:40368000ADF8063068460EF02DFB034600210A4A1160184610B010BD48820810FD3B0810E89402081C4602089C4D020868A0020870A0020871A0020884A0020808B5044BA9
:4036C0001B689847034B1B6803B1984708BD00BF0C9502085CA0020808B510B1034A52689047034B1B6803B1984708BD0C9502085CA0020870B5C0B006460C4615464FF4C8
:4037000080720849684601F088FB05E016F8012B6A401DF80250013C002CF7D1284640B070BD00BF5882081008B50022FFF7E2FF08BD00BF08B5FFF748FA08BD08B5FFF7E0
:4037400048FA08BD08B50120FEF70AFA08BD00BF08B5FFF7F7FF08BD08B50120FEF7D8F908BD00BF08B5FFF7F7FF08BD08B5094B58601960012208491046FEF73BF9034665
:4037800028B9002205490120FEF734F90346184608BD00BF0C950208D9360810BD36081038B515460B46024601210020FEF7CAF8044618B129460120FEF73CF9204638BD6B
:4037C000704700BF704700BF002070470048704711001600004870471100160000487047110016000048704711001600004870471100160000487047110016000048704723
:40380000110016000048704711001600004870471100160000487047110016000048704711001600704700BF08B5034800F03AFD024800F049FD08BD144602080C4602081F
:40384000F8B5022872D8002972D10022134606E03B4CE45C012C01D90132D2B20133002BF6D0012A0CD1374B1B681C6801EB8102930023445B681B79023BDBB2012B59D838
:40388000314B1B78002B57D1304B1970E0B92D4F3C68236801EB8105AA009D186668C1EBC1014B001E44B18829822168114449686468E45A0C8039680C68224452684968B5
:4038C0000B445B8853801EE001281CD11D4F3C68236801EB8105AA009D186668C1EBC1014B001E44B1892982216811444D68616819440989298039680C682244526849689B
:403900000B445B895380124B18700E4B1B6818680E4B1B7803EB83039A00104409F008FE034650B90121084A117006E0094B04E0084B02E0084B00E0084B1846F8BD00BF01
:4039400070A00208F094020871A0020866A0020881A002080100160002001600FF00160070B439B9144B1B681B689968CE7F00231D460EE0104B1B681B68D968CE7FF6E7FC
:40398000CA5C52B10133CC5C1B2C01D0134400E00125B34201D2002DF2D05DB101338279CA54002204E0D4180134855C0D550132052AF8D970BC7047F094020870B504467E
:4039C0000EF0AAF9054620BB134B1968086A228902EB82029300143B03445A6812F0007F17D0E67B1B695A68CB69D21A06EB8606B318A28821680948184401F00EFAE37B7A
:403A0000074AD35C012B04D1064A137843F002031370284670BD00BFF094020874A002086CA0020867A0020830B587B002891A4B1B685B699B889A4229D1044601AB07C831
:403A400083E807000022ADF81020A289ADF8122040228DF814201846FFF7B0FF054680B923681B7803F002039BB22BB10B4B1B6821460B48984704E0084B1B682146094816
:403A80009847094A137803F0FE03137000E00025284607B030BD00BFF094020860A0020805000100060001007CA002084288531E9BB21C2B1AD84178D1B910B40F4B18688F
:403AC000046A02EB82029300143B23445A6812F0007F0FD01B695A68C369D31A01EB81011944074B5B5A1380002004E0012070470120704700205DF8044B7047F0940208FB
:403B000074A002080E4B1B7813F0010F17D100B583B071B18389ADF800300389ADF8023012238DF804308DF8051068460DF012FA02E0C0680DF03CFA03B05DF804FB7047F8
:403B40007CA0020810B4044688B10023194606E0114A52F82320944200D1012101330E4A127A934206D20029F2D0002003E000210A4800E0002058B951B9074B1B7A012B6B
:403B800005D8054A42F823400133137200E004485DF8044B704700BF88A00208010016000300160070B506460D460020044606E0084B53F824302946304698470134054B8C
:403BC0001B7A9C4204D2044B1B7813F0010FEFD170BD00BF88A002087CA0020883792BB100207047C25C32B9013300E00023052BF8D9002070470120704700BF70B58CB0C4
:403C000004460D46BA4A137843F00103137044F20A03984200F0EB8136D841F20403984200F0228314D841F20103984200F0FC8003D8B0F5805F65D01BE341F20203984261
:403C400000F0F58041F20303984200F0298110E344F20403984200F038810AD842F20403984200F0B78043F21203984200F0A780FFE244F20603984200F0048244F2080375
:403C8000984200F0FB81F4E245F20E03984200F0B4821BD845F20203984200F07C820AD844F21003984200F0A58145F20103984200F02782DDE245F20303984200F0848214
:403CC00045F20C03984200F08A82D2E245F21403984200F0BE820AD845F20F03984200F08F8245F21003984200F0B082C1E245F21703984200F0B08246F20103984200F05A
:403D0000FD81B6E27B4B1E683046FFF767FF60B130460AF039FD774E00213068FFF720FE01213068FFF71CFE37E0734B1A68936A1B791BB34FF0B05191F8043603F03F034E
:403D400091F8050600F03F0043EA801391F8030600F01F0043EA003391F8001601F07F0143EA4143126B1370634A1168096BC3F3072048701268126B1B0C93705E4E336867
:403D8000186B0AF001FD33680021186BFFF7E8FD33680121186BFFF7E3FD574B1B68986A02300BF049F9554A05AB1068516803C305A80AF029FD0222514B1A7059E2002307
:403DC0004F4A13704F4A13700A20FEF76FFEFFF7B5FB4EE24C4B1B6813F0010F40F049820023ADF814308DF81630434E33689B6A93F900308DF8143005A80AF045FD3368F0
:403E00009B6A93F901308DF8143001238DF81530FF238DF8163005A80AF036FD3A4A136843F00103136024E2FFF7BCFE21E24978364B1B88ADF81430002319E0344A32F84E
:403E40001320ADF808209DF8092012B93148825C00E00022012A0AD92D4A12F81320914205D12B4A32F81330ADF8143002E00133002BE3D09DF81530FF2B05D104D14FF444
:403E800072712548FEF736FEBDF81430ADF82030ADF81C30C3F307232978204AD154E8E10B78002B40F0E5810B7A43B91C4B1C22DA804FF4F8729A801A4A1A604B600C4A67
:403EC000137803F0FE031370D3E149790F4B1B88ADF81430002336E00D4A32F81320ADF80C209DF80D20FAB90A48825C1DE000BF7CA002084C460208F09402085883081002
:403F000068A0020871A0020884A002086083081064A0020870A002086483081080A002082C970208988C02080022012A0AD9B64A12F81320914205D1B34A32F81330ADF8BA
:403F4000143002E00133002BC6D09DF81530FF2B05D104D14FF47271AC48FEF7CBFDBDF81430ADF82430ADF81430C3F307236978A74AD154EB78002B40F07B816979A54B62
:403F80001B88ADF81430002319E09F4A32F81320ADF810209DF8112012B99F48825C00E00022012A0AD9984A12F81320914205D1954A32F81330ADF8143002E00133002B9A
:403FC000E3D09DF81530FF2B05D104D14FF472718E48FEF78FFDBDF81430ADF82830ADF81430C3F3072301218C4AD15441E1FFF7D9FD3EE10B7E012B02D10022884B1A70F2
:40400000E97E844B1B88ADF81030002319E07E4A32F81320ADF814209DF8152012B97E48825C00E00022012A0AD9774A12F81320914205D1744A32F81330ADF8103002E0C6
:404040000133002BE3D09DF81130FF2B05D104D14FF472716D48FEF74DFDBDF81030ADF82C30ADF81030C3F30723FF2B02D0297E6C4AD15402226C4B1A70FAE002226A4B18
:404080001A70F6E0FFF78EFD684B1B7813F0010F00F0EF80624B1B78012B03D10222604B1A70E6E0032B03D100225D4B1A70E0E0022B40F0DE800022594B1A705C4B1B68BD
:4040C0005B685C4A1178C1EBC10203EB42039A79002A00F0CE809B88002B00F0CA80564B1B78002B40F0C5800120FFF7A9FB002840F0BF8001224A4B1A70BAE0FFF752FDE2
:40410000B7E00B88ADF800309DF801301BB90221414AD15405E023B94FF461713B48FEF7E9FC6A782988384B23F812106B780021424AD15403EB8301414E88193C4B1B682C
:404140001B692A7802EB820202F58352134453F8062F8A511B790371687800EB800004213044FFF7E1FA6B7803EB830333441B7998420BD0334B1B680021334898476B78F7
:4041800003EB8303981900229A51027129462046FFF708FD6DE00B88ADF804309DF805301BB900211C4AD15405E023B94FF461711648FEF79FFC6B780021184AD1542946C9
:4041C0002046FFF7EFFC54E00B88ADF814304FF40073ADF8163005A80CF0C8FE49E00846FFF722FC014620B929462046FFF7DAFC01462846FFF786FC3BE0FFF7D3FC38E047
:40420000FFF7D0FC35E000BF64A00208648308106CA002086083081070A002082497020871A002082897020868A002087CA00208F094020866A0020881A0020880A00208DC
:4042400074A0020860A0020804000100FFF7AAFC0FE0FFF7A7FC0CE00846FFF727FC29462046FFF79FFC04E00A4A137843F001031370094B1B7813F0110F09D0064A1378F9
:4042800003F0FE031370054B1B682946204698470CB070BD67A002087CA0020860A002080020704730B108B5034A10600348FFF749FC08BD0248704738970208A142081084
:4042C000010016000020704730B108B5034A10600348FFF737FC08BD024870473C970208C54208100100160070B539B900240AE015F8010BFCF754FD013402E016460D46E0
:404300000024B442F4DB204670BD00BF70B551B900240DE0FCF750FDC0B2287001340A2806D0013502E016460D460024B442F1DB204670BD052821D8DFE800F003080D1234
:40434000171C4FF480720E4B1A6070474FF400720B4B1A6070474FF48062094B1A6070474FF40062064B1A6070474FF48052044B1A6070474FF40052014B1A60704700BFD8
:4043800000031D41052821D8DFE800F003080D12171C4FF480720E4B1A6070474FF400720B4B1A6070474FF48062094B1A6070474FF40062064B1A6070474FF48052044B32
:4043C0001A6070474FF40052014B1A60704700BF04031D41052827D8DFE800F003090F151B21124A136843F00503136070470F4A136843F4A063136070470C4A136843F48B
:40440000A023136070470A4A136843F0A06313607047074A136843F0050313607047044A136843F4A0631360704700BF9000314094003140052827D8DFE800F003090F152A
:404440001B21124A136823F00503136070470F4A136823F4A063136070470C4A136823F4A023136070470A4A136823F0A06313607047074A136823F0050313607047044A89
:40448000136823F4A0631360704700BF900031409400314010B5002404E02046FFF7CAFF0134E4B2052CF8D9FF22014B1A7010BD5046020810B50446054B1878FF2801D06E
:4044C000FFF7B8FF2046FFF785FF014B1C7010BD5046020838B50546104A114BC3F800240369FF2B09D80E49D1F80C2822F47F421B029BB21343C1F80C38094B094AC3F85C
:404500000024D3F80034084C00212046FEF732FEA9682046FEF73AFD38BD00BF030000400000014003FF008000001D4108B5074B5B6813F4802F04D001210448FEF762FE7E
:4045400008BD00210148FEF75DFE08BD00001D4108B501460348FEF775FE08B1002008BD012008BD00001D4108B5084B1B7963B907490848FCF7DAFF044B5B792BB90122AA
:40458000024B5A710448FFF7A5FF08BD40970208C9450810DC7B08100C84081008B5084B1B7913F0010F06D1FFF7DEFF044A137943F0010313710348FEF714FE08BD00BF4E
:4045C0004097020800001D4110B5094BD3F81042072C04D940F219610648FEF78BFA044BC3F81042D3F81022D3F8103210BD00BF00001D41D083081010B5002404E02046D4
:40460000FFF7C0FE0134E4B2052CF8D9FF22014B1A7010BD5146020810B50446054B1878FF2801D0FFF7AEFE2046FFF783FE014B1C7010BD5146020808B5084B1B783BB951
:40464000074A00210748FDF7AFFA0122034B1A70044B01229A609A6108BD00BF46970208988408100000384081F0004102E000BF83F0004330B54FEA41044FEA430594EAF8
:40468000050F08BF90EA020F1FBF54EA000C55EA020C7FEA645C7FEA655C00F0E2804FEA5454D4EB5555B8BF6D420CDD2C4480EA020281EA030382EA000083EA010180EA8D
:4046C000020281EA0303362D88BF30BD11F0004F4FEA01314FF4801C4CEA113102D0404261EB410113F0004F4FEA03334CEA133302D0524263EB430394EA050F00F0A780DA
:40470000A4F10104D5F1200E0DDB02FA0EFC22FA05F2801841F1000103FA0EF2801843FA05F359410EE0A5F120050EF1200E012A03FA0EFC28BF4CF0020C43FA05F3C01875
:4047400051EBE37101F0004507D54FF0000EDCF1000C7EEB00006EEB0101B1F5801F1BD3B1F5001F0CD349085FEA30004FEA3C0C04F101044FEA445212F5800F80F09A80A2
:40478000BCF1004F08BF5FEA500C50F1000041EB045141EA050130BD5FEA4C0C404141EB010111F4801FA4F10104E9D191F0000F04BF01460020B1FA81F308BF2033A3F1E2
:4047C0000B03B3F120020CDA0C3208DD02F1140CC2F10C0201FA0CF021FA02F10CE002F11402D8BFC2F1200C01FA02F120FA0CFCDCBF41EA0C019040E41AA2BF01EB045145
:40480000294330BD6FEA04041F3C1CDA0C340EDC04F11404C4F1200220FA04F001FA02F340EA030021FA04F345EA030130BDC4F10C04C4F1200220FA02F001FA04F340EA3E
:404840000300294630BD21FA04F0294630BD94F0000F83F4801306BF81F480110134013D4EE77FEA645C18BF7FEA655C29D094EA050F08BF90EA020F05D054EA000C04BF75
:404880001946104630BD91EA030F1EBF0021002030BD5FEA545C05D14000494128BF41F0004130BD14F580043CBF01F5801130BD01F0004545F0FE4141F470014FF0000054
:4048C00030BD7FEA645C1ABF194610467FEA655C1CBF0B46024650EA013406BF52EA033591EA030F41F4002130BD00BF90F0000F04BF0021704730B54FF4806404F13204DE
:404900004FF000054FF0000150E700BF90F0000F04BF0021704730B54FF4806404F1320410F0004548BF40424FF000013EE700BF42004FEAE2014FEA31014FEA02701FBF58
:4049400012F07F4393F07F4F81F06051704792F0000F14BF93F07F4F704730B54FF4607401F0004521F0004120E700BF50EA010208BF704730B54FF000050AE050EA010288
:4049800008BF704730B511F0004502D5404261EB41014FF4806404F132045FEA915C3FF4DCAE4FF003025FEADC0C18BF03325FEADC0C18BF033202EBDC02C2F1200300FAC9
:4049C00003FC20FA02F001FA03FE40EA0E0021FA02F11444C1E600BF70B54FF0FF0C4CF4E06C1CEA11541DBF1CEA135594EA0C0F95EA0C0F00F0DEF82C4481EA030621EA14
:404A00004C5123EA4C5350EA013518BF52EA033541F4801143F4801338D0A0FB02CE4FF00005E1FB02E506F00042E0FB03E54FF00006E1FB03569CF0000F18BF4EF0010E34
:404A4000A4F1FF04B6F5007F64F5407404D25FEA4E0E6D4146EB060642EAC62141EA55514FEAC52040EA5E504FEACE2EB4F1FD0C88BFBCF5E06F1ED8BEF1004F08BF5FEAF9
:404A8000500E50F1000041EB045170BD06F0004646EA010140EA020081EA0301B4EB5C04C2BFD4EB0C0541EA045170BD41F480114FF0000E013C00F3AB8014F1360FDEBF4E
:404AC000002001F0004170BDC4F10004203C35DA0C341BDC04F11404C4F1200500FA05F320FA04F001FA05F240EA020001F0004221F0004110EBD37021FA04F642EB0601CB
:404B00005EEA430E08BF20EAD37070BDC4F10C04C4F1200500FA04F320FA05F001FA04F240EA020001F0004110EBD37041F100015EEA430E08BF20EAD37070BDC4F1200588
:404B400000FA05F24EEA020E20FA04F301FA05F243EA020321FA04F001F0004121FA04F220EA020000EBD3705EEA430E08BF20EAD37070BD94F0000F0FD101F00046400077
:404B800041EB010111F4801F08BF013CF7D041EA060195F0000F18BF704703F00046520043EB030313F4801F08BF013DF7D043EA0603704794EA0C0F0CEA135518BF95EA99
:404BC0000C0F0CD050EA410618BF52EA4306D1D181EA030101F000414FF0000070BD50EA410606BF1046194652EA430619D094EA0C0F02D150EA013613D195EA0C0F05D198
:404C000052EA03361CBF104619460AD181EA030101F0004141F0FE4141F470014FF0000070BD41F0FE4141F4780170BD70B54FF0FF0C4CF4E06C1CEA11541DBF1CEA135576
:404C400094EA0C0F95EA0C0F00F0A7F8A4EB050481EA030E52EA03354FEA013100F088804FEA03334FF0805545EA131343EA12634FEA022245EA111545EA10654FEA002658
:404C80000EF000419D4208BF964244F1FD0404F5407402D25B084FEA3202B61A65EB03055B084FEA32024FF480104FF4002CB6EB020E75EB030E22BFB61A754640EA0C00B2
:404CC0005B084FEA3202B6EB020E75EB030E22BFB61A754640EA5C005B084FEA3202B6EB020E75EB030E22BFB61A754640EA9C005B084FEA3202B6EB020E75EB030E22BFD9
:404D0000B61A754640EADC0055EA060E18D04FEA051545EA16754FEA06164FEAC30343EA52734FEAC2025FEA1C1CC0D111F4801F0BD141EA00014FF000004FF0004CB6E732
:404D400011F4801F04BF01430020B4F1FD0C88BFBCF5E06F3FF6AFAEB5EB030C04BFB6EB020C5FEA500C50F1000041EB045170BD0EF0004E4EEA113114EB5C04C2BFD4EBC7
:404D80000C0541EA045170BD41F480114FF0000E013C90E645EA060E8DE60CEA135594EA0C0F08BF95EA0C0F3FF43BAF94EA0C0F0AD150EA01347FF434AF95EA0C0F7FF4FE
:404DC00025AF104619462CE795EA0C0F06D152EA03353FF4FDAE1046194622E750EA410618BF52EA43067FF4C5AE50EA41047FF40DAF52EA43057FF4EBAE12E710B501399D
:404E00000244904207D010F8013B11F8014FA342F7D0181B10BD002010BD10B5431E0A44914204D011F8014B03F8014FF8E710BD02440346934202D003F8011BFAE7704701
:404E40002DE9F04788B0002B149F1299109EDDF84CA01D4627F02007BBBF03F100431D4600232D231446B8BF1446462F0B7003D0452F03D1013601E0032300E0022307AA63
:404E8000049206AA03928DE8480422462B4600F0EFFE472F804602D1119BDB0728D5462F08EB060911D198F80030302B0AD1002200232046294602F0D3FC18B9C6F101064D
:404EC000CAF80060DAF800309944002200232046294602F0C5FC08B9302202E0CDF81C9006E0079B994503D9591C07911A70F8E7079B159AC8EB03034046136008B0BDE866
:404F0000F08773B503460029B8BF494203F8022BB4BF2D222B220929427019DD0DF1070216460A2591FBF5F405FB14113031092C02F8011D2146F5DC3031541E02F8011C51
:404F4000B4421A460AD214F8012B03F8012BF7E730241A46214402F8024B5970101A02B070BD00002DE9F04F91B00C46DDF8688016461F46054601F093FD036808931846FA
:404F800000F008FD00230E93D8F800300990073323F0070303F1080294F818A0D4F800B0C8F80020D3E90023C4E91223D4E9128929F000430B93CDF828804FF0FF32A74BC8
:404FC000DDE90A0102F07EFCA0B94FF0FF32A34BDDE90A0102F058FC60B9002200234046494602F047FC10B12D2384F843309C4B9C4A0AE042464B464046494602F062FCC9
:40500000002800F09281984B984ABAF1470F8CBF90469846032323612BF0040323604FF000093DE0BAF1670F00F08A81BAF1470F00F08681236000210DF133020193636882
:4050400005900292009342464B460691CDF810A0CDF80CE02846FFF7F3FE0AF0DF03472B804600F08481BAF1650F0D9900F28D810139524604F150000D91FFF742FF0E9AE7
:405080008318012A8146236100F37C812268D10700F178819DF8333013B12D2384F84330009733460FAA2146284600F09FF9013002D14FF0FF3096E123685A0501D423694E
:4050C00065E0BAF1650F40F2D58000220023D4E9120102F0C5FB78B30123654A31462846B8470130E5D00E9B0D9A9A420BDB2368D80708D423689B0740F111814FF00008A7
:4051000004F1190906E1099B089A31462846B8470130CED04FF0000804F11A090E9B013B9845E7DA01234A4631462846B8470130BFD008F10108F1E70D9B002B29DC012368
:405140004B4A31462846B8470130B2D00D9B23B90E9B13B92368D907CCD5099B089A31462846B8470130A4D04FF0000904F11A0A0D9B5B42994509DA012352463146284627
:40518000B847013095D009F10109F1E70E9B4246A7E00E9AA36D9A42A8BF1A46002A914606DC4FF0000A29EAE97904F11A0B11E01346314642462846B8470130F1D178E7A8
:4051C00001235A4631462846B84701303FF471AF0AF1010AA36DC9EB03029245F0DB08EB03090D9A0E9B9A420FDB2368DA070CD40E9B0D9A9844C9EB08089B1A9845A8BFC8
:405200009846B8F1000F08DC0FE0099B089A31462846B8470130EBD14BE743464A4631462846B84701303FF444AF4FF0000928EAE87804F11A0A09E001235246314628460B
:40524000B84701303FF435AF09F101090D9A0E9B9B1AC8EB03039945EEDB4BE7FFFFEF7FC8890810CC890810D0890810D4890810D88908100E9A012A01DCDB0738D50123E8
:40528000424631462846B84701303FF412AF099B089A31462846B84701303FF40AAF00220023D4E9120102F0DBFA20B14FF0000804F11A0A0EE00E9B08F10102013B19E041
:4052C0000123524631462846B84701303FF4F1AE08F101080E9B013B9845F1DB4B4604F1500231462846B84701307FF403AFE0E60123424631462846B8470130EED1D8E665
:4053000001234A4631462846B84701303FF4D1AE08F10108E3680F9A9B1A9845F0DBE0680F9B9842B8BF18465DE06268531C0EA84BF480630DF1340E7FF474AE062201E0D2
:4053400012B90122626075E6002106910DF133018DE80C00236005904246CDF810A0CDF80CE002914B462846FFF76AFD80460D9BD81C02DB626893421DDDAAF1020A5FFA2A
:405380008AFA70E60133236184E6BAF1660F14D10029636807DD216113B92268D2071DD501330B4419E013B92268D00701D5023313E0012311E04FF0670A0D9B0E9A9342E0
:4053C00005DB22682361D10708D5013305E0002BD4BFC3F102030123134423610D9BA3654FF0000956E611B0BDE8F08F2DE9F04791461F460A698B68DDF820809342B8BFB2
:405400001346C9F8003091F8432006460C4612B10133C9F800302368990642BFD9F800300233C9F80030256815F0060510D104F1190A07E00123524639463046C0470130F8
:405440001AD00135E368D9F800209B1A9D42F1DB94F843302268003318BF012392060FD5E1185A1C302081F84300224494F8451082F84310023303E04FF0FF30BDE8F0870C
:4054800004F1430239463046C0470130F4D02268D9F80050E36802F00602042A08BF5D1B2269A3680CBF25EAE57500259342C4BF9B1AED184FF000091A344D4509D001233E
:4054C000224639463046C0470130D5D009F10109F3E70020BDE8F0872DE9F04317460A7E85B06E2A984606460C460C9B01F1430E00F0AE8011D8632A22D009D8002A00F076
:40550000BB80582A40F0CA8081F84520834955E0642A1ED0692A1CD0C0E0732A00F0B08009D86F2A2ED0702A40F0B8800A6842F020020A603EE0752A24D0782A3AD0ADE069
:405540001A6801F14205111D1960136884F84230A8E021681A6811F0800F02D0111D196008E011F0400F02F10401196002D0B2F9003000E01368002B3CDA2D225B4284F86A
:40558000432037E021681A6811F0800F02D0111D196007E011F0400F02F10401196001D0138800E01368227E5C496F2A14BF0A2208221BE078225A4984F8452022681868C4
:4055C00012F0800F00F104051D6003D1550601D5038800E00368D00744BF42F0200222601BB9226822F0200222601022002084F8430001E049490A226568A560002D08DB72
:40560000206820F0040020602BB9002D7DD175460CE0002B79D07546B3FBF2F002FB1033CB5C05F8013D03460028F5D1082A0BD12368DA0708D5236962689A42DEBF302337
:4056400005F8013C05F1FF35C5EB0E0323612EE008681A68496910F0800F03D0101D1860136808E010F0400F02F104001860136801D0198000E0196000232361754616E011
:405680001A68111D1960156862680021284601F077FA08B1401B6060636804E004F1420584F8422001232361002384F84330CDF800803B4603AA21463046FFF797FE013026
:4056C00002D14FF0FF3026E023692A4639463046C0470130F5D023689B0710D5002504F1190907E001234A4639463046C0470130E7D00135E368039A9B1A9D42F2DBE068E1
:40570000039B9842B8BF184605E00B7884F8423004F142058AE705B0BDE8F083DA890810EB8908100FB40A4B13B51C6824B1A36913B9204601F02AF905AB049AA1680193CF
:40574000204601F027FE02B0BDE8104004B070477048020838B5084B1C68054624B1A36913B9204601F012F9A26829462046BDE8384001F02BBF00BF7048020870B50E46EA
:40578000054618B183690BB901F000F9AB69AC6813B9284601F0FAF8224B9C4201D16C6808E0214B9C4201D1AC6803E01F4B9C4208BFEC68A3891B0701D523693BB921469C
:4057C000284600F057F910B14FF0FF3070BD013EA36816F8011F013BA36091B1002B04DAA269934206DB0A2904D023685A1C22601970EDE72246284600F0E8F80130E7D166
:40580000E2E7002B08DA22460A21284600F0DEF80130D9D00A2070BD23680A205A1C2260187070BD0C8A08102C8A08104C8A0810024B01461868FFF7A1BF00BF70480208E3
:405840002DE9F7431D464F4B1E6804460F46904626B1B36913B9304601F098F84A4B9C4201D1746808E0494B9C4201D1B46803E0474B9C4208BFF468B8F1020F04D0B8F114
:40588000010F79D8002D77DB2146304601F014F8616B41B104F14403994202D0304601F0A3FC002363630023A3616360A3891B0603D52169304601F097FCA38923F44A6315
:4058C00023F00303B8F1020FA3811ED001AB6A462146304601F0E8F8A3891843A0810DB9009D00E02FBB284601F03EF90746D0B9DDF80090A94502D14FF0FF3006E0484670
:4059000001F032F9074678B9F6E70020A38943F00203A3810023A36004F1470323602361012363612AE0A946A38943F08003A3814D46B36913B9304601F028F8B8F1010F3A
:4059400008BFA389276004BF43F00103A381A389276103F0080080B2656158B113F001034FF000001DBF6D42A060A561A56008BF184603E0A06001E04FF0FF3003B0BDE854
:40598000F08300BF704802080C8A08102C8A08104C8A0810034613F8012B002AFBD1181A0138704710B5034642B111F8014B03F8014B013A002CF7D11A4400E010BD934245
:4059C00002D003F8014BFAE710BD0000F8B50F461446064618B183690BB900F0D7FF224B9C4201D1746808E0204B9C4201D1B46803E01F4B9C4208BFF468A369A360A38958
:405A00001A0709D523693BB123682069181A63699842FDB20FDB08E02146304600F02AF80028F1D04FF0FF30F8BD2146304600F043FF0028F6D1A368013BA36023685A1C3E
:405A400022601F706269431C934204D0A389DB0707D50A2D05D12146304600F02DFF0028E0D12846F8BD00BF0C8A08102C8A08104C8A0810324B70B51D6806460C4625B192
:405A8000AB6913B9284600F081FF2E4B9C4201D16C6808E02C4B9C4201D1AC6803E02B4B9C4208BFEC68B4F90C309AB215071DD4D00602D4092232603AE0510712D5616BE6
:405AC00041B104F14403994202D0304601F08CFB00236363A38923F02403A3810023636023692360A38943F00803A38123694BB9A38903F42073B3F5007F03D021463046CA
:405B000000F0F6FFA28912F0010305D00023A36063695B42A36103E0920758BF6369A36023695BB9B4F90C3003F0800080B230B143F04003A3814FF0FF3070BD002070BDF4
:405B4000704802080C8A08102C8A08104C8A08102DE9F74F03690C699C42804600F38380013C01F114074FEA840E00F1140657F8245006EB0E030193013556F82430B3FB23
:405B8000F5F507EB0E09002D39D04FF0000A3846B446D34650F8042B93B205FB03A34FEA134A9BB2C3EB0B03120CBCF800B005FB02A213FA8BF34FEA124A1FFA82FBDCF831
:405BC0000020CBEB124202EB23429BB243EA024381454FEA224B4CF8043BDBD256F80E306BB9019B043B9E421A4602D3C8F8104005E01268043B002AF8D1013CF3E74046F0
:405C000001F01BFA00282CDB013530464FF0000E57F8041BD0F800C08AB2C2EB0E03090C13FA8CF3C1EB1C4202EB23429BB243EA0243B9454FEA224E40F8043BE8D256F864
:405C4000242006EB840362B9043B9E421A4602D3C8F8104005E01268043B002AF8D1013CF3E7284600E0002003B0BDE8F08F00002DE9F04F456A97B08246239CCDE902234F
:405C800045B9102000F070FFCAF82400456085600560C560DAF82430196859B15A684A60012393408B60504600F0EFFFDAF8243000221A60039BA04A002BBFBF0123236050
:405CC000039B23F00043B8BF0393DDF80C80A4BF0023236028F000431B0D1B0593421DD1229A42F20F731360029B43B9934A944BC8F31300002814BF1846104600E0904864
:405D0000249B002B00F04A85C37813B100F1080300E0C31C249A136000F040BDDDE90245002200232046294601F09AFD074658B1229A01231360249B002B00F02285814840
:405D40001860013800F02ABD14AB019315AB009322462B46504601F0EBF9C8F30A56059056B1C5F3130343F07F51204641F44011A6F2FF3611971DE0159B149E1E4406F20F
:405D80003243202B0ADD029A06F21240C3F1400322FA00F008FA03F3184304E0C3F12000029B03FA00F0FEF7A1FD0123A1F1F871013E11930022644BFEF75AFC58A3D3E956
:405DC0000023FEF709FE58A3D3E90023FEF752FC044630460D46FEF799FD55A3D3E90023FEF7FAFD02460B4620462946FEF742FC04460D4601F07CFD0022834600232046EA
:405E0000294601F037FD58B15846FEF77FFD02460B462046294601F023FD08B90BF1FF3BBBF1160F0DD8494901EBCB01DDE90223D1E9000101F03CFD30B10BF1FF3B002336
:405E400000E00123109300E01090149B9E1B731E089343BFC3F10009002308934FF00009BBF1000F07DB089BCDF834B05B4408930023099306E0CBF1000309930023CBEBA6
:405E800009090D93209B092B27D8052BC4BF043B2093209BA3F10203CCBF00250125032B20D8DFE803F0060E0204012302E0012308E000230C93219B002B1CDD069398464E
:405EC0001EE000230C93219B5B4403F1010806934346012BB8BF012312E00125002320930C9501E001230C934FF0FF33069398460022122303E00123069398461A4621929E
:405F0000DAF8244000226260042101F114029A421ED86268013262604900F6E7AFF3008061436F63A787D23FB3C8608B288AC63FFB799F501344D33F0000F07FFC89081097
:405F4000058A0810D98908100000F83FA88A08106168504600F064FEDAF8243020601B680793B8F10E0F00F25D81002D00F05A819DED027BBBF1000F8DED0E7B31DDA04AC0
:405F80000BF00F0302EBC30393ED007B4FEA2B14E2068DED0A7B0CD59A4BDDE90E01D3E90823FEF743FE04F00F04CDE90201032600E00226934D6CB1E30708D5DDE90A0189
:405FC000D5E90023FEF708FDCDE90A01013664100835F0E7DDE90A23DDE90201FEF726FE20E0CBF1000404B3854B864D04F00F0203EBC203D3E90023DDE90E01FEF7ECFC0E
:40600000CDE9020124110023022654B1E70705D5D5E90023FEF7E0FC0136012364100835F3E71BB1CDE9020100E00226109BEBB1DDE902450022744B2046294601F01AFC24
:40604000A0B1B8F1000F11D0069B002B40F3E6800BF1FF330A9300226C4B20462946FEF7BBFC0136CDE90201069F02E0CDF828B047463046FEF74AFCDDE90223FEF7ACFCD2
:406080000022634BFEF7F6FA0446A1F15075CFB90022604BDDE90201FEF7EAFA22462B46CDE9020101F004FC002840F04182224605F10043DDE9020101F0DCFB002840F06B
:4060C0002E82ABE00C9A4E4B791E002A4AD003EBC103D3E9002300204F49FEF7A7FD22462B46FEF7C5FA079C05460E46DDE9020101F0FEFB1290FEF709FC02460B46DDE9EC
:406100000201FEF7B5FA129B303304F8013B2A463346CDE9020101F0ADFB002840F02183DDE9022300203849FEF7A2FA2A46334601F0A0FB002840F0D280079BE31ABB4261
:406140006CDA0022314B28463146FEF745FC002205460E462D4BDDE90201FEF73DFCCDE90201C3E703EBC10122462B46D1E90001FEF732FC079BCDE91201DC191D46DDE99D
:40618000020101F0B5FB0646FEF7C0FB303602460B46DDE90201FEF76BFA05F8016BAC42CDE902014FF0000223D11B4BDDE91201FEF760FA02460B46DDE9020101F078FB84
:4061C000002840F08C80DDE9122300201249FEF74FFA02460B46DDE9020101F04BFBE8B114F8013C302B04F1FF3240F0BA821446F6E7064BFEF7F0FBCDE90201BFE700BF99
:40620000A88A0810808A08100000F03F0000244000001C40000014400000E03FDDE90E34CDE90234159B002B7CDBBBF10E0F79DC8F4B03EBCB03D3E90067219B002B14DABE
:40624000B8F1000F11DC40F06C810022894B30463946FEF7C1FBDDE9022301F01FFB45464646002840F05F8166E1079C32463B46DDE90201FEF7DAFC01F03AFB0546FEF79E
:4062800045FB32463B46FEF7A7FB0B460246DDE90201FEF7EDF905F1300E04F801EB079BC3EB040EF045CDE902012ED102460B46FEF7E0F98046894602460B4630463946DC
:4062C00001F0D8FA78B942464B463046394601F0C7FA002800F04782E90704D443E2DDF828B000E01C4614F8012C392A04F1FF3307D1079A9A42F5D1079930220BF1010B55
:406300000A701A7801321A702DE200225A4BFEF763FB00220023CDE9020101F0A1FA0028A4D020E20C9A002A2DD0209A012A0ADC119A12B103F2334302E0149BC3F1360354
:40634000099D4C4615E0099B08F1FF35AB42BFBF099B0995EA1A0D9BB7BF9B185D1B0D930025B8F1000FB9BFC8EB090400234C464346089A01211A4450469944089200F013
:4063800023FD064602E0099D0C9E4C465CB1089B002B08DDA342089AA8BF2346C3EB0909E41AD31A0893099B002B1DDD0C9BABB185B131462A46504600F0A0FD059A01465E
:4063C0000646504600F009FD05990746504600F05CFC0597099B5A1B06D000E0099A0599504600F08BFD05900121504600F0ECFC0D9B05465BB31A460146504600F07EFD74
:40640000209B012B054618DC029B83B9039BC3F3130373B9039B23F000473F0D3F054FB1089B013309F101090893012702E0002700E0029F0D9B73B100E000272B6905EBC0
:406440008303186900F073FCC0F1200004E0209B012BD9DD0D9F0120089B184410F01F000ED0C0F12003042B08DDC0F11C0008E0A88A0810000014400000244006D01846C8
:406480001C30089B0344814404440893B9F1000F05DD4A460599504600F07EFD0590089B002B05DD29461A46504600F075FD0546109BEBB12946059800F0BFFD002817DAC5
:4064C00000230A220599504600F0F6FB0C9B05900BF1FF3B002B00F05881002331460A22504600F0E9FB069B002B064637DC33E0B8F1000F2ADC209B022B27DDCDF818805D
:40650000069B83B929460522504600F0D5FB01460546059800F091FD00280DDC03E03D4600E000252E46219B079C6FEA030B0AE0DDF828B03D463E46079B079A5C1C312382
:4065400013700BF1010BB0460026F7E00C9BCDF8188023B9079CB1E0209B022BD0DC002C05DD31462246504600F016FD06469FB17168504600F054FB32690232044692007A
:4065800006F10C010C30FEF748FC01222146504600F002FD804600E0B046029BDDF81C9003F00103089329460598FFF7D1FA3146044600F13007059800F03FFD424602906E
:4065C0002946504600F055FDC36802463BB901460990059800F031FD099A034600E0012311465046099300F050FB099B4BB9209A3AB9089A2AB9392F28D0029B002B1ADCA6
:406600001BE0029A002A04DB1AD1209AC2B9089AB2B9002B11DD01220599504600F0BCFC2946059000F009FD002802DC05D1FA0703D5392F0AD004F1310709F101040CE06C
:40664000002B09F101040BDD392F05D1392389F8003009F1010954E0013789F800706DE0079B069A04F8017CE31A9342A1463AD000230A220599504600F01EFB46450590E5
:406680004FF000034FF00A023146504604D100F013FB0646804686E700F00EFB4146064600230A22504600F007FB80467BE700230A220599504600F0FFFA05902946059816
:4066C000FFF746FA00F1300704F8017B079B069AE31A9342EBDB079B012AACBF9B180133B0469946002601220599504600F054FC2946059000F0A1FC002802DC15D1FB07BA
:4067000013D54C4614F8013C392B04F1FF3209D1079B934204D10BF1010B3123079A02E01446EFE70133137008E04C4614F8013C302B04F1FF3201D11446F7E729465046CD
:4067400000F0A3FAB8F1000F0DD02EB1464503D03146504600F099FA4146504600F095FA01E0DDF828B00599504600F08EFA0023229A23700BF101031360249B1BB11C6068
:4067800001E008480AE0079808E0069B002B3FF7E1AE209B022B7FF7DDAEB1E617B0BDE8F08F00BFD88908108A892DE9F041054610070C4659D44B68002B02DC0B6C002B6A
:4067C00017DDE66AAEB102F48052002392B22F682B600AB1606D15E0216A01232846B047411C0FD12B686BB11D2B01D0162B03D12F600020BDE8F081A38943F04003A3816F
:40680000BDE8F081A3895A0705D56368C01A636B0BB1236CC01A00230246E66A216A2846B047431CA38906D129681D293AD8214ACA40D60736D500226260D9042269226022
:4068400004D5421C01D12B6803B96065616B2F600029CED004F14403994202D0284600F0C3FC00206063BDE8F0810F69002FC0D093070E6808BF4B690F6018BF0023C7EBFD
:4068800006088B6002E00744C0EB0808B8F1000FAFDD43463A46216AA66A2846B0470028F1DCA38943F04003A3814FF0FF30BDE8F08100BF0100402038B50B6905460C464D
:4068C000DBB118B183690BB900F060F80C4B9C4201D16C6808E00B4B9C4201D1AC6803E0094B9C4208BFEC68B4F90C302BB121462846BDE83840FFF757BF002038BD00BFA7
:406900000C8A08102C8A08104C8A0810014900F0A9B800BFB9680810002310B5044603604360836081814366C281036143618361194608225C30FEF77BFA054B6362054B81
:40694000A362054BE362054B2462236310BD00BF597608107B760810B3760810D776081070B568234D1E5D430E4605F1740100F089FC044640B1002180E842000C30A060CE
:4069800005F16802FEF754FA204670BD836910B5044633BB8364C3640365124B124A1B688262984204BF0123836100F01FF86060204600F01BF8A060204600F017F80022C6
:4069C000E06004216068FFF7A7FF01220921A068FFF7A2FF02221221E068FFF79DFF0123A36110BDC48908100D690810F8B51C4B1E68B369074613B93046FFF7C7FF48364A
:406A0000B4687368013B04D4B4F90C507DB16834F8E733680BB13668F2E704213846FFF79FFF30600028F6D10C233B60F8BD4FF6FF73E3810123A38165662560A560656019
:406A400025616561A5610822294604F15C00FEF7EFF96563A563A564E5642046F8BD00BFC48908102DE9F8438046894600F14804002694B1A5686768013F0CD4AB89012BB2
:406A800007D9B5F90E30013303D029464046C84706436835F0E72468EBE73046BDE8F883004870477448020870B50E46B1F90E10002990B014461D4606DA00232B60B38958
:406AC0001A060ED540230EE001AA00F02BFE0028F3DB029A02F47042A2F500535A425A412A604FF480630020236010B070BD00008B8973B59E0705460C4610D401AB6A4625
:406B0000FFF7D2FF00990646284600F0BBFB68B9B4F90C309A0522D443F00203A38104F14703236023610123636118E00D4BAB62A389206043F08003A381009B6361019B8E
:406B400020614BB1B4F90E10284600F0FDFD18B1A38943F00103A381A0893043A08102B070BD00BF0D690810024B0146186800F089BB00BF70480208000000000000000073
:406B800001F0FF01102A2BDB10F0070F08D010F8013B013A8B422DD010F0070F42B3F6D1F0B441EA012141EA014122F007047FF000070023F0E80256083C85EA010586EA2E
:406BC000010685FA47F5A3FA87F586FA47F6A5FA87F68EB9EED1F0BC01F0FF0102F0070232B110F8013B013A83EA010313B1F8D10020704701387047002D06BF3546033874
:406C0000073815F0010F07D1013015F4807F02BF013015F4C03F0130F0BC0138704700BF70B5456A04460E463DB91020FFF79CFF6062456085600560C560656AEB6843B154
:406C4000636ADB6853F8260078B1026843F8262017E021220421204600F0B8FA636AE860DB68002BECD1002070BD012101FA06F56A1D9200204600F0A9FA0028F3D04660D0
:406C8000856000230361C36070BD70B5446A06460D463CB91020FFF767FF7062446084600460C4603DB1736A6A68DB6853F82210296043F8225070BD2DE9F0410D691F4661
:406CC00006460C4601F1140E0023DEF8000081B202FB01710F0C000C02FB007089B2013301EB00419D424FEA10474EF8041BECDCD7B1A3689D4212DB616830460131FFF7B5
:406D00008FFF2269023204F10C01804692000C30FEF783F821463046FFF7B7FF444604EB850301355F6125612046BDE8F081030C1B0413B90004102300E0002310F07F4F7C
:406D400004BF0002083310F0704F04BF0001043310F0404F04BF80000233002803DB420003D5581C70471846704720207047036813F007020BD0D90722D49A074BBF5B08C5
:406D80009B08036003604CBF01200220704799B209B91B0C102213F0FF0F04BF1B0A0832190704BF1B090432990704BF9B080232D90702D45B0805D00132036010467047C4
:406DC000002070472020704710B50C460121FFF727FF01224461026110BD2DE9F74F14460A6923699A42B8BF0B468846BCBFA0461C46D8F81070D4F81090D8F80830D8F8FA
:406E0000041007EB09069E42C8BF0131FFF708FF00F1140505EB860C2B460022634502D243F8042BFAE704F1140208F1140102EB890301EB87070093009B0192934257D9EF
:406E4000B2F800B0BBF1000F23D08946AE464FF0000859F8044BBEF800A0A3B20BFB03A34FEA144ADEF8004043444FEA14480BFB0A8404EB1344F2469BB243EA04434F45D9
:406E80004FEA14484AF8043B01D9D646E1E7CEF80480019BB3F802A00432BAF1000F21D02B682C4689464FF00008B9F800E0B4F802B00AFB0EBEF044A3469BB243EA08432D
:406EC0004BF8043B59F8043BB4F804E01B0C0AFB03E303EB18434F454FEA134801D95C46E3E763600435A7E75CF8043D13B9013E002EF9DC066103B0BDE8F08F2DE9F8436B
:406F0000154612F0030206460F4607D0013A214C002354F82220FFF7CFFE0746AD1036D0746A3CB91020FFF71FFE7062446084600460C460D6F82480D8F808404CB940F292
:406F400071213046FFF740FF0023C8F80800044603604FF00008EB070AD5394622463046FFF73BFF394681463046FFF78EFE4F466D100CD0206808B10446ECE7224621463E
:406F80003046FFF72AFF2060C0F80080F4E73846BDE8F883748A08102DE9F0470C464FEA621A26694968A368564407469146751CAB4202DA01315B00FAE73846FFF730FE2E
:406FC0000023804600F114011A46534503DA41F823200133F9E72AEAEA73206901EB830319F01F0904F1140101EB800E14D0C9F1200C0022086800FA09F002439A4643F86D
:40700000042B51F8042B8E4522FA0CF2F2D8CAF8042042B1B51C06E0043B51F8042B43F8042F8E45F9D8013D3846C8F810502146FFF72BFE4046BDE8F08703690A699B1A01
:4070400010B511D192001430143183180A4453F8044D52F8041D8C4202D007D3012010BD9842F4D3002010BD184610BD4FF0FF3010BD2DE9F8430C460746114620461546FA
:40708000FFF7DBFF061E08D131463846FFF7C8FD012303614661BDE8F883BCBF23462C4638466168BABF1D4601260026FFF7B8FD2B69C660266905F11409143404EB860773
:4070C00009EB830800F114054FF0000C54F8043B59F8042B1CFA83F11FFA82FE120CCEEB0101C2EB134303EB214389B24FEA234CC84541EA0343A64645F8043BE6D8BE45D6
:407100000ED25EF8041B1CFA81F2131403EB114392B242EA03424FEA234C45F8042BEEE755F8043D0BB9013EFAE70661BDE8F8832DE9F34101211C46089E099D9046FFF78B
:407140006FFDC4F31303C4F30A5407460CB143F480130193B8F1000F19D002A840F8088DFFF705FE009B48B1019AC0F1200102FA01F10B43C2407B61019200E07B61019B42
:40718000BB61002B14BF02210121396107E001A8FFF7EDFD019B7B6101213961203034B1A4F2334404443460C0F1350009E007EB8103A0F2324030601869FFF7B8FDC0EB64
:4071C00041102860384602B0BDE8F08138B502FB01F4214600F056F8054618B122460021FDF726FE284638BD38B50546002946D051F8043C0C1F002BB8BFE41800F0C6FA5B
:407200001F4A1368114613B96360146032E0A3420ED92268A018834204BF18685B68636004BF121822600C6024E0A24203D813465A68002AF9D118681918A1420BD12168BC
